S01B000053544D333247343331434254365F4D6F746F722E7372656352
S3150800000000800020E1170008ED120008F51200082C
S31508000010FD120008051300080D1300080000000073
S315080000200000000000000000000000001513000892
S315080000302313000800000000311300083F130008CE
S31508000040311800083118000831180008311800085E
S31508000050311800083118000831180008311800084E
S315080000603118000831180008311800084D13000827
S31508000070311800083118000831180008311800082E
S31508000080311800080000000031180008311800086F
S31508000090311800083118000831180008311800080E
S315080000A031180008311800083118000831180008FE
S315080000B031180008311800083118000831180008EE
S315080000C031180008311800083118000831180008DE
S315080000D031180008611300083118000831180008A3
S315080000E031180008311800083118000831180008BE
S315080000F031180008311800083118000800000000FF
S31508000100000000003118000800000000311800083F
S31508000110311800080000000075130008311800089F
S31508000120311800083118000831180008311800087D
S31508000130311800080000000000000000311800080F
S3150800014031180008311800080000000000000000FF
S315080001500000000000000000000000000000000091
S315080001600000000000000000000000003118000830
S315080001703118000800000000000000000000000020
S315080001800000000031180008000000000000000010
S315080001900000000000000000000000000000000051
S315080001A0000000000000000031180008311800089F
S315080001B0311800083118000831180008000000003E
S315080001C000000000311800080000000000000000D0
S30D080001D0311800083118000877
S315080001E010B5054C237833B9044B13B10448AFF363
S315080001F000800123237010BDD401002000000000F8
S31508000200249C000808B5034B1BB103490348AFF308
S31508000210008008BD00000000D8010020249C0008CA
S3150800022001F0FF01102A2BDB10F0070F08D010F899
S31508000230013B013A8B422DD010F0070F42B3F6D19D
S31508000240F0B441EA012141EA014122F007047FF0B6
S3150800025000070023F0E80256083C85EA010586EA0D
S31508000260010685FA47F5A3FA87F586FA47F6A5FA49
S3150800027087F68EB9EED1F0BC01F0FF0102F0070255
S3150800028032B110F8013B013A83EA010313B1F8D100
S315080002900020704701387047002D06BF35460338E1
S315080002A0073815F0010F07D1013015F4807F02BF1A
S315080002B0013015F4C03F0130F0BC0138704700BF6B
S315080002C0034613F8012B002AFBD1181A0138704788
S315080002D081F0004102E000BF83F0004330B54FEAE9
S315080002E041044FEA430594EA050F08BF90EA020F56
S315080002F01FBF54EA000C55EA020C7FEA645C7FEAE9
S31508000300655C00F0E2804FEA5454D4EB5555B8BF0B
S315080003106D420CDD2C4480EA020281EA030382EA7C
S31508000320000083EA010180EA020281EA0303362D0E
S3150800033088BF30BD11F0004F4FEA01314FF4801CE1
S315080003404CEA113102D0404261EB410113F0004FF3
S315080003504FEA03334CEA133302D0524263EB4303AA
S3150800036094EA050F00F0A780A4F10104D5F1200E48
S315080003700DDB02FA0EFC22FA05F2801841F10001A3
S3150800038003FA0EF2801843FA05F359410EE0A5F177
S3150800039020050EF1200E012A03FA0EFC28BF4CF0A8
S315080003A0020C43FA05F3C01851EBE37101F000455E
S315080003B007D54FF0000EDCF1000C7EEB00006EEB6B
S315080003C00101B1F5801F1BD3B1F5001F0CD34908F5
S315080003D05FEA30004FEA3C0C04F101044FEA44524C
S315080003E012F5800F80F09A80BCF1004F08BF5FEAD3
S315080003F0500C50F1000041EB045141EA050130BDB3
S315080004005FEA4C0C404141EB0101013C28BFB1F5C4
S31508000410801FE9D291F0000F04BF01460020B1FA0F
S3150800042081F308BF2033A3F10B03B3F120020CDAE2
S315080004300C3208DD02F1140CC2F10C0201FA0CF0C0
S3150800044021FA02F10CE002F11402D8BFC2F1200C25
S3150800045001FA02F120FA0CFCDCBF41EA0C019040DB
S31508000460E41AA2BF01EB0451294330BD6FEA040424
S315080004701F3C1CDA0C340EDC04F11404C4F120020F
S3150800048020FA04F001FA02F340EA030021FA04F321
S3150800049045EA030130BDC4F10C04C4F1200220FA78
S315080004A002F001FA04F340EA0300294630BD21FAB6
S315080004B004F0294630BD94F0000F83F4801306BF7C
S315080004C081F480110134013D4EE77FEA645C18BF70
S315080004D07FEA655C29D094EA050F08BF90EA020F07
S315080004E005D054EA000C04BF1946104630BD91EAFF
S315080004F0030F1EBF0021002030BD5FEA545C05D102
S315080005004000494128BF41F0004130BD14F5800440
S315080005103CBF01F5801130BD01F0004545F0FE41B4
S3150800052041F470014FF0000030BD7FEA645C1ABFE9
S31508000530194610467FEA655C1CBF0B46024650EA20
S31508000540013406BF52EA033591EA030F41F400214C
S3150800055030BD00BF90F0000F04BF0021704730B5D2
S315080005604FF4806404F132044FF000054FF00001A7
S3150800057050E700BF90F0000F04BF0021704730B568
S315080005804FF4806404F1320410F0004548BF40423D
S315080005904FF000013EE700BF42004FEAE2014FEA92
S315080005A031014FEA02701FBF12F07F4393F07F4F6D
S315080005B081F06051704732F07F4208BF704793F070
S315080005C07F4F04BF41F40021704730B54FF4607483
S315080005D001F0004521F000411CE700BF50EA010286
S315080005E008BF704730B54FF000050AE050EA01022F
S315080005F008BF704730B511F0004502D5404261EB9F
S3150800060041014FF4806404F132045FEA915C3FF4DF
S31508000610D8AE4FF003025FEADC0C18BF03325FEA7C
S31508000620DC0C18BF033202EBDC02C2F1200300FA2D
S3150800063003FC20FA02F001FA03FE40EA0E0021FA52
S3150800064002F11444BDE600BF70B54FF0FF0C4CF440
S31508000650E06C1CEA11541DBF1CEA135594EA0C0FF2
S3150800066095EA0C0F00F0DEF82C4481EA030621EA2D
S315080006704C5123EA4C5350EA013518BF52EA033568
S3150800068041F4801143F4801338D0A0FB02CE4FF01A
S315080006900005E1FB02E506F00042E0FB03E54FF04A
S315080006A00006E1FB03569CF0000F18BF4EF0010E42
S315080006B0A4F1FF04B6F5007F64F5407404D25FEA3E
S315080006C04E0E6D4146EB060642EAC62141EA5551F1
S315080006D04FEAC52040EA5E504FEACE2EB4F1FD0C33
S315080006E088BFBCF5E06F1ED8BEF1004F08BF5FEAB1
S315080006F0500E50F1000041EB045170BD06F0004663
S3150800070046EA010140EA020081EA0301B4EB5C040F
S31508000710C2BFD4EB0C0541EA045170BD41F4801107
S315080007204FF0000E013C00F3AB8014F1360FDEBF2C
S31508000730002001F0004170BDC4F10004203C35DA08
S315080007400C341BDC04F11404C4F1200500FA05F38B
S3150800075020FA04F001FA05F240EA020001F000422C
S3150800076021F0004110EBD37021FA04F642EB0601A2
S315080007705EEA430E08BF20EAD37070BDC4F10C04CC
S31508000780C4F1200500FA04F320FA05F001FA04F290
S3150800079040EA020001F0004110EBD37041F100017C
S315080007A05EEA430E08BF20EAD37070BDC4F1200587
S315080007B000FA05F24EEA020E20FA04F301FA05F2EF
S315080007C043EA020321FA04F001F0004121FA04F297
S315080007D020EA020000EBD3705EEA430E08BF20EA67
S315080007E0D37070BD94F0000F0FD101F000464000A1
S315080007F041EB010111F4801F08BF013CF7D041EA23
S31508000800060195F0000F18BF704703F00046520026
S3150800081043EB030313F4801F08BF013DF7D043EAF7
S315080008200603704794EA0C0F0CEA135518BF95EAAD
S315080008300C0F0CD050EA410618BF52EA4306D1D134
S3150800084081EA030101F000414FF0000070BD50EA53
S31508000850410606BF1046194652EA430619D094EADD
S315080008600C0F02D150EA013613D195EA0C0F05D1C7
S3150800087052EA03361CBF104619460AD181EA03011B
S3150800088001F0004141F0FE4141F470014FF00000D3
S3150800089070BD41F0FE4141F4780170BD70B54FF06E
S315080008A0FF0C4CF4E06C1CEA11541DBF1CEA1355EE
S315080008B094EA0C0F95EA0C0F00F0A7F8A4EB0504D0
S315080008C081EA030E52EA03354FEA013100F08880C7
S315080008D04FEA03334FF0805545EA131343EA126390
S315080008E04FEA022245EA111545EA10654FEA002645
S315080008F00EF000419D4208BF964244F1FD0404F5FE
S31508000900407402D25B084FEA3202B61A65EB030559
S315080009105B084FEA32024FF480104FF4002CB6EB16
S31508000920020E75EB030E22BFB61A754640EA0C0096
S315080009305B084FEA3202B6EB020E75EB030E22BFD6
S31508000940B61A754640EA5C005B084FEA3202B6EB17
S31508000950020E75EB030E22BFB61A754640EA9C00D6
S315080009605B084FEA3202B6EB020E75EB030E22BFA6
S31508000970B61A754640EADC0055EA060E18D04FEA64
S31508000980051545EA16754FEA06164FEAC30343EA04
S3150800099052734FEAC2025FEA1C1CC0D111F4801FD1
S315080009A00BD141EA00014FF000004FF0004CB6E7CA
S315080009B011F4801F04BF01430020B4F1FD0C88BF69
S315080009C0BCF5E06F3FF6AFAEB5EB030C04BFB6EB74
S315080009D0020C5FEA500C50F1000041EB045170BD67
S315080009E00EF0004E4EEA113114EB5C04C2BFD4EB94
S315080009F00C0541EA045170BD41F480114FF0000E18
S31508000A00013C90E645EA060E8DE60CEA135594EA93
S31508000A100C0F08BF95EA0C0F3FF43BAF94EA0C0F96
S31508000A200AD150EA01347FF434AF95EA0C0F7FF40B
S31508000A3025AF104619462CE795EA0C0F06D152EA5F
S31508000A4003353FF4FDAE1046194622E750EA410643
S31508000A5018BF52EA43067FF4C5AE50EA41047FF454
S31508000A600DAF52EA43057FF4EBAE12E74FF0FF3CB9
S31508000A7006E000BF4FF0010C02E000BF4FF0010C8A
S31508000A804DF804CD4FEA410C7FEA6C5C4FEA430C03
S31508000A9018BF7FEA6C5C1BD001B050EA410C0CBF52
S31508000AA052EA430C91EA030F02BF90EA020F0020B4
S31508000AB0704710F1000F91EA030F58BF994208BF1B
S31508000AC090422CBFD8176FEAE37040F001007047D8
S31508000AD04FEA410C7FEA6C5C02D150EA013C07D12F
S31508000AE04FEA430C7FEA6C5CD6D152EA033CD3D07A
S31508000AF05DF8040B704700BF8446104662468C4674
S31508000B001946634600E000BF01B5FFF7B7FF0028A6
S31508000B1048BF10F1000F01BD4DF808EDFFF7F4FFCF
S31508000B200CBF012000205DF808FB00BF4DF808ED5A
S31508000B30FFF7EAFF34BF012000205DF808FB00BF7D
S31508000B404DF808EDFFF7E0FF94BF012000205DF89F
S31508000B5008FB00BF4DF808EDFFF7CEFF94BF012054
S31508000B6000205DF808FB00BF4DF808EDFFF7C4FF4D
S31508000B7034BF012000205DF808FB00BF4FEA410C96
S31508000B807FEA6C5C02D150EA013C0AD14FEA430C79
S31508000B907FEA6C5C02D152EA033C02D14FF00000B6
S31508000BA070474FF0010070474FEA410212F50012F4
S31508000BB015D211D56FF47873B3EB625212D94FEA96
S31508000BC0C12343F0004343EA505311F0004F23FA80
S31508000BD002F018BF404270474FF00000704750EAD5
S31508000BE0013005D111F0004008BF6FF00040704792
S31508000BF04FF00000704700BF4A0011D212F50012EC
S31508000C0011D20DD56FF47873B3EB62520ED44FEA56
S31508000C10C12343F0004343EA505323FA02F07047D6
S31508000C204FF00000704750EA013002D14FF0FF3014
S31508000C3070474FF0000070474FEA4102B2F1E043B7
S31508000C4024BFB3F5001CDCF1FE5C0DD901F0004CA5
S31508000C504FEAC0024CEA5070B2F1004F40EB8300F5
S31508000C6008BF20F00100704711F0804F21D113F121
S31508000C703872BCBF01F00040704741F480114FEA5A
S31508000C805252C2F11802C2F1200C10FA0CF320FAE3
S31508000C9002F018BF40F001004FEAC1234FEAD32300
S31508000CA003FA0CFC40EA0C0023FA02F34FEA43036A
S31508000CB0CCE77FEA625307D150EA01331EBF4FF0F3
S31508000CC0FE4040F44000704701F0004040F0FE400E
S31508000CD040F40000704700BF53B94AB9002908BF5D
S31508000CE000281CBF4FF0FF314FF0FF3000F0BEB9AF
S31508000CF0ADF1080C6DE904CE00F03CF8DDF804E02F
S31508000D00DDE9022304B0704738B500220023044603
S31508000D100D46FFF70BFF28B920462946BDE838409F
S31508000D2000F00AB8204605F1004100F005F84042F7
S31508000D3061EB410138BD00BFD0B50C4B0022064619
S31508000D400F46FFF781FCFFF757FF0446FFF702FC43
S31508000D50074B0022FFF778FC02460B463046394619
S31508000D60FFF7BAFAFFF748FF2146D0BD0000F03D6D
S31508000D700000F0412DE9F047089D0F4604468C46D1
S31508000D80002B48D18A42164661D9B2FA82F34BB192
S31508000D90C3F1200201FA03FC20FA02F29E4042EA5D
S31508000DA00C0C9C404FEA164EB7B2BCFBFEF1220C67
S31508000DB00EFB11CC42EA0C4201FB07F0904209D91E
S31508000DC0B21801F1FF3C80F0EE80904240F2EB80D1
S31508000DD002393244121AA4B2B2FBFEF00EFB1022FC
S31508000DE044EA024400FB07F7A74209D9341900F17F
S31508000DF0FF3280F0DA80A74240F2D78034440238C6
S31508000E0040EA0140E41B00211DB1DC400023C5E98E
S31508000E100043BDE8F0878B4206D90DB1C5E900014C
S31508000E2000210846BDE8F087B3FA83F1002948D1C6
S31508000E30BB4202D3824200F20781841A67EB03029F
S31508000E4001209446002DE4D0C5E9004CE1E7002ACC
S31508000E5000F09280B2FA82F3002B40F0A8808A1A3A
S31508000E604FEA164E1FFA86FC0121200CB2FBFEF74C
S31508000E700EFB172240EA02420CFB07F0904207D904
S31508000E80B21807F1FF3802D2904200F2E2804746D4
S31508000E90121AA4B2B2FBFEF00EFB102244EA024478
S31508000EA00CFB00FCA44507D9341900F1FF3202D225
S31508000EB0A44500F2CB801046A4EB0C0440EA074098
S31508000EC0A2E7C1F120068B4022FA06FC4CEA030C85
S31508000ED007FA01F420FA06F3F7404FEA1C492343C0
S31508000EE000FA01F81FFA8CFEB7FBF9F01C0C09FB97
S31508000EF0107744EA074400FB0EF7A74202FA01F20C
S31508000F000AD91CEB040400F1FF3A80F09B80A74243
S31508000F1040F2988002386444E41B9FB2B4FBF9F3AC
S31508000F2009FB134447EA044403FB0EFEA64509D908
S31508000F301CEB040403F1FF3780F08280A6457FD9B5
S31508000F40023B644443EA0040A4EB0E04A0FB02E71C
S31508000F50BC427346B94663D360D05DB1B8EB0302B1
S31508000F6064EB090404FA06F622FA01F31E43CC40A0
S31508000F70C5E9006400214CE76208480842EAC171E5
S31508000F800B0C43EA00438AB242EA0342B3FBF6F18A
S31508000F90E407B4463746B6461F23B0FBF6F0D21B25
S31508000FA041EA004161E7614614E7104628E7C3F1C4
S31508000FB0200120FA01F29E4027FA01F19F403A43A8
S31508000FC04FEA164E1FFA86FCB1FBFEF70EFB17100A
S31508000FD0110C41EA004107FB0CF8884504FA03F4B2
S31508000FE03AD9711807F1FF3001D288451FD8A1EB0D
S31508000FF00801B1FBFEF808FB0CF70EFB181192B2BC
S3150800100042EA0142BA422FD2B21808F1FF31C6D2DB
S31508001010BA42C4D2A8F102013244C0E7F0459CD2D4
S31508001020BEEB020367EB0C070138B94695E7A6EB5A
S3150800103008084144B81EB1FBFEF808FB0CF7DCE7CC
S315080010403B467FE7504667E70846FBE634440238E6
S3150800105032E7023F32441BE7A1EB08013846B1FBF1
S31508001060FEF808FB0CF7C8E7414698E7704700BF4B
S3150800107080B582B000AF124B9B6C114A43F0040353
S3150800108093640F4B9B6C03F004037B607B680C4BEB
S315080010909B6C0B4A43F001039364094B9B6C03F06A
S315080010A001033B603B68002200210B2000F02FFD66
S315080010B00B2000F046FD00BF0837BD4680BD00BFC7
S315080010C00010024080B58AB000AF07F11403002271
S315080010D01A605A609A60DA601A61244BDB6C234AFC
S315080010E043F00403D364214BDB6C03F004033B6138
S315080010F03B691E4BDB6C1D4A43F02003D3641B4B34
S31508001100DB6C03F02003FB60FB68184BDB6C174AAB
S3150800111043F00103D364154BDB6C03F00103BB609A
S31508001120BB68124BDB6C114A43F00203D3640F4BC6
S31508001130DB6C03F002037B607B6801224FF40051ED
S315080011400B4801F0E9F94FF400537B610123BB61B9
S315080011500123FB6100233B6207F114031946044887
S3150800116001F04EF800BF2837BD4680BD001002408A
S315080011700008004880B584B002AF00F05AFB00F0C2
S3150800118041F8FFF79FFFFFF773FF00F0EBF900F058
S3150800119045FA164802F028FA154BD3ED007A9FED6A
S315080011A0157A77EE877A124BC3ED007A00237B60B7
S315080011B00F4B1B681846FFF7EFF902460B46CDE9B9
S315080011C000230D4A4FF480710C4805F0ABF878609F
S315080011D07B68002B06DD7B689BB21A4607490848E0
S315080011E002F06EFE642000F095FBD5E7F8010020BA
S315080011F0F00100200AD7233C409C0008C4020020C6
S31508001200C403002080B594B000AF07F11803382254
S315080012100021184605F022F93B1D00221A605A6083
S315080012209A60DA601A61002001F0A8F90123BB610F
S315080012304FF48033FB6102237B630323BB630123E3
S31508001240FB6328233B6402237B640223BB640223DB
S31508001250FB6407F11803184601F044FA0346002B0D
S3150800126001D000F018F80F237B600323BB6000232E
S31508001270FB6000233B6100237B613B1D042118466C
S3150800128001F042FD0346002B01D000F004F800BF30
S315080012905037BD4680BD80B400AF72B600BF00BFF0
S315080012A0FDE7000080B582B000AF0F4B1B6E0E4AFB
S315080012B043F0010313660C4B1B6E03F001037B60BE
S315080012C07B68094B9B6D084A43F080539365064B30
S315080012D09B6D03F080533B603B6801F0F3F900BF58
S315080012E00837BD4680BD00BF0010024080B400AF7D
S315080012F000BFFDE780B400AF00BFFDE780B400AFD4
S3150800130000BFFDE780B400AF00BFFDE780B400AFC3
S3150800131000BFFDE780B400AF00BFBD465DF8047BA3
S31508001320704780B400AF00BFBD465DF8047B7047C8
S3150800133080B400AF00BFBD465DF8047B704780B53A
S3150800134000AF00F0C9FA00BF80BD000080B500AF4D
S31508001350024800F0F9FD00BF80BD00BF5804002018
S3150800136080B500AF024802F02BFE00BF80BD00BF6B
S31508001370C403002080B500AF024802F09FF900BF01
S3150800138080BD00BFF801002080B582B000AF78604C
S315080013907B68064A934204D14FF40051044801F091
S315080013A0D3F800BF0837BD4680BD00BFF80100204E
S315080013B00008004880B400AF01231846BD465DF812
S315080013C0047B704780B582B000AF7860396005F05D
S315080013D097F8034616221A604FF0FF331846083767
S315080013E0BD4680BD80B582B000AF78604FF0FF3152
S315080013F07868FFF7E7FF00BFFDE780B586B000AF66
S31508001400F860B9607A6000237B610AE0AFF3008078
S315080014100146BB685A1CBA60CAB21A707B690133A6
S315080014207B617A697B689A42F0DB7B6818461837D5
S31508001430BD4680BD80B586B000AFF860B9607A60F9
S3150800144000237B6109E0BB685A1CBA601B78184602
S31508001450AFF300807B6901337B617A697B689A42C6
S31508001460F1DB7B6818461837BD4680BD80B483B06B
S3150800147000AF78604FF0FF3318460C37BD465DF86D
S31508001480047B704780B483B000AF786039603B68EE
S315080014904FF400525A60002318460C37BD465DF8D3
S315080014A0047B704780B483B000AF78600123184688
S315080014B00C37BD465DF8047B704780B485B000AF35
S315080014C0F860B9607A60002318461437BD465DF89F
S315080014D0047B704780B586B000AF7860144A154B18
S315080014E0D31A7B617B693B61134B1B68002B02D1C6
S315080014F0114B124A1A60104B1A687B6813443A69F2
S315080015009A4207D204F0FCFF03460C221A604FF0F9
S31508001510FF3309E0084B1B68FB60074B1A687B68BA
S315080015201344054A1360FB6818461837BD4680BD44
S315080015300080002000040000F401002008060020B6
S3150800154080B400AF064BD3F88830054A43F47003DD
S31508001550C2F8883000BFBD465DF8047B704700BFFF
S3150800156000ED00E080B584B000AF3B1D00221A6094
S315080015705A609A60144B154A1A60134B9F225A6098
S31508001580114B00229A60104B6322DA600E4B8022C0
S315080015909A610D4801F0C4FF0346002B01D0FFF7FE
S315080015A07AFE00237B600023FB603B1D1946064834
S315080015B002F064FB0346002B01D0FFF76CFE00BF68
S315080015C01037BD4680BD00BFF8010020001000405E
S315080015D080B584B000AF78607B681B680D4A93427B
S315080015E013D10D4B9B6D0C4A43F0100393650A4BC0
S315080015F09B6D03F01003FB60FB6800220021362078
S3150800160000F085FA362000F09CFA00BF1037BD4678
S3150800161080BD00BF001000400010024080B500AF3A
S31508001620264B274A1A60254B4FF4E1325A60234B62
S3150800163000229A60214B0022DA60204B00221A61B0
S315080016401E4B0C225A611D4B00229A611B4B00222D
S31508001650DA611A4B00221A62184B00225A62174B9B
S3150800166030229A62154B4FF48052DA63134B4FF4CB
S3150800167000521A64114802F0D3FB0346002B01D02E
S31508001680FFF709FE00210D4803F055FE0346002B1F
S3150800169001D0FFF700FE0021084803F08AFE034642
S315080016A0002B01D0FFF7F7FD044803F00BFE0346B5
S315080016B0002B01D0FFF7EFFD00BF80BDC40300205B
S315080016C00038014080B59AB000AF786007F154033E
S315080016D000221A605A609A60DA601A6107F11003EC
S315080016E044220021184604F0B9FE7B681B68374A75
S315080016F0934266D101233B6100237B6107F1100306
S31508001700184601F01DFD0346002B01D0FFF7C3FD67
S315080017102F4B1B6E2E4A43F4804313662C4B1B6ECD
S3150800172003F48043FB60FB68294BDB6C284A43F0D3
S315080017300203D364264BDB6C03F00203BB60BB6871
S31508001740C0237B650223BB650023FB6500233B663C
S3150800175007237B6607F1540319461E4800F050FD1F
S315080017601D4B1E4A1A601C4B19225A601A4B10222E
S315080017709A60194B0022DA60174B80221A61164BC1
S3150800178000225A61144B00229A61134B0022DA6137
S31508001790114B00221A62104800F0EEF90346002B9E
S315080017A001D0FFF778FD7B680B4ADA670A4A7B683F
S315080017B0936200220021252000F0A9F9252000F0D7
S315080017C0C0F900BF6837BD4680BD00BF003801407C
S315080017D00010024000040048580400200800024097
S315080017E00D488546FFF7ACFE0C480D490D4A002307
S315080017F002E0D458C4500433C4188C42F9D30A4AB8
S315080018000A4C002301E013600432A242FBD304F021
S315080018107DFEFFF7AFFCFEE70080002000000020F9
S31508001820D4010020CCA00008D4010020080600201E
S31508001830FEE780B582B000AF0023FB71032000F0FD
S315080018405BF90F2000F00EF80346002B02D00123A7
S31508001850FB7101E0FFF726FDFB7918460837BD4600
S3150800186080BD000080B584B000AF78600023FB73AC
S31508001870164B1B68002B22D0154B1A68134B1B6896
S315080018804FF47A71B1FBF3F3B2FBF3F3184600F0A9
S3150800189066F90346002B0FD17B680F2B09D8002267
S315080018A079684FF0FF3000F032F90A4A7B68136016
S315080018B007E00123FB7304E00123FB7301E0012326
S315080018C0FB73FB7B18461037BD4680BD0800002019
S315080018D0000000200400002080B400AF054B1A6801
S315080018E0054B1B681344034A136000BFBD465DF8E9
S315080018F0047B7047B80400200800002080B400AFBD
S31508001900034B1B681846BD465DF8047B704700BF4D
S31508001910B804002080B584B000AF7860FFF7EEFF0A
S31508001920B8607B68FB60FB68B3F1FF3F04D0094BE6
S315080019301B68FA681344FB6000BFFFF7DFFF024627
S31508001940BB68D31AFA689A42F7D800BF00BF1037A7
S31508001950BD4680BD0800002080B485B000AF786021
S315080019607B6803F00703FB600C4BDB68BB60BA6857
S315080019704FF6FF031340BB60FB681A02BB681343AC
S3150800198043F0BF6343F40033BB60044ABB68D360CB
S3150800199000BF1437BD465DF8047B704700ED00E0D4
S315080019A080B400AF044BDB681B0A03F00703184634
S315080019B0BD465DF8047B704700ED00E080B483B057
S315080019C000AF0346FB7197F90730002B0BDBFB7959
S315080019D003F01F02074997F907305B09012000FA4F
S315080019E002F241F8232000BF0C37BD465DF8047BA0
S315080019F0704700BF00E100E080B483B000AF034643
S31508001A003960FB7197F90730002B0ADB3B68DAB2BD
S31508001A100C4997F907301201D2B20B4483F8002318
S31508001A200AE03B68DAB20849FB7903F00F03043B86
S31508001A301201D2B20B441A7600BF0C37BD465DF8C8
S31508001A40047B704700E100E000ED00E080B489B057
S31508001A5000AFF860B9607A60FB6803F00703FB61C2
S31508001A60FB69C3F10703042B28BF0423BB61FB6989
S31508001A700433062B02D9FB69033B00E000237B6194
S31508001A804FF0FF32BB6902FA03F3DA43BB681A4028
S31508001A907B699A404FF0FF317B6901FA03F3D9431A
S31508001AA07B680B40134318462437BD465DF8047B14
S31508001AB07047000080B582B000AF78607B68013B54
S31508001AC0B3F1807F01D301230FE00A4A7B68013B0B
S31508001AD053600F214FF0FF30FFF78EFF054B0022B2
S31508001AE09A60044B07221A60002318460837BD4639
S31508001AF080BD00BF10E000E080B582B000AF78601E
S31508001B007868FFF729FF00BF0837BD4680BD80B556
S31508001B1086B000AF0346B9607A60FB73FFF740FFF3
S31508001B2078617A68B9687869FFF790FF024697F98D
S31508001B300F3011461846FFF75FFF00BF1837BD463E
S31508001B4080BD80B582B000AF0346FB7197F90730B8
S31508001B501846FFF733FF00BF0837BD4680BD80B57E
S31508001B6082B000AF78607868FFF7A4FF034618468E
S31508001B700837BD4680BD000080B584B000AF7860E8
S31508001B807B68002B01D101238EE07B681B681A460F
S31508001B90474B9A420FD87B681B681A46454B134435
S31508001BA0454AA2FB03231B099A007B685A647B6893
S31508001BB0424A1A640EE07B681B681A46404B134477
S31508001BC03D4AA2FB03231B099A007B685A647B687B
S31508001BD03C4A1A647B68022283F825207B681B68C6
S31508001BE01B68FB60FB6823F4FF4323F07003FB606C
S31508001BF07B689A687B68DB681A437B681B691A43AB
S31508001C007B685B691A437B689B691A437B68DB6957
S31508001C101A437B681B6A1343FA681343FB607B68A5
S31508001C201B68FA681A60786800F07CFA7B689B681B
S31508001C30B3F5804F02D17B6800225A607B685A68E8
S31508001C407B689B6C02F07F021A607B68DB6C7A68A3
S31508001C50126D5A607B685B68002B10D07B685B68E6
S31508001C60042B0CD8786800F0A5FA7B685B6D002217
S31508001C701A607B689B6D7A68D26D5A6008E07B684B
S31508001C8000225A657B6800229A657B680022DA651D
S31508001C907B680022DA637B68012283F825207B684B
S31508001CA0002283F82420002318461037BD4680BD3D
S31508001CB007040240F8FFFDBFCDCCCCCC00000240A3
S31508001CC0F8FBFDBF0004024080B586B000AFF8609F
S31508001CD0B9607A603B600023FB75FB6893F8243093
S31508001CE0012B01D1022366E0FB68012283F8242038
S31508001CF0FB6893F82530DBB2012B55D1FB6802222D
S31508001D0083F82520FB680022DA63FB681B681A68DB
S31508001D10FB681B6822F001021A603B687A68B9689A
S31508001D20F86800F0C0F9FB681B6B002B08D0FB684D
S31508001D301B681A68FB681B6842F00E021A600FE0FF
S31508001D40FB681B681A68FB681B6822F004021A60A5
S31508001D50FB681B681A68FB681B6842F00A021A606F
S31508001D60FB689B6C1B6803F48033002B07D0FB6869
S31508001D709B6C1A68FB689B6C42F480721A60FB685D
S31508001D805B6D002B07D0FB685B6D1A68FB685B6DA3
S31508001D9042F480721A60FB681B681A68FB681B6845
S31508001DA042F001021A6005E0FB68002283F824204D
S31508001DB00223FB75FB7D18461837BD4680BD80B4E7
S31508001DC085B000AF78600023FB737B68002B01D1D8
S31508001DD001234CE07B6893F82530DBB2022B05D053
S31508001DE07B680422DA630123FB7337E07B681B6890
S31508001DF01A687B681B6822F001021A607B681B68F8
S31508001E001A687B681B6822F00E021A607B689B6C56
S31508001E101A687B689B6C22F480721A607B685B6C1C
S31508001E2003F01F027B681B6C012101FA02F25A605B
S31508001E307B68DB6C7A68126D5A607B685B6D002B79
S31508001E400CD07B685B6D1A687B685B6D22F48072C8
S31508001E501A607B689B6D7A68D26D5A607B6801222E
S31508001E6083F825207B68002283F82420FB7B18460C
S31508001E701437BD465DF8047B704780B584B000AF63
S31508001E8078600023FB737B6893F82530DBB2022B5E
S31508001E900DD07B680422DA637B68012283F825204B
S31508001EA07B68002283F824200123FB7347E07B68C4
S31508001EB01B681A687B681B6822F001021A607B6837
S31508001EC01B681A687B681B6822F00E021A607B681A
S31508001ED09B6C1A687B689B6C22F480721A607B681C
S31508001EE05B6C03F01F027B681B6C012101FA02F28E
S31508001EF05A607B68DB6C7A68126D5A607B685B6D2A
S31508001F00002B0CD07B685B6D1A687B685B6D22F4CE
S31508001F1080721A607B689B6D7A68D26D5A607B689E
S31508001F20012283F825207B68002283F824207B6819
S31508001F309B6B002B03D07B689B6B78689847FB7B71
S31508001F4018461037BD4680BD80B584B000AF7860AE
S31508001F507B681B6C1B68FB607B681B681B68BB6027
S31508001F607B685B6C03F01F0304229A40FB681340EE
S31508001F70002B26D0BB6803F00403002B21D07B6816
S31508001F801B681B6803F02003002B07D17B681B68BE
S31508001F901A687B681B6822F004021A607B685B6C0F
S31508001FA003F01F027B681B6C042101FA02F25A60D7
S31508001FB07B681B6B002B71D07B681B6B7868984716
S31508001FC06CE07B685B6C03F01F0302229A40FB6897
S31508001FD01340002B2ED0BB6803F00203002B29D038
S31508001FE07B681B681B6803F02003002B0BD17B68FA
S31508001FF01B681A687B681B6822F00A021A607B68ED
S31508002000012283F825207B685B6C03F01F027B683E
S315080020101B6C022101FA02F25A607B68002283F8DF
S3150800202024207B68DB6A002B38D07B68DB6A7868FB
S31508002030984733E07B685B6C03F01F0308229A40DD
S31508002040FB681340002B2AD0BB6803F00803002B5B
S3150800205025D07B681B681A687B681B6822F00E020D
S315080020601A607B685B6C03F01F027B681B6C01219E
S3150800207001FA02F25A607B680122DA637B68012260
S3150800208083F825207B68002283F824207B685B6B15
S31508002090002B04D07B685B6B7868984700BF00BF4D
S315080020A01037BD4680BD80B485B000AFF860B96012
S315080020B07A603B60FB68DB6CFA68126D5A60FB68F5
S315080020C05B6D002B04D0FB689B6DFA68D26D5A6075
S315080020D0FB685B6C03F01F02FB681B6C012101FAAD
S315080020E002F25A60FB681B683A685A60FB689B688C
S315080020F0102B08D1FB681B687A689A60FB681B6816
S31508002100BA68DA6007E0FB681B68BA689A60FB6819
S315080021101B687A68DA6000BF1437BD465DF8047B31
S315080021207047000080B487B000AF78607B681B6892
S315080021301A461B4B9A420BD81A4B3B617B681B68A5
S31508002140DBB2083B184AA2FB03231B097B610BE0A1
S31508002150164B3B617B681B68DBB2083B124AA2FB45
S3150800216003231B0906337B613B69FB607B685B6C59
S315080021709B089A00FB6813441A467B689A647B6836
S315080021800B4ADA647B6903F01F0301229A407B68D5
S315080021901A6500BF1C37BD465DF8047B704700BF53
S315080021A00704024000080240CDCCCCCC20080240EF
S315080021B08008024080B485B000AF78607B685B68B1
S315080021C003F07F03FB60FA680B4B13449B001A4627
S315080021D07B685A657B68094A9A65FB68013B03F088
S315080021E01F0301229A407B68DA6500BF1437BD4693
S315080021F05DF8047B704700BF3F820010400902402B
S3150800220080B487B000AF7860396000237B6164E1F1
S315080022103B681A6801217B6901FA03F31340FB60E6
S31508002220FB68002B00F056813B685B6803F00303EC
S31508002230012B05D03B685B6803F00303022B30D102
S315080022407B689B683B617B695B00032202FA03F3A8
S31508002250DB433A6913403B613B68DA687B695B009C
S3150800226002FA03F33A6913433B617B683A699A6059
S315080022707B685B683B6101227B6902FA03F3DB43F7
S315080022803A6913403B613B685B681B0903F001022E
S315080022907B6902FA03F33A6913433B617B683A693F
S315080022A05A603B685B6803F00303032B09D13B685C
S315080022B05B6803F00303032B1BD13B689B68012B68
S315080022C017D07B68DB683B617B695B00032202FAF7
S315080022D003F3DB433A6913403B613B689A687B69C1
S315080022E05B0002FA03F33A6913433B617B683A6978
S315080022F0DA603B685B6803F00303022B23D17B6932
S31508002300DA087B68083253F822303B617B6903F0B0
S3150800231007039B000F2202FA03F3DB433A691340D3
S315080023203B613B681A697B6903F007039B0002FA65
S3150800233003F33A6913433B617B69DA087B68083221
S31508002340396943F822107B681B683B617B695B002F
S31508002350032202FA03F3DB433A6913403B613B6805
S315080023605B6803F003027B695B0002FA03F33A69D0
S3150800237013433B617B683A691A603B685B6803F400
S315080023804033002B00F0A6805B4B1B6E5A4A43F085
S3150800239001031366584B1B6E03F00103BB60BB6851
S315080023A0564A7B699B08023352F823303B617B69A6
S315080023B003F003039B000F2202FA03F3DB433A6997
S315080023C013403B617B68B3F1904F1FD07B684C4A42
S315080023D0934219D07B684B4A934213D07B684A4A8A
S315080023E093420DD07B68494A934207D07B68484A96
S315080023F0934201D105230AE0062308E0042306E0F8
S31508002400032304E0022302E0012300E000237A69A3
S3150800241002F00302920093403A6913433B6137493D
S315080024207B699B0802333A6941F82320394B9B683C
S315080024303B61FB68DB433A6913403B613B685B6879
S3150800244003F48013002B03D03A69FB6813433B61FE
S31508002450304A3B6993602F4BDB683B61FB68DB4383
S315080024603A6913403B613B685B6803F40013002B31
S3150800247003D03A69FB6813433B61264A3B69D3603C
S31508002480244B5B683B61FB68DB433A6913403B615D
S315080024903B685B6803F40033002B03D03A69FB689A
S315080024A013433B611B4A3B6953601A4B1B683B61EC
S315080024B0FB68DB433A6913403B613B685B6803F49E
S315080024C08033002B03D03A69FB6813433B61114AFA
S315080024D03B6913607B6901337B613B681A687B69DA
S315080024E022FA03F3002B7FF493AE00BF00BF1C371C
S315080024F0BD465DF8047B70470010024000000140AD
S315080025000004004800080048000C00480010004875
S31508002510001400480004014080B483B000AF78601E
S315080025200B467B8013467B707B78002B03D07A881A
S315080025307B689A6102E07A887B689A6200BF0C37EA
S31508002540BD465DF8047B704780B485B000AF7860FF
S315080025500B467B807B685B69FB607A88FB68134067
S315080025601A04FB68D9437B880B401A437B689A6137
S3150800257000BF1437BD465DF8047B704780B485B04C
S3150800258000AF78607B68002B41D14B4B1B6803F486
S31508002590C063B3F5806F31D1474BD3F88030464AD4
S315080025A023F48073C2F88030434B1B6823F4C0635E
S315080025B0414A43F400731360404B1B68322202FB06
S315080025C003F33F4AA2FB03239B0C0133FB6002E0A3
S315080025D0FB68013BFB60384B5B6903F48063B3F52A
S315080025E0806F02D1FB68002BF2D1334B5B6903F491
S315080025F08063B3F5806F58D1032357E02E4BD3F889
S3150800260080302D4A23F48073C2F880304DE07B6811
S31508002610B3F5007F41D1284B1B6803F4C063B3F5BB
S31508002620806F31D1244BD3F88030234A43F480732A
S31508002630C2F88030204B1B6823F4C0631E4A43F45B
S31508002640007313601D4B1B68322202FB03F31C4AFE
S31508002650A2FB03239B0C0133FB6002E0FB68013BF2
S31508002660FB60154B5B6903F48063B3F5806F02D199
S31508002670FB68002BF2D1104B5B6903F48063B3F55A
S31508002680806F12D1032311E00B4BD3F880300A4A2E
S3150800269043F48073C2F8803007E0074B1B6823F4C5
S315080026A0C063054A43F48063136000231846143751
S315080026B0BD465DF8047B70470070004000000020AE
S315080026C083DE1B4380B400AF054B9B68044A43F482
S315080026D08043936000BFBD465DF8047B704700BF2A
S315080026E00070004080B588B000AF78607B68002B2A
S315080026F001D10123FEE27B681B6803F00103002B6E
S3150800270075D0974B9B6803F00C03BB61944BDB6851
S3150800271003F003037B61BB690C2B02D17B69032B96
S3150800272002D0BB69082B0BD18D4B1B6803F4003311
S31508002730002B5BD07B685B68002B57D10123D9E25D
S315080027407B685B68B3F5803F06D1854B1B68844A76
S3150800275043F4803313601DE07B685B68B3F5A02FF4
S315080027600CD17F4B1B687E4A43F4802313607C4B55
S315080027701B687B4A43F4803313600BE0784B1B6875
S31508002780774A23F480331360754B1B68744A23F425
S31508002790802313607B685B68002B13D0FFF7AEF8C5
S315080027A0386108E0FFF7AAF802463B69D31A642B9A
S315080027B001D903239EE26A4B1B6803F40033002BFE
S315080027C0F0D014E0FFF79AF8386108E0FFF796F8BA
S315080027D002463B69D31A642B01D903238AE2604B6C
S315080027E01B6803F40033002BF0D100E000BF7B68C0
S315080027F01B6803F00203002B75D0594B9B6803F046
S315080028000C03BB61564BDB6803F003037B61BB69B2
S315080028100C2B02D17B69022B02D0BB69042B1FD17A
S315080028204F4B1B6803F48063002B05D07B68DB687D
S31508002830002B01D101235DE2494B5B6823F0FE4280
S315080028407B681B691B06464913434B60454B1B684F
S315080028501846FFF707F80346002B43D0012349E241
S315080028607B68DB68002B23D03D4B1B683C4A43F44E
S3150800287080731360FFF742F8386108E0FFF73EF807
S3150800288002463B69D31A022B01D9032332E2344BA1
S315080028901B6803F48063002BF0D0314B5B6823F090
S315080028A0FE427B681B691B062D4913434B601AE0E1
S315080028B02B4B1B682A4A23F480731360FFF71EF814
S315080028C0386108E0FFF71AF802463B69D31A022B6B
S315080028D001D903230EE2224B1B6803F48063002B05
S315080028E0F0D100E000BF7B681B6803F00803002BEB
S315080028F041D07B685B69002B1CD0194BD3F8943008
S31508002900174A43F00103C2F89430FEF7F7FF38611F
S3150800291008E0FEF7F3FF02463B69D31A022B01D9FA
S315080029200323E7E10E4BD3F8943003F00203002BA0
S31508002930EFD020E00A4BD3F89430094A23F001037C
S31508002940C2F89430FEF7DAFF38610DE0FEF7D6FFDD
S3150800295002463B69D31A022B06D90323CAE100BFF4
S3150800296000100240040000208C4BD3F8943003F08A
S315080029700203002BEAD17B681B6803F00403002BD3
S3150800298000F0A6800023FB77844B9B6D03F08053F1
S31508002990002B01D1012300E00023002B0DD07F4B33
S315080029A09B6D7E4A43F0805393657C4B9B6D03F089
S315080029B08053FB60FB680123FB77794B1B6803F4A4
S315080029C08073002B18D1764B1B68754A43F48073C5
S315080029D01360FEF793FF386108E0FEF78FFF0246A3
S315080029E03B69D31A022B01D9032383E16C4B1B687D
S315080029F003F48073002BF0D07B689B68012B08D109
S31508002A00664BD3F89030654A43F00103C2F890301C
S31508002A1024E07B689B68052B10D1604BD3F8903077
S31508002A205E4A43F00403C2F890305C4BD3F890300A
S31508002A305A4A43F00103C2F890300FE0574BD3F8D7
S31508002A409030564A23F00103C2F89030534BD3F81E
S31508002A509030524A23F00403C2F890307B689B6892
S31508002A60002B16D0FEF74AFF38610AE0FEF746FF4C
S31508002A7002463B69D31A41F28832934201D90323AD
S31508002A8038E1464BD3F8903003F00203002BEDD023
S31508002A9015E0FEF733FF38610AE0FEF72FFF02461E
S31508002AA03B69D31A41F28832934201D9032321E1C3
S31508002AB03A4BD3F8903003F00203002BEDD1FB7F9D
S31508002AC0012B05D1354B9B6D344A23F08053936512
S31508002AD07B681B6803F02003002B3CD07B689B694E
S31508002AE0002B1CD02D4BD3F898302C4A43F0010309
S31508002AF0C2F89830FEF702FF386108E0FEF7FEFEDE
S31508002B0002463B69D31A022B01D90323F2E0234B71
S31508002B10D3F8983003F00203002BEFD01BE01F4BCD
S31508002B20D3F898301D4A23F00103C2F89830FEF70F
S31508002B30E5FE386108E0FEF7E1FE02463B69D31A76
S31508002B40022B01D90323D5E0144BD3F8983003F0B0
S31508002B500203002BEFD17B68DB69002B00F0C980EC
S31508002B600E4B9B6803F00C030C2B00F083807B68EC
S31508002B70DB69022B5ED1094B1B68084A23F0807378
S31508002B801360FEF7BBFE38610CE0FEF7B7FE02469F
S31508002B903B69D31A022B05D90323ABE00010024088
S31508002BA000700040554B1B6803F00073002BECD1F6
S31508002BB0524BDA68524B13407A68116A7A68526A3D
S31508002BC0013A120111437A68926A120211437A682D
S31508002BD0126B5208013A520511437A68526B520831
S31508002BE0013A520611437A68D26AD2060A43434921
S31508002BF01343CB60414B1B68404A43F08073136014
S31508002C003E4BDB683D4A43F08073D360FEF776FEA1
S31508002C10386108E0FEF772FE02463B69D31A022BBA
S31508002C2001D9032366E0354B1B6803F00073002BBC
S31508002C30F0D05EE0314B1B68304A23F08073136096
S31508002C40FEF75CFE386108E0FEF758FE02463B696F
S31508002C50D31A022B01D903234CE0284B1B6803F037
S31508002C600073002BF0D1254BDA682449254B134015
S31508002C70CB603EE07B68DB69012B01D1012339E09B
S31508002C801E4BDB687B617B6903F003027B681B6A6A
S31508002C909A422CD17B6903F0F0027B685B6A013BA0
S31508002CA01B019A4223D17B6903F4FE427B689B6A27
S31508002CB01B029A421BD17B6903F078427B68DB6A68
S31508002CC0DB069A4213D17B6903F4C0027B681B6B4F
S31508002CD05B08013B5B059A4209D17B6903F0C06238
S31508002CE07B685B6B5B08013B5B069A4201D001235C
S31508002CF000E0002318462037BD4680BD001002407C
S31508002D000C809F01FCFFEEFE80B586B000AF7860B0
S31508002D10396000237B617B68002B01D101231EE10A
S31508002D20914B1B6803F00F033A689A4210D98E4BF1
S31508002D301B6823F00F028C493B6813430B608A4BD0
S31508002D401B6803F00F033A689A4201D0012306E193
S31508002D507B681B6803F00103002B73D07B685B68F4
S31508002D60032B29D1814B1B6803F00073002B01D17B
S31508002D700123F4E000F09EF938613B697C4A9342EE
S31508002D803FD97A4B9B6803F0F003002B09D07B6888
S31508002D901B6803F00203002B33D07B689B68002B6B
S31508002DA02FD1724B9B6823F0F003704A43F08003DF
S31508002DB0936080237B6124E07B685B68022B07D1E4
S31508002DC06A4B1B6803F40033002B09D10123C6E0C4
S31508002DD0664B1B6803F48063002B01D10123BEE018
S31508002DE000F0CEF838613B69614A934209D95F4BD6
S31508002DF09B6823F0F0035D4A43F0800393608023C9
S31508002E007B615A4B9B6823F003027B685B685749D2
S31508002E1013438B60FEF772FDF8600AE0FEF76EFD5D
S31508002E200246FB68D31A41F28832934201D903233A
S31508002E3095E04E4B9B6803F00C027B685B689B0031
S31508002E409A42EBD17B681B6803F00203002B23D060
S31508002E507B681B6803F00403002B05D0434B9B6873
S31508002E60424A43F4E06393607B681B6803F00803F7
S31508002E70002B07D03D4B9B6823F47C533B4A43F415
S31508002E80E0639360394B9B6823F0F0027B689B688C
S31508002E90364913438B6008E07B69802B05D1334B99
S31508002EA09B68324A23F0F00393602F4B1B6803F0AC
S31508002EB00F033A689A421DD22B4B1B6823F00F0268
S31508002EC029493B6813430B60FEF718FDF8600AE0D2
S31508002ED0FEF714FD0246FB68D31A41F28832934284
S31508002EE001D903233BE0204B1B6803F00F033A6824
S31508002EF09A42EDD17B681B6803F00403002B08D0C7
S31508002F001A4B9B6823F4E0627B68DB681749134316
S31508002F108B607B681B6803F00803002B09D0134BF2
S31508002F209B6823F460527B681B69DB000F491343D7
S31508002F308B6000F025F802460C4B9B681B0903F0D2
S31508002F400F030C49CB5C03F01F0322FA03F30A4A6A
S31508002F5013600A4B1B681846FEF784FC034618469E
S31508002F601837BD4680BD00BF002002400010024051
S31508002F7000B4C404549C000800000020040000208B
S31508002F8080B487B000AF2C4B9B6803F00C03042B6E
S31508002F9002D12A4B3B6147E0274B9B6803F00C03A1
S31508002FA0082B02D1264B3B613EE0234B9B6803F07E
S31508002FB00C030C2B36D1204BDB6803F00303FB60B4
S31508002FC01D4BDB681B0903F00F030133BB60FB686D
S31508002FD0032B0CD11A4ABB68B2FBF3F3164AD26824
S31508002FE0120A02F07F0202FB03F37B610CE0134A2C
S31508002FF0BB68B2FBF3F3104AD268120A02F07F02EA
S3150800300002FB03F37B6100BF0B4BDB685B0E03F02F
S31508003010030301335B007B607A697B68B2FBF3F3D9
S315080030203B6101E000233B613B6918461C37BD46FE
S315080030305DF8047B704700BF001002400024F400CE
S3150800304000127A0080B400AF034B1B681846BD46D1
S315080030505DF8047B704700BF0000002080B500AF14
S31508003060FFF7F0FF0246064B9B681B0A03F00703AF
S315080030700449CB5C03F01F0322FA03F3184680BD0C
S3150800308000100240649C000880B500AFFFF7DAFF25
S315080030900246064B9B68DB0A03F007030449CB5C30
S315080030A003F01F0322FA03F3184680BD00100240FE
S315080030B0649C000880B487B000AF1E4BDB6803F041
S315080030C003033B611B4BDB681B0903F00F0301334A
S315080030D0FB603B69032B0CD1174AFB68B2FBF3F381
S315080030E0144AD268120A02F07F0202FB03F37B61DC
S315080030F00CE0124AFB68B2FBF3F30E4AD268120AD6
S3150800310002F07F0202FB03F37B6100BF094BDB6819
S315080031105B0E03F0030301335B00BB607A69BB688F
S31508003120B2FBF3F37B607B6818461C37BD465DF837
S31508003130047B70470010024000127A000024F40055
S3150800314080B586B000AF78600023FB740023BB749B
S315080031507B681B6803F40023002B00F0988000238B
S315080031607B74434B9B6D03F08053002B0DD1404B72
S315080031709B6D3F4A43F0805393653D4B9B6D03F02F
S315080031808053BB60BB6801237B743A4B1B68394A82
S3150800319043F480731360FEF7B1FBF86009E0FEF7AD
S315080031A0ADFB0246FB68D31A022B02D90323FB7434
S315080031B005E0304B1B6803F48073002BEFD0FB7CD3
S315080031C0002B59D12A4BD3F8903003F440737B6116
S315080031D07B69002B1ED07B681B6C7A699A4219D0D2
S315080031E0234BD3F8903023F440737B61204BD3F8FC
S315080031F090301F4A43F48033C2F890301C4BD3F802
S3150800320090301B4A23F48033C2F89030184A7B6901
S31508003210C2F890307B6903F00103002B16D0FEF745
S315080032206DFBF8600BE0FEF769FB0246FB68D31AF4
S3150800323041F28832934202D90323FB7406E00C4B11
S31508003240D3F8903003F00203002BECD0FB7C002B64
S315080032500BD1074BD3F8903023F440727B681B6C74
S3150800326003491343C1F8903008E0FB7CBB7405E0C2
S315080032700010024000700040FB7CBB747B7C012B75
S3150800328005D1A64B9B6DA54A23F0805393657B68B1
S315080032901B6803F00103002B0AD0A04BD3F8883033
S315080032A023F003027B685B689C491343C1F88830A6
S315080032B07B681B6803F00203002B0AD0974BD3F8F0
S315080032C0883023F00C027B689B6894491343C1F845
S315080032D088307B681B6803F00403002B0AD08F4BE9
S315080032E0D3F8883023F030027B68DB688B491343B8
S315080032F0C1F888307B681B6803F00803002B0AD0E6
S31508003300864BD3F8883023F0C0027B681B69834953
S315080033101343C1F888307B681B6803F02003002B31
S315080033200AD07E4BD3F8883023F440627B685B6909
S315080033307A491343C1F888307B681B6803F0400359
S31508003340002B0AD0754BD3F8883023F440527B689B
S315080033509B6972491343C1F888307B681B6803F080
S315080033608003002B0AD06D4BD3F8883023F44042F3
S315080033707B68DB6969491343C1F888307B681B6839
S3150800338003F48073002B0AD0644BD3F8883023F4F7
S3150800339040327B681B6A61491343C1F888307B68F1
S315080033A01B6803F40073002B0AD05C4BD3F88830F3
S315080033B023F440227B685B6A58491343C1F8883076
S315080033C07B681B6803F48063002B15D0534BD3F836
S315080033D0883023F440127B689B6A50491343C1F82E
S315080033E088307B689B6AB3F5801F05D14B4BDB6839
S315080033F04A4A43F48013D3607B681B6803F400636E
S31508003400002B15D0454BD3F8883023F440027B684F
S31508003410DB6A42491343C1F888307B68DB6AB3F537
S31508003420800F05D13D4BDB683C4A43F48013D360DB
S315080034307B681B6803F48053002B15D0374BD3F8F1
S31508003440883023F040727B681B6B34491343C1F8FC
S3150800345088307B681B6BB3F1807F05D12F4BDB6807
S315080034602E4A43F48013D3607B681B6803F4005329
S31508003470002B15D0294BD3F8883023F040627B689F
S315080034805B6B26491343C1F888307B685B6BB3F1E5
S31508003490006F05D1214BDB68204A43F48013D360C3
S315080034A07B681B6803F48043002B15D01B4BD3F8AD
S315080034B0883023F040627B689B6B18491343C1F838
S315080034C088307B689B6BB3F1006F05D1134BDB68C3
S315080034D0124A43F48013D3607B681B6803F40043E5
S315080034E0002B15D00D4BD3F8883023F040527B685B
S315080034F0DB6B0A491343C1F888307B68DB6BB3F191
S31508003500805F05D1054BDB68044A43F48033D360FA
S31508003510BB7C18461837BD4680BD00BF0010024068
S3150800352080B582B000AF78607B68002B01D101239B
S3150800353054E07B6893F83D30DBB2002B11D17B68F1
S31508003540002283F83C20786800F022FB7B68DB6C5D
S31508003550002B02D17B68234ADA647B68DB6C7868C7
S3150800356098477B68022283F83D207B681A687B6847
S3150800357004331946104600F075FA7B68012283F871
S3150800358048207B68012283F83E207B68012283F865
S315080035903F207B68012283F840207B68012283F85C
S315080035A041207B68012283F842207B68012283F848
S315080035B043207B68012283F844207B68012283F834
S315080035C045207B68012283F846207B68012283F820
S315080035D047207B68012283F83D20002318460837D8
S315080035E0BD4680BDD115000880B485B000AF7860AF
S315080035F07B6893F83D30DBB2012B01D001234AE00A
S315080036007B68022283F83D207B681B68DA687B6842
S315080036101B6842F00102DA607B681B68214A934204
S3150800362018D07B681B68B3F1804F13D07B681B6882
S315080036301D4A93420ED07B681B681C4A934209D0E8
S315080036407B681B681A4A934204D07B681B68194A30
S31508003650934215D17B681B689A68174B1340FB6029
S31508003660FB68062B15D0FB68B3F5803F11D07B6845
S315080036701B681A687B681B6842F001021A6008E03A
S315080036807B681B681A687B681B6842F001021A602F
S3150800369000E000BF002318461437BD465DF8047BDA
S315080036A0704700BF002C014000040040000800409D
S315080036B000340140004001400700010080B584B095
S315080036C000AF78607B681B68DB68FB607B681B68FB
S315080036D01B69BB60BB6803F00203002B26D0FB689E
S315080036E003F00203002B21D07B681B686FF00202EF
S315080036F01A617B6801221A777B681B689B6903F04D
S315080037000303002B05D07B68D3F894307868984774
S3150800371009E07B68D3F89C30786898477B68D3F8CB
S31508003720A030786898477B6800221A77BB6803F050
S315080037300403002B26D0FB6803F00403002B21D0DA
S315080037407B681B686FF004021A617B6802221A778D
S315080037507B681B689B6903F44073002B05D07B6864
S31508003760D3F894307868984709E07B68D3F89C309A
S31508003770786898477B68D3F8A030786898477B685C
S3150800378000221A77BB6803F00803002B26D0FB68D3
S3150800379003F00803002B21D07B681B686FF0080232
S315080037A01A617B6804221A777B681B68DB6903F059
S315080037B00303002B05D07B68D3F8943078689847C4
S315080037C009E07B68D3F89C30786898477B68D3F81B
S315080037D0A030786898477B6800221A77BB6803F0A0
S315080037E01003002B26D0FB6803F01003002B21D012
S315080037F07B681B686FF010021A617B6808221A77CB
S315080038007B681B68DB6903F44073002B05D07B6873
S31508003810D3F894307868984709E07B68D3F89C30E9
S31508003820786898477B68D3F8A030786898477B68AB
S3150800383000221A77BB6803F00103002B0ED0FB6841
S3150800384003F00103002B09D07B681B686FF00102A7
S315080038501A617B68D3F8843078689847BB6803F0A8
S315080038608003002B04D1BB6803F40053002B0ED051
S31508003870FB6803F08003002B09D07B681B686FF494
S3150800388002521A617B68D3F8B43078689847BB68E7
S3150800389003F48073002B0ED0FB6803F08003002B23
S315080038A009D07B681B686FF480721A617B68D3F84D
S315080038B0B83078689847BB6803F04003002B0ED0F1
S315080038C0FB6803F04003002B09D07B681B686FF088
S315080038D040021A617B68D3F88C3078689847BB68D1
S315080038E003F02003002B0ED0FB6803F02003002B07
S315080038F009D07B681B686FF020021A617B68D3F8D1
S31508003900AC3078689847BB6803F48013002B0ED058
S31508003910FB6803F48013002B09D07B681B686FF4DF
S3150800392080121A617B68D3F8BC3078689847BB6800
S3150800393003F40013002B0ED0FB6803F40013002BCE
S3150800394009D07B681B686FF400121A617B68D3F88C
S31508003950C03078689847BB6803F48003002B0ED004
S31508003960FB6803F48003002B09D07B681B686FF49F
S3150800397080021A617B68D3F8C43078689847BB68B8
S3150800398003F40003002B0ED0FB6803F40003002B9E
S3150800399009D07B681B686FF400021A617B68D3F84C
S315080039A0C8307868984700BF1037BD4680BD80B4D8
S315080039B083B000AF786000BF0C37BD465DF8047B66
S315080039C0704780B483B000AF786000BF0C37BD463F
S315080039D05DF8047B704780B483B000AF786000BFA1
S315080039E00C37BD465DF8047B704780B483B000AFE2
S315080039F0786000BF0C37BD465DF8047B704780B41D
S31508003A0083B000AF786000BF0C37BD465DF8047B15
S31508003A10704780B483B000AF786000BF0C37BD46EE
S31508003A205DF8047B704780B483B000AF786000BF50
S31508003A300C37BD465DF8047B704780B483B000AF91
S31508003A40786000BF0C37BD465DF8047B704780B4CC
S31508003A5083B000AF786000BF0C37BD465DF8047BC5
S31508003A607047000080B485B000AF786039607B6825
S31508003A701B68FB607B683F4A93420FD07B68B3F1B3
S31508003A80804F0BD07B683C4A934207D07B683B4A01
S31508003A90934203D07B683A4A934208D1FB6823F0E5
S31508003AA07003FB603B685B68FA681343FB607B68DE
S31508003AB0304A93421BD07B68B3F1804F17D07B689E
S31508003AC02D4A934213D07B682C4A93420FD07B68C9
S31508003AD02B4A93420BD07B682A4A934207D07B68CD
S31508003AE0294A934203D07B68284A934208D1FB6847
S31508003AF023F44073FB603B68DB68FA681343FB609A
S31508003B00FB6823F080023B685B691343FB603B68F4
S31508003B109A687B68DA623B681A687B689A627B688F
S31508003B20144A93420FD07B68154A93420BD07B68A0
S31508003B30144A934207D07B68134A934203D07B68A2
S31508003B40124A934203D13B681A697B681A637B68F9
S31508003B501B6843F004027B681A607B6801225A617D
S31508003B607B68FA681A6000BF1437BD465DF8047BA7
S31508003B70704700BF002C01400004004000080040C8
S31508003B800034014000400140004401400048014023
S31508003B9080B483B000AF78607B68264AC3F8842077
S31508003BA07B68254AC3F888207B68244AC3F88C209A
S31508003BB07B68234AC3F890207B68224AC3F894207E
S31508003BC07B68214AC3F898207B68204AC3F89C2062
S31508003BD07B681F4AC3F8A0207B681E4AC3F8A42046
S31508003BE07B681D4AC3F8A8207B681C4AC3F8AC202A
S31508003BF07B681B4AC3F8B0207B681A4AC3F8B4200E
S31508003C007B68194AC3F8B8207B68184AC3F8BC20F1
S31508003C107B68174AC3F8C0207B68164AC3F8C420D5
S31508003C207B68154AC3F8C82000BF0C37BD465DF847
S31508003C30047B704789130008AF390008273A000843
S31508003C403B3A0008D7390008EB390008C3390008A1
S31508003C50FF390008133A00084F3A0008813D00086A
S31508003C60953D0008A93D0008BD3D0008D13D000866
S31508003C70E53D0008F93D00080D3E000880B485B012
S31508003C8000AF786039607B6893F83C30012B01D12E
S31508003C90022365E07B68012283F83C207B680222C8
S31508003CA083F83D207B681B685B68FB607B681B6844
S31508003CB09B68BB607B681B682C4A934204D07B6870
S31508003CC01B682B4A934208D1FB6823F47003FB60F8
S31508003CD03B685B68FA681343FB60FB6823F0007374
S31508003CE023F07003FB603B681B68FA681343FB60AC
S31508003CF07B681B68FA685A607B681B681B4A934294
S31508003D0018D07B681B68B3F1804F13D07B681B689B
S31508003D10184A93420ED07B681B68174A934209D00B
S31508003D207B681B68124A934204D07B681B68134A57
S31508003D3093420CD1BB6823F08003BB603B689B6849
S31508003D40BA681343BB607B681B68BA689A607B686D
S31508003D50012283F83D207B68002283F83C2000235B
S31508003D6018461437BD465DF8047B7047002C0140A1
S31508003D7000340140000400400008004000400140B3
S31508003D8080B483B000AF786000BF0C37BD465DF8DD
S31508003D90047B704780B483B000AF786000BF0C37EF
S31508003DA0BD465DF8047B704780B483B000AF786089
S31508003DB000BF0C37BD465DF8047B704780B483B0FE
S31508003DC000AF786000BF0C37BD465DF8047B7047CE
S31508003DD080B483B000AF786000BF0C37BD465DF88D
S31508003DE0047B704780B483B000AF786000BF0C379F
S31508003DF0BD465DF8047B704780B483B000AF786039
S31508003E0000BF0C37BD465DF8047B704780B483B0AD
S31508003E1000AF786000BF0C37BD465DF8047B70477D
S31508003E2080B582B000AF78607B68002B01D1012392
S31508003E3042E07B68D3F88830002B06D17B680022E5
S31508003E4083F884207868FDF73DFC7B682422C3F854
S31508003E5088207B681B681A687B681B6822F0010249
S31508003E601A607B689B6A002B02D0786800F0E0FE37
S31508003E70786800F011FC0346012B01D101231BE0F1
S31508003E807B681B685A687B681B6822F490425A60F4
S31508003E907B681B689A687B681B6822F02A029A600E
S31508003EA07B681B681A687B681B6842F001021A6007
S31508003EB0786800F05FFF034618460837BD4680BDA0
S31508003EC080B58AB000AFF860B9601346FB80FB681E
S31508003ED0D3F88830202B67D1BB68002B02D0FB882B
S31508003EE0002B01D1012360E0FB68BA681A65FB68FC
S31508003EF0FA88A3F85420FB68FA88A3F85620FB68CA
S31508003F000022C3F89020FB682122C3F88820FB68AA
S31508003F10DB6F002B28D0FB68DB6F264ADA62FB686A
S31508003F20DB6F254A1A63FB68DB6F244A5A63FB6812
S31508003F30DB6F00229A63FB68D86FFB681B6D194616
S31508003F40FB681B6828331A46FB88FDF7BDFE034647
S31508003F50002B09D0FB681022C3F89020FB682022AA
S31508003F60C3F88820012320E0FB681B6840221A62F8
S31508003F70FB681B6808337B617B6953E8003F3B613C
S31508003F803B6943F080037B62FB681B6808337A6AE7
S31508003F903A62FB61F9693A6A41E80023BB61BB6989
S31508003FA0002BE5D1002300E0022318462837BD463A
S31508003FB080BD00BFF15000088B510008A7510008CA
S31508003FC080B5BAB000AF78607B681B68DB69C7F854
S31508003FD0E4307B681B681B68C7F8E0307B681B68A1
S31508003FE09B68C7F8DC30D7F8E42040F60F03134087
S31508003FF0C7F8D830D7F8D830002B1BD1D7F8E4301B
S3150800400003F02003002B15D0D7F8E03003F0200387
S31508004010002B05D1D7F8DC3003F08053002B09D0EC
S315080040207B685B6F002B00F000837B685B6F7868AA
S315080040309847FAE2D7F8D830002B00F02381D7F852
S31508004040DC208D4B1340002B06D1D7F8E0208B4B94
S315080040501340002B00F01681D7F8E43003F0010373
S31508004060002B11D0D7F8E03003F48073002B0BD067
S315080040707B681B6801221A627B68D3F8903043F08C
S3150800408001027B68C3F89020D7F8E43003F00203F6
S31508004090002B11D0D7F8DC3003F00103002B0BD02E
S315080040A07B681B6802221A627B68D3F8903043F05B
S315080040B004027B68C3F89020D7F8E43003F00403C1
S315080040C0002B11D0D7F8DC3003F00103002B0BD0FE
S315080040D07B681B6804221A627B68D3F8903043F029
S315080040E002027B68C3F89020D7F8E43003F008038F
S315080040F0002B17D0D7F8E03003F02003002B05D1AA
S31508004100D7F8DC205C4B1340002B0BD07B681B6870
S3150800411008221A627B68D3F8903043F008027B685D
S31508004120C3F89020D7F8E43003F40063002B12D0CC
S31508004130D7F8E03003F08063002B0CD07B681B684F
S315080041404FF400621A627B68D3F8903043F020027D
S315080041507B68C3F890207B68D3F89030002B00F07A
S315080041606682D7F8E43003F02003002B13D0D7F883
S31508004170E03003F02003002B05D1D7F8DC3003F03C
S315080041808053002B07D07B685B6F002B03D07B68BE
S315080041905B6F786898477B68D3F89030C7F8D43057
S315080041A07B681B689B6803F04003402B05D0D7F853
S315080041B0D43003F02803002B54D0786800F032FF7F
S315080041C07B681B689B6803F04003402B46D17B68DD
S315080041D01B680833C7F89C30D7F89C3053E8003F73
S315080041E0C7F89830D7F8983023F04003C7F8D0308E
S315080041F07B681B680833D7F8D020C7F8A820C7F80B
S31508004200A430D7F8A410D7F8A82041E80023C7F8A7
S31508004210A030D7F8A030002BD9D17B68D3F88030EE
S31508004220002B17D07B68D3F88030154A9A637B68D1
S31508004230D3F880301846FDF720FE0346002B19D028
S315080042407B68D3F880309B6B7A68D2F8802010465A
S3150800425098470FE0786800F009FA0BE0786800F0F4
S3150800426005FA07E0786800F001FA7B680022C3F8CF
S315080042709020DCE100BFDAE1010000102001000413
S31508004280175200087B68DB6E012B40F07081D7F867
S31508004290E43003F01003002B00F06981D7F8E03012
S315080042A003F01003002B00F062817B681B68102264
S315080042B01A627B681B689B6803F04003402B40F03A
S315080042C0D8807B68D3F880301B685B68A7F8BE3057
S315080042D0B7F8BE30002B00F0AF807B68B3F85C30CF
S315080042E0B7F8BE209A4280F0A7807B68B7F8BE2050
S315080042F0A3F85E207B68D3F880301B681B6803F040
S315080043002003002B40F087807B681B68C7F888303D
S31508004310D7F8883053E8003FC7F88430D7F8843098
S3150800432023F48073C7F8B8307B681B681A46D7F839
S31508004330B830C7F89430C7F89020D7F89010D7F857
S31508004340942041E80023C7F88C30D7F88C30002B2E
S31508004350DAD17B681B6808337B677B6F53E8003FBD
S315080043603B673B6F23F00103C7F8B4307B681B68D3
S315080043700833D7F8B420C7F88020FB67F96FD7F859
S31508004380802041E80023BB67BB6F002BE1D17B6827
S315080043901B6808333B663B6E53E8003FFB65FB6DC5
S315080043A023F04003C7F8B0307B681B680833D7F89A
S315080043B0B020FA66BB66B96EFA6E41E800237B66E2
S315080043C07B6E002BE3D17B682022C3F88C207B68A8
S315080043D00022DA667B681B68FB64FB6C53E8003FC7
S315080043E0BB64BB6C23F01003C7F8AC307B681B6852
S315080043F01A46D7F8AC30BB657A65796DBA6D41E86F
S3150800440000233B653B6D002BE4D17B68D3F88030F5
S315080044101846FDF7D4FC7B6802221A677B68B3F856
S315080044205C207B68B3F85E309BB2D31A9BB2194600
S31508004430786800F025F9FCE07B68B3F85C30B7F8DB
S31508004440BE209A4240F0F5807B68D3F880301B681E
S315080044501B6803F02003202B40F0EB807B680222C8
S315080044601A677B68B3F85C301946786800F008F973
S31508004470DFE07B68B3F85C207B68B3F85E309BB2FC
S31508004480D31AA7F8CE307B68B3F85E309BB2002B00
S3150800449000F0D180B7F8CE30002B00F0CC807B68D6
S315080044A01B68BB63BB6B53E8003F7B637B6B23F4E2
S315080044B09073C7F8C8307B681B681A46D7F8C830A7
S315080044C07B643A64396C7A6C41E80023FB63FB6BC6
S315080044D0002BE4D17B681B6808337B627B6A53E850
S315080044E0003F3B623B6A23F0805323F00103C7F881
S315080044F0C4307B681B680833D7F8C4203A63FB626C
S31508004500F96A3A6B41E80023BB62BB6A002BE1D12A
S315080045107B682022C3F88C207B680022DA667B68D9
S3150800452000225A677B681B683B613B6953E8003F7A
S31508004530FB60FB6823F01003C7F8C0307B681B6874
S315080045401A46D7F8C030FB61BA61B969FA6941E819
S3150800455000237B617B69002BE4D17B6802221A6702
S31508004560B7F8CE301946786800F08AF863E0D7F8CD
S31508004570E43003F48013002B0ED0D7F8DC3003F4B4
S315080045808003002B08D07B681B684FF480121A62E0
S31508004590786800F079FE51E0D7F8E43003F080033C
S315080045A0002B14D0D7F8E03003F08003002B05D198
S315080045B0D7F8DC3003F40003002B08D07B689B6F28
S315080045C0002B3AD07B689B6F7868984735E0D7F818
S315080045D0E43003F04003002B09D0D7F8E03003F0AD
S315080045E04003002B03D0786800F023FE26E0D7F8B6
S315080045F0E43003F40003002B09D0D7F8E03003F0C9
S315080046008043002B03D0786800F052FE16E0D7F8F6
S31508004610E43003F08073002B10D0D7F8E030002B7D
S315080046200CDA786800F03AFE08E000BF06E000BF42
S3150800463004E000BF02E000BF00E000BFE837BD4667
S3150800464080BD00BF80B483B000AF786000BF0C3770
S31508004650BD465DF8047B704780B483B000AF7860D0
S3150800466000BF0C37BD465DF8047B704780B483B045
S3150800467000AF786000BF0C37BD465DF8047B704715
S3150800468080B483B000AF78600B467B8000BF0C37E0
S31508004690BD465DF8047B70472DE9B04F8CB000AF7E
S315080046A07861002387F82A307B699A687B691B69D9
S315080046B01A437B695B691A437B69DB691343FB62AF
S315080046C07B691B681A68AB4B13407A691268F96AEA
S315080046D00B4313607B691B685B6823F440517B6955
S315080046E0DA687B691B680A435A607B699B69FB62C7
S315080046F07B691B68A04A934204D07B691B6AFA6AE5
S315080047001343FB627B691B689B6823F06E4323F4A3
S3150800471030637A691268F96A0B4393607B691B6890
S31508004720DB6A23F00F017B695A6A7B691B680A43B7
S31508004730DA627B691B68914A934225D1904BD3F87C
S31508004740883003F00303032B1AD801A252F823F08A
S31508004750614700087147000869470008794700085B
S31508004760012387F82B30D6E0022387F82B30D2E0D6
S31508004770042387F82B30CEE0082387F82B30CAE0CD
S31508004780102387F82B30C6E07B691B687D4A934265
S3150800479038D17B4BD3F8883003F00C030C2B2DD87B
S315080047A001A252F823F000BFDD470008FD470008C4
S315080047B0FD470008FD470008ED470008FD470008CB
S315080047C0FD470008FD470008E5470008FD470008C3
S315080047D0FD470008FD470008F5470008002387F84D
S315080047E02B3098E0022387F82B3094E0042387F8CF
S315080047F02B3090E0082387F82B308CE0102387F8BD
S315080048002B3088E07B691B685F4A934225D15C4B55
S31508004810D3F8883003F03003302B16D0302B18D855
S31508004820202B0AD0202B14D8002B02D0102B08D00E
S315080048300FE0002387F82B306DE0022387F82B3032
S3150800484069E0042387F82B3065E0082387F82B30C6
S3150800485061E0102387F82B305DE07B691B684B4AC3
S31508004860934225D1464BD3F8883003F0C003C02BBA
S3150800487016D0C02B18D8802B0AD0802B14D8002B22
S3150800488002D0402B08D00FE0002387F82B3042E0F7
S31508004890022387F82B303EE0042387F82B303AE0D2
S315080048A0082387F82B3036E0102387F82B3032E0C0
S315080048B07B691B68304A93422AD1314BD3F888303A
S315080048C003F44063B3F5406F1AD0B3F5406F1BD8B5
S315080048D0B3F5006F0CD0B3F5006F15D8002B03D0D5
S315080048E0B3F5806F08D00FE0002387F82B3012E06D
S315080048F0022387F82B300EE0042387F82B300AE0D2
S31508004900082387F82B3006E0102387F82B3002E0BF
S31508004910102387F82B307B691B68174A934240F0AF
S31508004920A88097F82B30082B34D801A252F823F028
S3150800493055490008954900085D4900089549000849
S3150800494063490008954900089549000895490008F3
S315080049506B490008FEF782FB786221E00C4B7B620C
S315080049601EE0FEF70DFB78621AE04FF400437B6207
S3150800497016E000BFF369FFCF008000400038014011
S31508004980001002400044004000480040004C00402F
S315080049900024F40000237B62012387F82A3000BF35
S315080049A07B6A002B00F02A817B695B6A9E4A32F893
S315080049B013301A467B6AB3FBF2F3BB617B695A680C
S315080049C013465B001344BA699A4205D37B695B6850
S315080049D01B03BA699A4203D9012387F82A300DE1E5
S315080049E07B6A0022BB60FA607B695B6A8E4A32F892
S315080049F013309BB200223B607A60D7E90023D7E9DF
S31508004A000201FCF769F902460B46104619464FF0B3
S31508004A1000024FF000030B0243EA106302027969B1
S31508004A204968490800200C46054612EB040843EB82
S31508004A3005097B695B6800229A46934652465B469F
S31508004A4040464946FCF748F902460B4613463B6280
S31508004A503B6AB3F5407F08D33B6AB3F5801F04D29F
S31508004A607B691B683A6ADA60C8E0012387F82A304E
S31508004A70C4E07B69DB69B3F5004F67D197F82B3043
S31508004A80082B28D801A252F823F000BFB14A000823
S31508004A90B94A0008C14A0008D74A0008C74A0008A8
S31508004AA0D74A0008D74A0008D74A0008CF4A00085C
S31508004AB0FEF7D4FA786214E0FEF7E6FA786210E0B8
S31508004AC05A4B7B620DE0FEF75BFA786209E04FF419
S31508004AD000437B6205E000237B62012387F82A30C6
S31508004AE000BF7B6A002B00F089807B695B6A4E4AAF
S31508004AF032F813301A467B6AB3FBF2F35A007B6925
S31508004B005B685B081A447B695B68B2FBF3F33B623C
S31508004B103B6A0F2B16D93B6AB3F5803F12D23B6A24
S31508004B209BB223F00F03FB833B6A5B089BB203F03F
S31508004B3007039AB2FB8B1343FB837B691B68FA8BCB
S31508004B40DA605BE0012387F82A3057E097F82B30C4
S31508004B50082B28D801A252F823F000BF814B000881
S31508004B60894B0008914B0008A74B0008974B000893
S31508004B70A74B0008A74B0008A74B00089F4B000847
S31508004B80FEF76CFA786214E0FEF77EFA786210E0B7
S31508004B90264B7B620DE0FEF7F3F9786209E04FF4E5
S31508004BA000437B6205E000237B62012387F82A30F5
S31508004BB000BF7B6A002B21D07B695B6A1A4A32F8F0
S31508004BC013301A467B6AB3FBF2F27B695B685B08B3
S31508004BD01A447B695B68B2FBF3F33B623B6A0F2BB3
S31508004BE009D93B6AB3F5803F05D23B6A9AB27B691D
S31508004BF01B68DA6002E0012387F82A307B69012204
S31508004C00A3F86A207B690122A3F868207B69002241
S31508004C105A677B6900229A6797F82A301846303710
S31508004C20BD46BDE8B08F00BF6C9C00080024F400A8
S31508004C3080B483B000AF78607B689B6A03F0080392
S31508004C40002B0AD07B681B685B6823F400417B68ED
S31508004C509A6B7B681B680A435A607B689B6A03F0F9
S31508004C600103002B0AD07B681B685B6823F40031BC
S31508004C707B68DA6A7B681B680A435A607B689B6AAA
S31508004C8003F00203002B0AD07B681B685B6823F4D9
S31508004C9080317B681A6B7B681B680A435A607B689D
S31508004CA09B6A03F00403002B0AD07B681B685B68C9
S31508004CB023F480217B685A6B7B681B680A435A6019
S31508004CC07B689B6A03F01003002B0AD07B681B687D
S31508004CD09B6823F480517B68DA6B7B681B680A4300
S31508004CE09A607B689B6A03F02003002B0AD07B68D6
S31508004CF01B689B6823F400517B681A6C7B681B68E9
S31508004D000A439A607B689B6A03F04003002B1AD01B
S31508004D107B681B685B6823F480117B685A6C7B6828
S31508004D201B680A435A607B685B6CB3F5801F0AD11F
S31508004D307B681B685B6823F4C0017B689A6C7B6898
S31508004D401B680A435A607B689B6A03F08003002B42
S31508004D500AD07B681B685B6823F400217B68DA6CE1
S31508004D607B681B680A435A6000BF0C37BD465DF86E
S31508004D70047B704780B598B002AF78607B680022E4
S31508004D80C3F89020FCF7BAFD78657B681B681B683A
S31508004D9003F00803082B2FD16FF07E4300937B6D39
S31508004DA000224FF40011786800F08EF80346002BB5
S31508004DB022D07B681B68BB63BB6B53E8003F7B63F1
S31508004DC07B6B23F080033B657B681B681A463B6D4B
S31508004DD07B643A64396C7A6C41E80023FB63FB6BAD
S31508004DE0002BE6D17B682022C3F888207B68002246
S31508004DF083F88420032363E07B681B681B6803F041
S31508004E000403042B49D16FF07E4300937B6D002287
S31508004E104FF48001786800F057F80346002B3CD021
S31508004E207B681B687B627B6A53E8003F3B623B6A90
S31508004E3023F49073FB647B681B681A46FB6C3B6320
S31508004E40FA62F96A3A6B41E80023BB62BB6A002B37
S31508004E50E6D17B681B6808333B613B6953E8003F32
S31508004E60FB60FB6823F00103BB647B681B6808339F
S31508004E70BA6CFA61BB61B969FA6941E800237B61DA
S31508004E807B69002BE5D17B682022C3F88C207B68E0
S31508004E90002283F88420032312E07B682022C3F8CB
S31508004EA088207B682022C3F88C207B680022DA667B
S31508004EB07B6800221A677B68002283F88420002317
S31508004EC018465837BD4680BD80B584B000AFF86037
S31508004ED0B9603B601346FB714FE0BB69B3F1FF3F16
S31508004EE04BD0FCF70BFD02463B68D31ABA699A42C7
S31508004EF002D3BB69002B01D103234EE0FB681B6874
S31508004F001B6803F00403002B37D0BB68802B34D012
S31508004F10BB68402B31D0FB681B68DB6903F00803CC
S31508004F20082B10D1FB681B6808221A62F86800F083
S31508004F3079F8FB680822C3F89020FB68002283F8FA
S31508004F408420012329E0FB681B68DB6903F40063FE
S31508004F50B3F5006F11D1FB681B684FF400621A6243
S31508004F60F86800F05FF8FB682022C3F89020FB6819
S31508004F70002283F8842003230FE0FB681B68DA69A4
S31508004F80BB681340BA689A420CBF01230023DBB200
S31508004F901A46FB799A42A0D0002318461037BD4618
S31508004FA080BD80B48FB000AF78607B681B683B62B9
S31508004FB03B6A53E8003FFB61FB6923F0C0037B6350
S31508004FC07B681B681A467B6BFB62BA62B96AFA6A27
S31508004FD041E800237B627B6A002BE6D17B681B686D
S31508004FE00833FB60FB6853E8003FBB60BB6823F4EB
S31508004FF000033B637B681B6808333A6BBA617B61C5
S315080050007969BA6941E800233B613B69002BE5D120
S315080050107B682022C3F8882000BF3C37BD465DF870
S31508005020047B704780B495B000AF78607B681B68D6
S315080050307B637B6B53E8003F3B633B6B23F49073C6
S31508005040FB647B681B681A46FB6C3B64FA63F96B66
S315080050503A6C41E80023BB63BB6B002BE6D17B6847
S315080050601B6808333B623B6A53E8003FFB61FB69F8
S3150800507023F0805323F00103BB647B681B68083365
S31508005080BA6CFA62BB62B96AFA6A41E800237B62C3
S315080050907B6A002BE3D17B68DB6E012B18D17B681A
S315080050A01B68FB60FB6853E8003FBB60BB6823F0E6
S315080050B010037B647B681B681A467B6CBB617A614C
S315080050C07969BA6941E800233B613B69002BE6D15F
S315080050D07B682022C3F88C207B680022DA667B680E
S315080050E000225A6700BF5437BD465DF8047B7047F7
S315080050F080B590B000AF78607B689B6AFB637B687D
S315080051001B681B6803F02003002B37D1FB6B0022BA
S31508005110A3F85620FB6B1B6808337B627B6A53E84F
S31508005120003F3B623B6A23F08003BB63FB6B1B6853
S315080051300833BA6B3A63FB62F96A3A6B41E80023B3
S31508005140BB62BB6A002BE5D1FB6B1B683B613B6905
S3150800515053E8003FFB60FB6843F040037B63FB6B4F
S315080051601B681A467B6BFB61BA61B969FA6941E843
S3150800517000237B617B69002BE6D102E0F86BFFF721
S3150800518061FA00BF4037BD4680BD80B584B000AF28
S3150800519078607B689B6AFB60F868FFF75DFA00BF7A
S315080051A01037BD4680BD80B586B000AF78607B6895
S315080051B09B6A7B617B69D3F888303B617B69D3F84E
S315080051C08C30FB607B691B689B6803F08003802B2F
S315080051D005D13B69212B02D17869FFF7E2FE7B698D
S315080051E01B689B6803F04003402B05D1FB68222B04
S315080051F002D17869FFF716FF7B69D3F8903043F040
S3150800520010027B69C3F890207869FFF72FFA00BF70
S315080052101837BD4680BD80B584B000AF78607B681E
S315080052209B6AFB60F868FFF721FA00BF1037BD4696
S3150800523080BD80B588B000AF78607B681B68FB606E
S31508005240FB6853E8003FBB60BB6823F04003FB6183
S315080052507B681B681A46FB69BB617A617969BA691A
S3150800526041E800233B613B69002BE6D17B6820229D
S31508005270C3F888207B6800229A677868FFF7E2F906
S3150800528000BF2037BD4680BD80B483B000AF7860CC
S3150800529000BF0C37BD465DF8047B704780B483B009
S315080052A000AF786000BF0C37BD465DF8047B7047D9
S315080052B080B483B000AF786000BF0C37BD465DF898
S315080052C0047B704780B485B000AF78607B6893F83C
S315080052D08430012B01D1022327E07B68012283F861
S315080052E084207B682422C3F888207B681B681B6897
S315080052F0FB607B681B681A687B681B6822F00102E2
S315080053001A60FB6823F00053FB607B6800225A662C
S315080053107B681B68FA681A607B682022C3F88820B5
S315080053207B68002283F88420002318461437BD467C
S315080053305DF8047B704780B584B000AF786039604B
S315080053407B6893F88430012B01D102232DE07B681A
S31508005350012283F884207B682422C3F888207B688E
S315080053601B681B68FB607B681B681A687B681B6880
S3150800537022F001021A607B681B689B6823F0604173
S315080053807B681B683A680A439A60786800F050F8A8
S315080053907B681B68FA681A607B682022C3F8882035
S315080053A07B68002283F88420002318461037BD4600
S315080053B080BD80B584B000AF786039607B6893F8AB
S315080053C08430012B01D102232DE07B68012283F86A
S315080053D084207B682422C3F888207B681B681B68A6
S315080053E0FB607B681B681A687B681B6822F00102F1
S315080053F01A607B681B689B6823F060617B681B6882
S315080054003A680A439A60786800F012F87B681B6865
S31508005410FA681A607B682022C3F888207B68002215
S3150800542083F88420002318461037BD4680BD000047
S3150800543080B485B000AF78607B685B6E002B08D1BE
S315080054407B680122A3F86A207B680122A3F86820FA
S3150800545031E00823FB730823BB737B681B689B68D2
S315080054605B0EDBB203F007037B737B681B689B68E4
S315080054705B0FDBB203F007033B73BB7B3A7B114937
S315080054808A5C02FB03F33A7B0F498A5C93FBF2F3CF
S315080054909AB27B68A3F86A20FB7B7A7B09498A5C07
S315080054A002FB03F37A7B08498A5C93FBF2F39AB210
S315080054B07B68A3F8682000BF1437BD465DF8047BF7
S315080054C0704700BF849C00088C9C00082DE9FF47A4
S315080054D057EC106B002F0C4619463B46BBBF07F12D
S315080054E000431F4600232D230B700D9BDDF830A0CB
S315080054F0914623F02008BCBF32461646B8F1460F3F
