S01B000053544D333247343331434254365F4D6F746F722E7372656352
S3150800000000800020D91B0008BD130008C51300088E
S31508000010CD130008D5130008DD1300080000000002
S31508000020000000000000000000000000E5130008C2
S31508000030F313000800000000011400080F1400085C
S31508000040291C0008291C0008291C0008291C00086E
S31508000050291C0008291C0008291C0008291C00085E
S31508000060291C0008291C0008291C00081D14000862
S31508000070291C0008291C0008291C0008291C00083E
S31508000080291C000800000000291C0008291C00087B
S31508000090291C0008291C0008291C0008291C00081E
S315080000A0291C0008291C0008291C0008291C00080E
S315080000B0291C0008291C0008291C0008291C0008FE
S315080000C0291C0008291C0008291C0008291C0008EE
S315080000D0291C000831140008291C0008291C0008DE
S315080000E0291C0008291C0008291C0008291C0008CE
S315080000F0291C0008291C0008291C0008000000000B
S3150800010000000000291C000800000000291C000847
S31508000110291C00080000000045140008291C0008D6
S31508000120291C0008291C0008291C0008291C00088D
S31508000130291C00080000000000000000291C000817
S31508000140291C0008291C0008000000000000000007
S315080001500000000000000000000000000000000091
S31508000160000000000000000000000000291C000834
S31508000170291C000800000000000000000000000024
S3150800018000000000291C0008000000000000000014
S315080001900000000000000000000000000000000051
S315080001A00000000000000000291C0008291C0008A7
S315080001B0291C0008291C0008291C0008000000004A
S315080001C000000000291C00080000000000000000D4
S30D080001D0291C0008291C00087F
S315080001E010B5054C237833B9044B13B10448AFF363
S315080001F000800123237010BDD801002000000000F4
S3150800020074B4000808B5034B1BB103490348AFF3A0
S31508000210008008BD00000000DC01002074B400085E
S3150800022001F0FF01102A2BDB10F0070F08D010F899
S31508000230013B013A8B422DD010F0070F42B3F6D19D
S31508000240F0B441EA012141EA014122F007047FF0B6
S3150800025000070023F0E80256083C85EA010586EA0D
S31508000260010685FA47F5A3FA87F586FA47F6A5FA49
S3150800027087F68EB9EED1F0BC01F0FF0102F0070255
S3150800028032B110F8013B013A83EA010313B1F8D100
S315080002900020704701387047002D06BF35460338E1
S315080002A0073815F0010F07D1013015F4807F02BF1A
S315080002B0013015F4C03F0130F0BC0138704700BF6B
S315080002C0034613F8012B002AFBD1181A0138704788
S315080002D081F0004102E000BF83F0004330B54FEAE9
S315080002E041044FEA430594EA050F08BF90EA020F56
S315080002F01FBF54EA000C55EA020C7FEA645C7FEAE9
S31508000300655C00F0E2804FEA5454D4EB5555B8BF0B
S315080003106D420CDD2C4480EA020281EA030382EA7C
S31508000320000083EA010180EA020281EA0303362D0E
S3150800033088BF30BD11F0004F4FEA01314FF4801CE1
S315080003404CEA113102D0404261EB410113F0004FF3
S315080003504FEA03334CEA133302D0524263EB4303AA
S3150800036094EA050F00F0A780A4F10104D5F1200E48
S315080003700DDB02FA0EFC22FA05F2801841F10001A3
S3150800038003FA0EF2801843FA05F359410EE0A5F177
S3150800039020050EF1200E012A03FA0EFC28BF4CF0A8
S315080003A0020C43FA05F3C01851EBE37101F000455E
S315080003B007D54FF0000EDCF1000C7EEB00006EEB6B
S315080003C00101B1F5801F1BD3B1F5001F0CD34908F5
S315080003D05FEA30004FEA3C0C04F101044FEA44524C
S315080003E012F5800F80F09A80BCF1004F08BF5FEAD3
S315080003F0500C50F1000041EB045141EA050130BDB3
S315080004005FEA4C0C404141EB0101013C28BFB1F5C4
S31508000410801FE9D291F0000F04BF01460020B1FA0F
S3150800042081F308BF2033A3F10B03B3F120020CDAE2
S315080004300C3208DD02F1140CC2F10C0201FA0CF0C0
S3150800044021FA02F10CE002F11402D8BFC2F1200C25
S3150800045001FA02F120FA0CFCDCBF41EA0C019040DB
S31508000460E41AA2BF01EB0451294330BD6FEA040424
S315080004701F3C1CDA0C340EDC04F11404C4F120020F
S3150800048020FA04F001FA02F340EA030021FA04F321
S3150800049045EA030130BDC4F10C04C4F1200220FA78
S315080004A002F001FA04F340EA0300294630BD21FAB6
S315080004B004F0294630BD94F0000F83F4801306BF7C
S315080004C081F480110134013D4EE77FEA645C18BF70
S315080004D07FEA655C29D094EA050F08BF90EA020F07
S315080004E005D054EA000C04BF1946104630BD91EAFF
S315080004F0030F1EBF0021002030BD5FEA545C05D102
S315080005004000494128BF41F0004130BD14F5800440
S315080005103CBF01F5801130BD01F0004545F0FE41B4
S3150800052041F470014FF0000030BD7FEA645C1ABFE9
S31508000530194610467FEA655C1CBF0B46024650EA20
S31508000540013406BF52EA033591EA030F41F400214C
S3150800055030BD00BF90F0000F04BF0021704730B5D2
S315080005604FF4806404F132044FF000054FF00001A7
S3150800057050E700BF90F0000F04BF0021704730B568
S315080005804FF4806404F1320410F0004548BF40423D
S315080005904FF000013EE700BF42004FEAE2014FEA92
S315080005A031014FEA02701FBF12F07F4393F07F4F6D
S315080005B081F06051704732F07F4208BF704793F070
S315080005C07F4F04BF41F40021704730B54FF4607483
S315080005D001F0004521F000411CE700BF50EA010286
S315080005E008BF704730B54FF000050AE050EA01022F
S315080005F008BF704730B511F0004502D5404261EB9F
S3150800060041014FF4806404F132045FEA915C3FF4DF
S31508000610D8AE4FF003025FEADC0C18BF03325FEA7C
S31508000620DC0C18BF033202EBDC02C2F1200300FA2D
S3150800063003FC20FA02F001FA03FE40EA0E0021FA52
S3150800064002F11444BDE600BF70B54FF0FF0C4CF440
S31508000650E06C1CEA11541DBF1CEA135594EA0C0FF2
S3150800066095EA0C0F00F0DEF82C4481EA030621EA2D
S315080006704C5123EA4C5350EA013518BF52EA033568
S3150800068041F4801143F4801338D0A0FB02CE4FF01A
S315080006900005E1FB02E506F00042E0FB03E54FF04A
S315080006A00006E1FB03569CF0000F18BF4EF0010E42
S315080006B0A4F1FF04B6F5007F64F5407404D25FEA3E
S315080006C04E0E6D4146EB060642EAC62141EA5551F1
S315080006D04FEAC52040EA5E504FEACE2EB4F1FD0C33
S315080006E088BFBCF5E06F1ED8BEF1004F08BF5FEAB1
S315080006F0500E50F1000041EB045170BD06F0004663
S3150800070046EA010140EA020081EA0301B4EB5C040F
S31508000710C2BFD4EB0C0541EA045170BD41F4801107
S315080007204FF0000E013C00F3AB8014F1360FDEBF2C
S31508000730002001F0004170BDC4F10004203C35DA08
S315080007400C341BDC04F11404C4F1200500FA05F38B
S3150800075020FA04F001FA05F240EA020001F000422C
S3150800076021F0004110EBD37021FA04F642EB0601A2
S315080007705EEA430E08BF20EAD37070BDC4F10C04CC
S31508000780C4F1200500FA04F320FA05F001FA04F290
S3150800079040EA020001F0004110EBD37041F100017C
S315080007A05EEA430E08BF20EAD37070BDC4F1200587
S315080007B000FA05F24EEA020E20FA04F301FA05F2EF
S315080007C043EA020321FA04F001F0004121FA04F297
S315080007D020EA020000EBD3705EEA430E08BF20EA67
S315080007E0D37070BD94F0000F0FD101F000464000A1
S315080007F041EB010111F4801F08BF013CF7D041EA23
S31508000800060195F0000F18BF704703F00046520026
S3150800081043EB030313F4801F08BF013DF7D043EAF7
S315080008200603704794EA0C0F0CEA135518BF95EAAD
S315080008300C0F0CD050EA410618BF52EA4306D1D134
S3150800084081EA030101F000414FF0000070BD50EA53
S31508000850410606BF1046194652EA430619D094EADD
S315080008600C0F02D150EA013613D195EA0C0F05D1C7
S3150800087052EA03361CBF104619460AD181EA03011B
S3150800088001F0004141F0FE4141F470014FF00000D3
S3150800089070BD41F0FE4141F4780170BD70B54FF06E
S315080008A0FF0C4CF4E06C1CEA11541DBF1CEA1355EE
S315080008B094EA0C0F95EA0C0F00F0A7F8A4EB0504D0
S315080008C081EA030E52EA03354FEA013100F08880C7
S315080008D04FEA03334FF0805545EA131343EA126390
S315080008E04FEA022245EA111545EA10654FEA002645
S315080008F00EF000419D4208BF964244F1FD0404F5FE
S31508000900407402D25B084FEA3202B61A65EB030559
S315080009105B084FEA32024FF480104FF4002CB6EB16
S31508000920020E75EB030E22BFB61A754640EA0C0096
S315080009305B084FEA3202B6EB020E75EB030E22BFD6
S31508000940B61A754640EA5C005B084FEA3202B6EB17
S31508000950020E75EB030E22BFB61A754640EA9C00D6
S315080009605B084FEA3202B6EB020E75EB030E22BFA6
S31508000970B61A754640EADC0055EA060E18D04FEA64
S31508000980051545EA16754FEA06164FEAC30343EA04
S3150800099052734FEAC2025FEA1C1CC0D111F4801FD1
S315080009A00BD141EA00014FF000004FF0004CB6E7CA
S315080009B011F4801F04BF01430020B4F1FD0C88BF69
S315080009C0BCF5E06F3FF6AFAEB5EB030C04BFB6EB74
S315080009D0020C5FEA500C50F1000041EB045170BD67
S315080009E00EF0004E4EEA113114EB5C04C2BFD4EB94
S315080009F00C0541EA045170BD41F480114FF0000E18
S31508000A00013C90E645EA060E8DE60CEA135594EA93
S31508000A100C0F08BF95EA0C0F3FF43BAF94EA0C0F96
S31508000A200AD150EA01347FF434AF95EA0C0F7FF40B
S31508000A3025AF104619462CE795EA0C0F06D152EA5F
S31508000A4003353FF4FDAE1046194622E750EA410643
S31508000A5018BF52EA43067FF4C5AE50EA41047FF454
S31508000A600DAF52EA43057FF4EBAE12E74FF0FF3CB9
S31508000A7006E000BF4FF0010C02E000BF4FF0010C8A
S31508000A804DF804CD4FEA410C7FEA6C5C4FEA430C03
S31508000A9018BF7FEA6C5C1BD001B050EA410C0CBF52
S31508000AA052EA430C91EA030F02BF90EA020F0020B4
S31508000AB0704710F1000F91EA030F58BF994208BF1B
S31508000AC090422CBFD8176FEAE37040F001007047D8
S31508000AD04FEA410C7FEA6C5C02D150EA013C07D12F
S31508000AE04FEA430C7FEA6C5CD6D152EA033CD3D07A
S31508000AF05DF8040B704700BF8446104662468C4674
S31508000B001946634600E000BF01B5FFF7B7FF0028A6
S31508000B1048BF10F1000F01BD4DF808EDFFF7F4FFCF
S31508000B200CBF012000205DF808FB00BF4DF808ED5A
S31508000B30FFF7EAFF34BF012000205DF808FB00BF7D
S31508000B404DF808EDFFF7E0FF94BF012000205DF89F
S31508000B5008FB00BF4DF808EDFFF7CEFF94BF012054
S31508000B6000205DF808FB00BF4DF808EDFFF7C4FF4D
S31508000B7034BF012000205DF808FB00BF4FEA410C96
S31508000B807FEA6C5C02D150EA013C0AD14FEA430C79
S31508000B907FEA6C5C02D152EA033C02D14FF00000B6
S31508000BA070474FF0010070474FEA410212F50012F4
S31508000BB015D211D56FF47873B3EB625212D94FEA96
S31508000BC0C12343F0004343EA505311F0004F23FA80
S31508000BD002F018BF404270474FF00000704750EAD5
S31508000BE0013005D111F0004008BF6FF00040704792
S31508000BF04FF00000704700BF4A0011D212F50012EC
S31508000C0011D20DD56FF47873B3EB62520ED44FEA56
S31508000C10C12343F0004343EA505323FA02F07047D6
S31508000C204FF00000704750EA013002D14FF0FF3014
S31508000C3070474FF0000070474FEA4102B2F1E043B7
S31508000C4024BFB3F5001CDCF1FE5C0DD901F0004CA5
S31508000C504FEAC0024CEA5070B2F1004F40EB8300F5
S31508000C6008BF20F00100704711F0804F21D113F121
S31508000C703872BCBF01F00040704741F480114FEA5A
S31508000C805252C2F11802C2F1200C10FA0CF320FAE3
S31508000C9002F018BF40F001004FEAC1234FEAD32300
S31508000CA003FA0CFC40EA0C0023FA02F34FEA43036A
S31508000CB0CCE77FEA625307D150EA01331EBF4FF0F3
S31508000CC0FE4040F44000704701F0004040F0FE400E
S31508000CD040F40000704700BF53B94AB9002908BF5D
S31508000CE000281CBF4FF0FF314FF0FF3000F0BEB9AF
S31508000CF0ADF1080C6DE904CE00F03CF8DDF804E02F
S31508000D00DDE9022304B0704738B500220023044603
S31508000D100D46FFF70BFF28B920462946BDE838409F
S31508000D2000F00AB8204605F1004100F005F84042F7
S31508000D3061EB410138BD00BFD0B50C4B0022064619
S31508000D400F46FFF781FCFFF757FF0446FFF702FC43
S31508000D50074B0022FFF778FC02460B463046394619
S31508000D60FFF7BAFAFFF748FF2146D0BD0000F03D6D
S31508000D700000F0412DE9F047089D0F4604468C46D1
S31508000D80002B48D18A42164661D9B2FA82F34BB192
S31508000D90C3F1200201FA03FC20FA02F29E4042EA5D
S31508000DA00C0C9C404FEA164EB7B2BCFBFEF1220C67
S31508000DB00EFB11CC42EA0C4201FB07F0904209D91E
S31508000DC0B21801F1FF3C80F0EE80904240F2EB80D1
S31508000DD002393244121AA4B2B2FBFEF00EFB1022FC
S31508000DE044EA024400FB07F7A74209D9341900F17F
S31508000DF0FF3280F0DA80A74240F2D78034440238C6
S31508000E0040EA0140E41B00211DB1DC400023C5E98E
S31508000E100043BDE8F0878B4206D90DB1C5E900014C
S31508000E2000210846BDE8F087B3FA83F1002948D1C6
S31508000E30BB4202D3824200F20781841A67EB03029F
S31508000E4001209446002DE4D0C5E9004CE1E7002ACC
S31508000E5000F09280B2FA82F3002B40F0A8808A1A3A
S31508000E604FEA164E1FFA86FC0121200CB2FBFEF74C
S31508000E700EFB172240EA02420CFB07F0904207D904
S31508000E80B21807F1FF3802D2904200F2E2804746D4
S31508000E90121AA4B2B2FBFEF00EFB102244EA024478
S31508000EA00CFB00FCA44507D9341900F1FF3202D225
S31508000EB0A44500F2CB801046A4EB0C0440EA074098
S31508000EC0A2E7C1F120068B4022FA06FC4CEA030C85
S31508000ED007FA01F420FA06F3F7404FEA1C492343C0
S31508000EE000FA01F81FFA8CFEB7FBF9F01C0C09FB97
S31508000EF0107744EA074400FB0EF7A74202FA01F20C
S31508000F000AD91CEB040400F1FF3A80F09B80A74243
S31508000F1040F2988002386444E41B9FB2B4FBF9F3AC
S31508000F2009FB134447EA044403FB0EFEA64509D908
S31508000F301CEB040403F1FF3780F08280A6457FD9B5
S31508000F40023B644443EA0040A4EB0E04A0FB02E71C
S31508000F50BC427346B94663D360D05DB1B8EB0302B1
S31508000F6064EB090404FA06F622FA01F31E43CC40A0
S31508000F70C5E9006400214CE76208480842EAC171E5
S31508000F800B0C43EA00438AB242EA0342B3FBF6F18A
S31508000F90E407B4463746B6461F23B0FBF6F0D21B25
S31508000FA041EA004161E7614614E7104628E7C3F1C4
S31508000FB0200120FA01F29E4027FA01F19F403A43A8
S31508000FC04FEA164E1FFA86FCB1FBFEF70EFB17100A
S31508000FD0110C41EA004107FB0CF8884504FA03F4B2
S31508000FE03AD9711807F1FF3001D288451FD8A1EB0D
S31508000FF00801B1FBFEF808FB0CF70EFB181192B2BC
S3150800100042EA0142BA422FD2B21808F1FF31C6D2DB
S31508001010BA42C4D2A8F102013244C0E7F0459CD2D4
S31508001020BEEB020367EB0C070138B94695E7A6EB5A
S3150800103008084144B81EB1FBFEF808FB0CF7DCE7CC
S315080010403B467FE7504667E70846FBE634440238E6
S3150800105032E7023F32441BE7A1EB08013846B1FBF1
S31508001060FEF808FB0CF7C8E7414698E7704700BF4B
S3150800107080B582B000AF124B9B6C114A43F0040353
S3150800108093640F4B9B6C03F004037B607B680C4BEB
S315080010909B6C0B4A43F001039364094B9B6C03F06A
S315080010A001033B603B68002200210B2000F02BFF68
S315080010B00B2000F042FF00BF0837BD4680BD00BFC9
S315080010C00010024080B58AB000AF07F11403002271
S315080010D01A605A609A60DA601A61244BDB6C234AFC
S315080010E043F00403D364214BDB6C03F004033B6138
S315080010F03B691E4BDB6C1D4A43F02003D3641B4B34
S31508001100DB6C03F02003FB60FB68184BDB6C174AAB
S3150800111043F00203D364154BDB6C03F00203BB6098
S31508001120BB68124BDB6C114A43F00103D3640F4BC7
S31508001130DB6C03F001037B607B6801224FF40051EE
S315080011400B4801F0FDFB4FF400537B610123BB61A3
S315080011500123FB6100233B6207F114031946044887
S3150800116001F04AFA00BF2837BD4680BD001002408C
S315080011700008004880B483B000AF0346FB80FB88B4
S31508001180B3F5FA5F02D341F63F73FB80084B1B6841
S31508001190FA885A63064B1B68FA889A63044B1B68DD
S315080011A0FA88DA6300BF0C37BD465DF8047B7047E2
S315080011B0F801002080B582B000AF214B1B681B697F
S315080011C003F08003802B37D14FF480511D4801F07E
S315080011D09FFB0346012B2FD1194B1B686FF080022A
S315080011E01A610021164802F04DFD0021144803F04B
S315080011F02DFF0421124802F045FD0421104803F092
S3150800120025FF08210E4802F03DFD08210C4803F091
S315080012101DFF00237B600C4A4FF480710B4806F0D3
S31508001220A7FC78607B68002B06DD7B689BB21A46B4
S315080012300649074804F06AFA00BF0837BD4680BD6C
S31508001240F80100200004004890B40008900300202C
S315080012509004002080B500AF00F0E7FC00F03AF8F3
S31508001260FFF730FFFFF704FF00F0D6FA00F0D2FBD5
S3150800127000F0E0F9144802F02DFC144802F0C8FB0F
S315080012800021124802F0FEFC0021104803F0DEFEA1
S3150800129004210E4802F0F6FC04210C4803F0D6FEA1
S315080012A008210A4802F0EEFC0821084803F0CEFEA1
S315080012B0FFF780FF064B1B881846FFF75BFF3220B7
S315080012C000F024FD00BFF3E7C4020020F801002067
S315080012D00000002080B594B000AF07F1180338224B
S315080012E00021184606F0E0FC3B1D00221A605A60F1
S315080012F09A60DA601A61002001F054FB0123BB6191
S315080013004FF48033FB6102237B630323BB63012312
S31508001310FB6328233B6402237B640223BB6402230A
S31508001320FB6407F11803184601F0F0FB0346002B8F
S3150800133001D000F018F80F237B600323BB6000235D
S31508001340FB6000233B6100237B613B1D042118469B
S3150800135001F0EEFE0346002B01D000F004F800BFB2
S315080013605037BD4680BD80B400AF72B600BF00BF1F
S31508001370FDE7000080B582B000AF0F4B1B6E0E4A2A
S3150800138043F0010313660C4B1B6E03F001037B60ED
S315080013907B68094B9B6D084A43F080539365064B5F
S315080013A09B6D03F080533B603B6801F09FFB00BFD9
S315080013B00837BD4680BD00BF0010024080B400AFAC
S315080013C000BFFDE780B400AF00BFFDE780B400AF03
S315080013D000BFFDE780B400AF00BFFDE780B400AFF3
S315080013E000BFFDE780B400AF00BFBD465DF8047BD3
S315080013F0704780B400AF00BFBD465DF8047B7047F8
S3150800140080B400AF00BFBD465DF8047B704780B569
S3150800141000AF00F05DFC00BF80BD000080B500AFE6
S31508001420024800F08DFF00BF80BD00BF24050020E4
S3150800143080B500AF024804F0E9F900BF80BD00BFDF
S315080014409004002080B500AF024802F01BFD00BFE3
S3150800145080BD00BFC402002080B582B000AF7860AE
S315080014607B68064A934204D14FF40051044801F0C0
S315080014707FFA00BF0837BD4680BD00BFC402002002
S315080014800008004880B400AF01231846BD465DF841
S31508001490047B704780B582B000AF7860396006F08B
S315080014A055FC034616221A604FF0FF3318460837D4
S315080014B0BD4680BD80B582B000AF78604FF0FF3181
S315080014C07868FFF7E7FF00BFFDE780B586B000AF95
S315080014D0F860B9607A6000237B610AE0AFF30080A8
S315080014E00146BB685A1CBA60CAB21A707B690133D6
S315080014F07B617A697B689A42F0DB7B681846183705
S31508001500BD4680BD80B586B000AFF860B9607A6028
S3150800151000237B6109E0BB685A1CBA601B78184631
S31508001520AFF300807B6901337B617A697B689A42F5
S31508001530F1DB7B6818461837BD4680BD80B483B09A
S3150800154000AF78604FF0FF3318460C37BD465DF89C
S31508001550047B704780B483B000AF786039603B681D
S315080015604FF400525A60002318460C37BD465DF802
S31508001570047B704780B483B000AF786001231846B7
S315080015800C37BD465DF8047B704780B485B000AF64
S31508001590F860B9607A60002318461437BD465DF8CE
S315080015A0047B704780B586B000AF7860144A154B47
S315080015B0D31A7B617B693B61134B1B68002B02D1F5
S315080015C0114B124A1A60104B1A687B6813443A6921
S315080015D09A4207D206F0BAFB03460C221A604FF06D
S315080015E0FF3309E0084B1B68FB60074B1A687B68EA
S315080015F01344054A1360FB6818461837BD4680BD74
S315080016000080002000040000F4010020D806002015
S3150800161080B400AF064BD3F88830054A43F470030C
S31508001620C2F8883000BFBD465DF8047B704700BF2E
S3150800163000ED00E080B59EB000AF07F16803002218
S315080016401A605A609A60DA6007F15C0300221A6031
S315080016505A609A6007F1500300221A605A609A602D
S3150800166007F1340300221A605A609A60DA601A6138
S315080016705A619A613B4634220021184606F014FB4B
S31508001680634B644A1A60624B00225A60604B202200
S315080016909A605F4B41F63F72DA605D4B00221A6131
S315080016A05B4B00225A615A4B80229A61584802F0D5
S315080016B04BF90346002B01D0FFF755FE4FF4805334
S315080016C0BB6607F168031946514802F069FE0346EE
S315080016D0002B01D0FFF747FE4D4802F065FA034696
S315080016E0002B01D0FFF73FFE7023FB6500233B6606
S315080016F000237B6607F15C031946454803F05AFD4B
S315080017000346002B01D0FFF72EFE01233B6501237C
S315080017107B650023BB6507F150031A4601213C4847
S3150800172003F056FE0346002B01D0FFF71CFE60238C
S315080017307B6340F69F73BB630023FB6300233B6414
S3150800174000237B640023BB640023FB6407F1340396
S31508001750002219462E4802F00FFD0346002B01D041
S31508001760FFF701FE07F1340304221946284802F060
S3150800177003FD0346002B01D0FFF7F5FD07F13403FF
S3150800178008221946224802F0F7FC0346002B01D02E
S31508001790FFF7E9FD0023BB6307F134030C22194662
S315080017A01B4802F0E9FC0346002B01D0FFF7DBFDDE
S315080017B04FF400633B604FF480637B600023BB609B
S315080017C06423FB604FF480533B6100237B610A234B
S315080017D0BB610023FB6100233B624FF000737B6211
S315080017E00023BB620023FB624FF480433B633B4606
S315080017F01946074803F060FD0346002B01D0FFF7A2
S31508001800B2FD034800F09EF800BF7837BD4680BD9C
S31508001810F8010020002C014080B584B000AF3B1DC4
S3150800182000221A605A609A60144B154A1A60134BC4
S315080018309F225A60114B00229A60104B6322DA608D
S315080018400E4B80229A610D4802F07EF80346002B63
S3150800185001D0FFF788FD00237B600023FB603B1D5A
S315080018601946064803F0A6FC0346002B01D0FFF7ED
S315080018707AFD00BF1037BD4680BD00BFC4020020F8
S315080018800010004080B58AB000AF786007F11403F5
S3150800189000221A605A609A60DA601A617B681B68CF
S315080018A0244A934229D1244B1B6E234A43F40063EE
S315080018B01366214B1B6E03F400633B613B691E4BA9
S315080018C0DB6C1D4A43F00203D3641B4BDB6C03F04D
S315080018D00203FB60FB684FF480537B611223BB61F4
S315080018E00123FB6100233B6206237B6207F1140395
S315080018F01946124800F080FE18E07B681B68104AFB
S31508001900934213D10C4B9B6D0B4A43F0100393651E
S31508001910094B9B6D03F01003BB60BB6800220021D6
S31508001920362000F0F0FA362000F007FB00BF283713
S31508001930BD4680BD002C014000100240000400484E
S315080019400010004080B58AB000AF786007F1140334
S3150800195000221A605A609A60DA601A617B681B680E
S31508001960294A93424BD1294BDB6C284A43F00203A0
S31508001970D364264BDB6C03F002033B613B69234BC4
S31508001980DB6C224A43F00103D364204BDB6C03F083
S315080019900103FB60FB684FF4C0437B610223BB6114
S315080019A00023FB6100233B6206237B6207F11403D5
S315080019B01946174800F020FE4FF400437B610223C6
S315080019C0BB610023FB6100233B6204237B6207F1B2
S315080019D0140319460E4800F00FFE4FF4E0637B61CE
S315080019E00223BB610023FB6100233B6206237B6263
S315080019F007F1140319464FF0904000F0FDFD00BFB3
S31508001A002837BD4680BD00BF002C014000100240AB
S31508001A100004004880B500AF264B274A1A60254BBC
S31508001A204FF4E1325A60234B00229A60214B002280
S31508001A30DA60204B00221A611E4B0C225A611D4B9C
S31508001A4000229A611B4B0022DA611A4B00221A62A5
S31508001A50184B00225A62174B30229A62154B4FF4E4
S31508001A608052DA63134B4FF400521A64114803F09C
S31508001A70FCFD0346002B01D0FFF775FC00210D483D
S31508001A8005F07FF80346002B01D0FFF76CFC002118
S31508001A90084805F0B4F80346002B01D0FFF763FCAD
S31508001AA0044805F035F80346002B01D0FFF75BFC28
S31508001AB000BF80BD900400200038014080B59AB070
S31508001AC000AF786007F1540300221A605A609A60E2
S31508001AD0DA601A6107F1100344220021184606F05D
S31508001AE0E3F87B681B68374A934266D101233B615A
S31508001AF000237B6107F11003184601F035FD034604
S31508001B00002B01D0FFF72FFC2F4B1B6E2E4A43F4F8
S31508001B10804313662C4B1B6E03F48043FB60FB6803
S31508001B20294BDB6C284A43F00203D364264BDB6C53
S31508001B3003F00203BB60BB68C0237B650223BB6559
S31508001B400023FB6500233B6607237B6607F15403E6
S31508001B5019461E4800F050FD1D4B1E4A1A601C4BC4
S31508001B6019225A601A4B10229A60194B0022DA6021
S31508001B70174B80221A61164B00225A61144B002219
S31508001B809A61134B0022DA61114B00221A6210483F
S31508001B9000F0EEF90346002B01D0FFF7E4FB7B6863
S31508001BA00B4ADA670A4A7B689362002200212520DD
S31508001BB000F0A9F9252000F0C0F900BF6837BD4636
S31508001BC080BD00BF003801400010024000040048F4
S31508001BD024050020080002400D488546FFF718FD39
S31508001BE00C480D490D4A002302E0D458C45004336A
S31508001BF0C4188C42F9D30A4A0A4C002301E0136040
S31508001C000432A242FBD306F0A7F8FFF723FBFEE750
S31508001C100080002000000020D80100201CB9000820
S31508001C20D8010020D4060020FEE780B582B000AFB8
S31508001C300023FB71032000F05BF90F2000F00EF87B
S31508001C400346002B02D00123FB7101E0FFF792FB4C
S31508001C50FB7918460837BD4680BD000080B584B0BC
S31508001C6000AF78600023FB73164B1B68002B22D04D
S31508001C70154B1A68134B1B684FF47A71B1FBF3F3D3
S31508001C80B2FBF3F3184600F066F90346002B0FD1B2
S31508001C907B680F2B09D8002279684FF0FF3000F0D7
S31508001CA032F90A4A7B68136007E00123FB7304E0F4
S31508001CB00123FB7301E00123FB73FB7B18461037F6
S31508001CC0BD4680BD0C00002004000020080000204E
S31508001CD080B400AF054B1A68054B1B681344034ACA
S31508001CE0136000BFBD465DF8047B7047840500207D
S31508001CF00C00002080B400AF034B1B681846BD4695
S31508001D005DF8047B704700BF8405002080B584B069
S31508001D1000AF7860FFF7EEFFB8607B68FB60FB6892
S31508001D20B3F1FF3F04D0094B1B68FA681344FB6004
S31508001D3000BFFFF7DFFF0246BB68D31AFA689A426C
S31508001D40F7D800BF00BF1037BD4680BD0C00002085
S31508001D5080B485B000AF78607B6803F00703FB604A
S31508001D600C4BDB68BB60BA684FF6FF031340BB60D9
S31508001D70FB681A02BB68134343F0BF6343F400339E
S31508001D80BB60044ABB68D36000BF1437BD465DF824
S31508001D90047B704700ED00E080B400AF044BDB68BD
S31508001DA01B0A03F007031846BD465DF8047B704717
S31508001DB000ED00E080B483B000AF0346FB7197F9ED
S31508001DC00730002B0BDBFB7903F01F02074997F955
S31508001DD007305B09012000FA02F241F8232000BF10
S31508001DE00C37BD465DF8047B704700BF00E100E094
S31508001DF080B483B000AF03463960FB7197F90730AA
S31508001E00002B0ADB3B68DAB20C4997F90730120156
S31508001E10D2B20B4483F800230AE03B68DAB20849D9
S31508001E20FB7903F00F03043B1201D2B20B441A7676
S31508001E3000BF0C37BD465DF8047B704700E100E043
S31508001E4000ED00E080B489B000AFF860B9607A6050
S31508001E50FB6803F00703FB61FB69C3F10703042B67
S31508001E6028BF0423BB61FB690433062B02D9FB692F
S31508001E70033B00E000237B614FF0FF32BB6902FAA7
S31508001E8003F3DA43BB681A407B699A404FF0FF3187
S31508001E907B6901FA03F3D9437B680B401343184661
S31508001EA02437BD465DF8047B7047000080B582B0D4
S31508001EB000AF78607B68013BB3F1807F01D30123D3
S31508001EC00FE00A4A7B68013B53600F214FF0FF3051
S31508001ED0FFF78EFF054B00229A60044B07221A6013
S31508001EE0002318460837BD4680BD00BF10E000E055
S31508001EF080B582B000AF78607868FFF729FF00BF29
S31508001F000837BD4680BD80B586B000AF0346B960C8
S31508001F107A60FB73FFF740FF78617A68B968786979
S31508001F20FFF790FF024697F90F3011461846FFF75C
S31508001F305FFF00BF1837BD4680BD80B582B000AFD1
S31508001F400346FB7197F907301846FFF733FF00BFC2
S31508001F500837BD4680BD80B582B000AF7860786826
S31508001F60FFF7A4FF034618460837BD4680BD0000A4
S31508001F7080B584B000AF78607B68002B01D101235F
S31508001F808EE07B681B681A46474B9A420FD87B68D7
S31508001F901B681A46454B1344454AA2FB03231B09F3
S31508001FA09A007B685A647B68424A1A640EE07B682A
S31508001FB01B681A46404B13443D4AA2FB03231B09E0
S31508001FC09A007B685A647B683C4A1A647B680222DA
S31508001FD083F825207B681B681B68FB60FB6823F475
S31508001FE0FF4323F07003FB607B689A687B68DB68B5
S31508001FF01A437B681B691A437B685B691A437B68CB
S315080020009B691A437B68DB691A437B681B6A13431F
S31508002010FA681343FB607B681B68FA681A6078687D
S3150800202000F07CFA7B689B68B3F5804F02D17B6829
S3150800203000225A607B685A687B689B6C02F07F02B4
S315080020401A607B68DB6C7A68126D5A607B685B681D
S31508002050002B10D07B685B68042B0CD8786800F0DE
S31508002060A5FA7B685B6D00221A607B689B6D7A68AF
S31508002070D26D5A6008E07B6800225A657B680022A8
S315080020809A657B680022DA657B680022DA637B68DA
S31508002090012283F825207B68002283F82420002368
S315080020A018461037BD4680BD07040240F8FFFDBF3D
S315080020B0CDCCCCCC00000240F8FBFDBF00040240AA
S315080020C080B586B000AFF860B9607A603B600023DF
S315080020D0FB75FB6893F82430012B01D1022366E0D7
S315080020E0FB68012283F82420FB6893F82530DBB2CD
S315080020F0012B55D1FB68022283F82520FB680022B4
S31508002100DA63FB681B681A68FB681B6822F0010221
S315080021101A603B687A68B968F86800F0C0F9FB6825
S315080021201B6B002B08D0FB681B681A68FB681B68CA
S3150800213042F00E021A600FE0FB681B681A68FB681B
S315080021401B6822F004021A60FB681B681A68FB68A1
S315080021501B6842F00A021A60FB689B6C1B6803F452
S315080021608033002B07D0FB689B6C1A68FB689B6C56
S3150800217042F480721A60FB685B6D002B07D0FB681F
S315080021805B6D1A68FB685B6D42F480721A60FB68C7
S315080021901B681A68FB681B6842F001021A6005E0B2
S315080021A0FB68002283F824200223FB75FB7D184672
S315080021B01837BD4680BD80B485B000AF786000236F
S315080021C0FB737B68002B01D101234CE07B6893F8F5
S315080021D02530DBB2022B05D07B680422DA630123A3
S315080021E0FB7337E07B681B681A687B681B6822F0FC
S315080021F001021A607B681B681A687B681B6822F0F4
S315080022000E021A607B689B6C1A687B689B6C22F4CA
S3150800221080721A607B685B6C03F01F027B681B6C1C
S31508002220012101FA02F25A607B68DB6C7A68126D4A
S315080022305A607B685B6D002B0CD07B685B6D1A68F7
S315080022407B685B6D22F480721A607B689B6D7A6886
S31508002250D26D5A607B68012283F825207B680022AC
S3150800226083F82420FB7B18461437BD465DF8047BAB
S31508002270704780B584B000AF78600023FB737B6835
S3150800228093F82530DBB2022B0DD07B680422DA6383
S315080022907B68012283F825207B68002283F82420A6
S315080022A00123FB7347E07B681B681A687B681B6819
S315080022B022F001021A607B681B681A687B681B6833
S315080022C022F00E021A607B689B6C1A687B689B6C0E
S315080022D022F480721A607B685B6C03F01F027B68CD
S315080022E01B6C012101FA02F25A607B68DB6C7A6882
S315080022F0126D5A607B685B6D002B0CD07B685B6D3A
S315080023001A687B685B6D22F480721A607B689B6D25
S315080023107A68D26D5A607B68012283F825207B682B
S31508002320002283F824207B689B6B002B03D07B68F4
S315080023309B6B78689847FB7B18461037BD4680BD6F
S3150800234080B584B000AF78607B681B6C1B68FB6047
S315080023507B681B681B68BB607B685B6C03F01F03AC
S3150800236004229A40FB681340002B26D0BB6803F072
S315080023700403002B21D07B681B681B6803F020032D
S31508002380002B07D17B681B681A687B681B6822F0DC
S3150800239004021A607B685B6C03F01F027B681B6C87
S315080023A0042101FA02F25A607B681B6B002B71D07C
S315080023B07B681B6B786898476CE07B685B6C03F0FE
S315080023C01F0302229A40FB681340002B2ED0BB68DD
S315080023D003F00203002B29D07B681B681B6803F0F7
S315080023E02003002B0BD17B681B681A687B681B6867
S315080023F022F00A021A607B68012283F825207B688E
S315080024005B6C03F01F027B681B6C022101FA02F267
S315080024105A607B68002283F824207B68DB6A002BDD
S3150800242038D07B68DB6A7868984733E07B685B6CF2
S3150800243003F01F0308229A40FB681340002B2AD09A
S31508002440BB6803F00803002B25D07B681B681A6855
S315080024507B681B6822F00E021A607B685B6C03F0CF
S315080024601F027B681B6C012101FA02F25A607B6825
S315080024700122DA637B68012283F825207B68002223
S3150800248083F824207B685B6B002B04D07B685B6B2E
S315080024907868984700BF00BF1037BD4680BD80B436
S315080024A085B000AFF860B9607A603B60FB68DB6CAA
S315080024B0FA68126D5A60FB685B6D002B04D0FB68E6
S315080024C09B6DFA68D26D5A60FB685B6C03F01F025D
S315080024D0FB681B6C012101FA02F25A60FB681B6853
S315080024E03A685A60FB689B68102B08D1FB681B6822
S315080024F07A689A60FB681B68BA68DA6007E0FB6866
S315080025001B68BA689A60FB681B687A68DA6000BF5D
S315080025101437BD465DF8047B7047000080B487B069
S3150800252000AF78607B681B681A461B4B9A420BD82B
S315080025301A4B3B617B681B68DBB2083B184AA2FB57
S3150800254003231B097B610BE0164B3B617B681B6809
S31508002550DBB2083B124AA2FB03231B0906337B6145
S315080025603B69FB607B685B6C9B089A00FB681344BD
S315080025701A467B689A647B680B4ADA647B6903F0BF
S315080025801F0301229A407B681A6500BF1C37BD46A7
S315080025905DF8047B704700BF07040240000802404C
S315080025A0CDCCCCCC200802408008024080B485B04F
S315080025B000AF78607B685B6803F07F03FB60FA68AE
S315080025C00B4B13449B001A467B685A657B68094A7D
S315080025D09A65FB68013B03F01F0301229A407B685A
S315080025E0DA6500BF1437BD465DF8047B704700BF47
S315080025F03F8200104009024080B487B000AF78607F
S31508002600396000237B6164E13B681A6801217B69B4
S3150800261001FA03F31340FB60FB68002B00F05681B8
S315080026203B685B6803F00303012B05D03B685B68D6
S3150800263003F00303022B30D17B689B683B617B69FF
S315080026405B00032202FA03F3DB433A6913403B615A
S315080026503B68DA687B695B0002FA03F33A6913435D
S315080026603B617B683A699A607B685B683B610122DB
S315080026707B6902FA03F3DB433A6913403B613B6823
S315080026805B681B0903F001027B6902FA03F33A69E6
S3150800269013433B617B683A695A603B685B6803F0A1
S315080026A00303032B09D13B685B6803F00303032B81
S315080026B01BD13B689B68012B17D07B68DB683B61A5
S315080026C07B695B00032202FA03F3DB433A69134092
S315080026D03B613B689A687B695B0002FA03F33A69D7
S315080026E013433B617B683A69DA603B685B6803F0D1
S315080026F00303022B23D17B69DA087B68083253F877
S3150800270022303B617B6903F007039B000F2202FA24
S3150800271003F3DB433A6913403B613B681A697B69FB
S3150800272003F007039B0002FA03F33A6913433B617C
S315080027307B69DA087B680832396943F822107B68B6
S315080027401B683B617B695B00032202FA03F3DB43E8
S315080027503A6913403B613B685B6803F003027B6997
S315080027605B0002FA03F33A6913433B617B683A69F3
S315080027701A603B685B6803F44033002B00F0A680C0
S315080027805B4B1B6E5A4A43F001031366584B1B6E8C
S3150800279003F00103BB60BB68564A7B699B0802339A
S315080027A052F823303B617B6903F003039B000F2239
S315080027B002FA03F3DB433A6913403B617B68B3F1E2
S315080027C0904F1FD07B684C4A934219D07B684B4A7E
S315080027D0934213D07B684A4A93420DD07B68494A94
S315080027E0934207D07B68484A934201D105230AE001
S315080027F0062308E0042306E0032304E0022302E09C
S31508002800012300E000237A6902F003029200934054
S315080028103A6913433B6137497B699B0802333A6936
S3150800282041F82320394B9B683B61FB68DB433A69D7
S3150800283013403B613B685B6803F48013002B03D0AD
S315080028403A69FB6813433B61304A3B6993602F4BF7
S31508002850DB683B61FB68DB433A6913403B613B68D5
S315080028605B6803F40013002B03D03A69FB68134333
S315080028703B61264A3B69D360244B5B683B61FB6836
S31508002880DB433A6913403B613B685B6803F40033FA
S31508002890002B03D03A69FB6813433B611B4A3B692B
S315080028A053601A4B1B683B61FB68DB433A6913406C
S315080028B03B613B685B6803F48033002B03D03A69BD
S315080028C0FB6813433B61114A3B6913607B6901331B
S315080028D07B613B681A687B6922FA03F3002B7FF455
S315080028E093AE00BF00BF1C37BD465DF8047B70473A
S315080028F0001002400000014000040048000800489B
S31508002900000C00480010004800140048000401406C
S3150800291080B485B000AF78600B467B807B681A6907
S315080029207B881340002B02D00123FB7301E00023B0
S31508002930FB73FB7B18461437BD465DF8047B70476E
S3150800294080B483B000AF78600B467B8013467B70FB
S315080029507B78002B03D07A887B689A6102E07A88B4
S315080029607B689A6200BF0C37BD465DF8047B7047EA
S3150800297080B485B000AF78600B467B807B685B6966
S31508002980FB607A88FB6813401A04FB68D9437B8886
S315080029900B401A437B689A6100BF1437BD465DF841
S315080029A0047B704780B485B000AF78607B68002BE5
S315080029B041D14B4B1B6803F4C063B3F5806F31D12B
S315080029C0474BD3F88030464A23F48073C2F88030E8
S315080029D0434B1B6823F4C063414A43F400731360F6
S315080029E0404B1B68322202FB03F33F4AA2FB032338
S315080029F09B0C0133FB6002E0FB68013BFB60384B34
S31508002A005B6903F48063B3F5806F02D1FB68002B22
S31508002A10F2D1334B5B6903F48063B3F5806F58D109
S31508002A20032357E02E4BD3F880302D4A23F48073C6
S31508002A30C2F880304DE07B68B3F5007F41D1284B62
S31508002A401B6803F4C063B3F5806F31D1244BD3F808
S31508002A508030234A43F48073C2F88030204B1B68C9
S31508002A6023F4C0631E4A43F4007313601D4B1B68AE
S31508002A70322202FB03F31C4AA2FB03239B0C0133FD
S31508002A80FB6002E0FB68013BFB60154B5B6903F4E6
S31508002A908063B3F5806F02D1FB68002BF2D1104B2F
S31508002AA05B6903F48063B3F5806F12D1032311E0E9
S31508002AB00B4BD3F880300A4A43F48073C2F880304F
S31508002AC007E0074B1B6823F4C063054A43F4806399
S31508002AD01360002318461437BD465DF8047B70471B
S31508002AE0007000400400002083DE1B4380B400AF62
S31508002AF0054B9B68044A43F48043936000BFBD4678
S31508002B005DF8047B704700BF0070004080B588B050
S31508002B1000AF78607B68002B01D10123FEE27B6859
S31508002B201B6803F00103002B75D0974B9B6803F0D5
S31508002B300C03BB61944BDB6803F003037B61BB6941
S31508002B400C2B02D17B69032B02D0BB69082B0BD156
S31508002B508D4B1B6803F40033002B5BD07B685B68E6
S31508002B60002B57D10123D9E27B685B68B3F5803F18
S31508002B7006D1854B1B68844A43F4803313601DE0F5
S31508002B807B685B68B3F5A02F0CD17F4B1B687E4A28
S31508002B9043F4802313607C4B1B687B4A43F48033E1
S31508002BA013600BE0784B1B68774A23F48033136075
S31508002BB0754B1B68744A23F4802313607B685B6833
S31508002BC0002B13D0FFF796F8386108E0FFF792F864
S31508002BD002463B69D31A642B01D903239EE26A4B4A
S31508002BE01B6803F40033002BF0D014E0FFF782F8DB
S31508002BF0386108E0FFF77EF802463B69D31A642B72
S31508002C0001D903238AE2604B1B6803F40033002BC7
S31508002C10F0D100E000BF7B681B6803F00203002BBD
S31508002C2075D0594B9B6803F00C03BB61564BDB68A8
S31508002C3003F003037B61BB690C2B02D17B69022B72
S31508002C4002D0BB69042B1FD14F4B1B6803F480636A
S31508002C50002B05D07B68DB68002B01D101235DE2E0
S31508002C60494B5B6823F0FE427B681B691B06464995
S31508002C7013434B60454B1B681846FEF7EFFF0346A8
S31508002C80002B43D0012349E27B68DB68002B23D065
S31508002C903D4B1B683C4A43F480731360FFF72AF8E0
S31508002CA0386108E0FFF726F802463B69D31A022B7B
S31508002CB001D9032332E2344B1B6803F48063002BEB
S31508002CC0F0D0314B5B6823F0FE427B681B691B061C
S31508002CD02D4913434B601AE02B4B1B682A4A23F4F1
S31508002CE080731360FFF706F8386108E0FFF702F80B
S31508002CF002463B69D31A022B01D903230EE2224B63
S31508002D001B6803F48063002BF0D100E000BF7B68EA
S31508002D101B6803F00803002B41D07B685B69002B16
S31508002D201CD0194BD3F89430174A43F00103C2F864
S31508002D309430FEF7DFFF386108E0FEF7DBFF024656
S31508002D403B69D31A022B01D90323E7E10E4BD3F8CB
S31508002D50943003F00203002BEFD020E00A4BD3F89F
S31508002D609430094A23F00103C2F89430FEF7C2FFF3
S31508002D7038610DE0FEF7BEFF02463B69D31A022B07
S31508002D8006D90323CAE100BF00100240080000204C
S31508002D908C4BD3F8943003F00203002BEAD17B68FE
S31508002DA01B6803F00403002B00F0A6800023FB77C2
S31508002DB0844B9B6D03F08053002B01D1012300E067
S31508002DC00023002B0DD07F4B9B6D7E4A43F080532A
S31508002DD093657C4B9B6D03F08053FB60FB68012376
S31508002DE0FB77794B1B6803F48073002B18D1764B5D
S31508002DF01B68754A43F480731360FEF77BFF3861DE
S31508002E0008E0FEF777FF02463B69D31A022B01D981
S31508002E10032383E16C4B1B6803F48073002BF0D00B
S31508002E207B689B68012B08D1664BD3F89030654ABE
S31508002E3043F00103C2F8903024E07B689B68052BB9
S31508002E4010D1604BD3F890305E4A43F00403C2F8C1
S31508002E5090305C4BD3F890305A4A43F00103C2F8DD
S31508002E6090300FE0574BD3F89030564A23F00103C1
S31508002E70C2F89030534BD3F89030524A23F00403EB
S31508002E80C2F890307B689B68002B16D0FEF732FF9D
S31508002E9038610AE0FEF72EFF02463B69D31A41F273
S31508002EA08832934201D9032338E1464BD3F8903050
S31508002EB003F00203002BEDD015E0FEF71BFF386187
S31508002EC00AE0FEF717FF02463B69D31A41F2883239
S31508002ED0934201D9032321E13A4BD3F8903003F00A
S31508002EE00203002BEDD1FB7F012B05D1354B9B6DE2
S31508002EF0344A23F0805393657B681B6803F02003EC
S31508002F00002B3CD07B689B69002B1CD02D4BD3F83B
S31508002F1098302C4A43F00103C2F89830FEF7EAFECF
S31508002F20386108E0FEF7E6FE02463B69D31A022B33
S31508002F3001D90323F2E0234BD3F8983003F00203B8
S31508002F40002BEFD01BE01F4BD3F898301D4A23F017
S31508002F500103C2F89830FEF7CDFE386108E0FEF7A7
S31508002F60C9FE02463B69D31A022B01D90323D5E0D1
S31508002F70144BD3F8983003F00203002BEFD17B688B
S31508002F80DB69002B00F0C9800E4B9B6803F00C032D
S31508002F900C2B00F083807B68DB69022B5ED1094B22
S31508002FA01B68084A23F080731360FEF7A3FE386196
S31508002FB00CE0FEF79FFE02463B69D31A022B05D9A1
S31508002FC00323ABE00010024000700040554B1B681D
S31508002FD003F00073002BECD1524BDA68524B1340C6
S31508002FE07A68116A7A68526A013A120111437A6854
S31508002FF0926A120211437A68126B5208013A520514
S3150800300011437A68526B5208013A520611437A689C
S31508003010D26AD2060A4343491343CB60414B1B6825
S31508003020404A43F0807313603E4BDB683D4A43F0E9
S315080030308073D360FEF75EFE386108E0FEF75AFE3D
S3150800304002463B69D31A022B01D9032366E0354BA6
S315080030501B6803F00073002BF0D05EE0314B1B6851
S31508003060304A23F080731360FEF744FE386108E0A7
S31508003070FEF740FE02463B69D31A022B01D9032309
S315080030804CE0284B1B6803F00073002BF0D1254B4E
S31508003090DA682449254B1340CB603EE07B68DB6940
S315080030A0012B01D1012339E01E4BDB687B617B696B
S315080030B003F003027B681B6A9A422CD17B6903F0F2
S315080030C0F0027B685B6A013B1B019A4223D17B694C
S315080030D003F4FE427B689B6A1B029A421BD17B69FA
S315080030E003F078427B68DB6ADB069A4213D17B6978
S315080030F003F4C0027B681B6B5B08013B5B059A42C5
S3150800310009D17B6903F0C0627B685B6B5B08013B96
S315080031105B069A4201D0012300E0002318462037B7
S31508003120BD4680BD001002400C809F01FCFFEEFEEC
S3150800313080B586B000AF7860396000237B617B6814
S31508003140002B01D101231EE1914B1B6803F00F03ED
S315080031503A689A4210D98E4B1B6823F00F028C49A5
S315080031603B6813430B608A4B1B6803F00F033A68EE
S315080031709A4201D0012306E17B681B6803F001032C
S31508003180002B73D07B685B68032B29D1814B1B68A6
S3150800319003F00073002B01D10123F4E000F09EF93F
S315080031A038613B697C4A93423FD97A4B9B6803F066
S315080031B0F003002B09D07B681B6803F00203002B81
S315080031C033D07B689B68002B2FD1724B9B6823F00A
S315080031D0F003704A43F08003936080237B6124E008
S315080031E07B685B68022B07D16A4B1B6803F40033C4
S315080031F0002B09D10123C6E0664B1B6803F48063E4
S31508003200002B01D10123BEE000F0CEF838613B69FE
S31508003210614A934209D95F4B9B6823F0F0035D4AE4
S3150800322043F08003936080237B615A4B9B6823F0AD
S3150800323003027B685B68574913438B60FEF75AFDA8
S31508003240F8600AE0FEF756FD0246FB68D31A41F21B
S315080032508832934201D9032395E04E4B9B6803F0CD
S315080032600C027B685B689B009A42EBD17B681B6803
S3150800327003F00203002B23D07B681B6803F00403CA
S31508003280002B05D0434B9B68424A43F4E0639360A6
S315080032907B681B6803F00803002B07D03D4B9B682F
S315080032A023F47C533B4A43F4E0639360394B9B68B1
S315080032B023F0F0027B689B68364913438B6008E06D
S315080032C07B69802B05D1334B9B68324A23F0F00388
S315080032D093602F4B1B6803F00F033A689A421DD27E
S315080032E02B4B1B6823F00F0229493B6813430B60DD
S315080032F0FEF700FDF8600AE0FEF7FCFC0246FB68F4
S31508003300D31A41F28832934201D903233BE0204B7A
S315080033101B6803F00F033A689A42EDD17B681B6875
S3150800332003F00403002B08D01A4B9B6823F4E062D1
S315080033307B68DB68174913438B607B681B6803F05F
S315080033400803002B09D0134B9B6823F460527B6853
S315080033501B69DB000F4913438B6000F025F8024612
S315080033600C4B9B681B0903F00F030C49CB5C03F05D
S315080033701F0322FA03F30A4A13600A4B1B6818460E
S31508003380FEF76CFC034618461837BD4680BD00BFDD
S31508003390002002400010024000B4C404A4B400088F
S315080033A0040000200800002080B487B000AF2C4B32
S315080033B09B6803F00C03042B02D12A4B3B6147E0C0
S315080033C0274B9B6803F00C03082B02D1264B3B6165
S315080033D03EE0234B9B6803F00C030C2B36D1204BA5
S315080033E0DB6803F00303FB601D4BDB681B0903F076
S315080033F00F030133BB60FB68032B0CD11A4ABB6869
S31508003400B2FBF3F3164AD268120A02F07F0202FBF5
S3150800341003F37B610CE0134ABB68B2FBF3F3104A73
S31508003420D268120A02F07F0202FB03F37B6100BF37
S315080034300B4BDB685B0E03F0030301335B007B6019
S315080034407A697B68B2FBF3F33B6101E000233B61D9
S315080034503B6918461C37BD465DF8047B704700BFBC
S31508003460001002400024F40000127A0080B400AF75
S31508003470034B1B681846BD465DF8047B704700BFC2
S315080034800400002080B500AFFFF7F0FF0246064BA8
S315080034909B681B0A03F007030449CB5C03F01F0370
S315080034A022FA03F3184680BD00100240B4B400089F
S315080034B080B500AFFFF7DAFF0246064B9B68DB0ACA
S315080034C003F007030449CB5C03F01F0322FA03F356
S315080034D0184680BD00100240B4B4000880B487B016
S315080034E000AF1E4BDB6803F003033B611B4BDB6835
S315080034F01B0903F00F030133FB603B69032B0CD157
S31508003500174AFB68B2FBF3F3144AD268120A02F0B0
S315080035107F0202FB03F37B610CE0124AFB68B2FBF5
S31508003520F3F30E4AD268120A02F07F0202FB03F393
S315080035307B6100BF094BDB685B0E03F003030133B5
S315080035405B00BB607A69BB68B2FBF3F37B607B68A0
S3150800355018461C37BD465DF8047B704700100240CC
S3150800356000127A000024F40080B586B000AF7860B7
S315080035700023FB740023BB747B681B6803F40023D9
S31508003580002B00F0988000237B74434B9B6D03F05F
S315080035908053002B0DD1404B9B6D3F4A43F080531F
S315080035A093653D4B9B6D03F08053BB60BB6801235D
S315080035B07B743A4B1B68394A43F480731360FEF7F1
S315080035C099FBF86009E0FEF795FB0246FB68D31AFB
S315080035D0022B02D90323FB7405E0304B1B6803F466
S315080035E08073002BEFD0FB7C002B59D12A4BD3F8E4
S315080035F0903003F440737B617B69002B1ED07B6897
S315080036001B6C7A699A4219D0234BD3F8903023F46D
S3150800361040737B61204BD3F890301F4A43F48033C4
S31508003620C2F890301C4BD3F890301B4A23F48033F1
S31508003630C2F89030184A7B69C2F890307B6903F06B
S315080036400103002B16D0FEF755FBF8600BE0FEF7DA
S3150800365051FB0246FB68D31A41F28832934202D9DB
S315080036600323FB7406E00C4BD3F8903003F00203F7
S31508003670002BECD0FB7C002B0BD1074BD3F89030FA
S3150800368023F440727B681B6C03491343C1F89030DE
S3150800369008E0FB7CBB7405E00010024000700040A7
S315080036A0FB7CBB747B7C012B05D1A64B9B6DA54A85
S315080036B023F0805393657B681B6803F00103002B96
S315080036C00AD0A04BD3F8883023F003027B685B68E6
S315080036D09C491343C1F888307B681B6803F00203D2
S315080036E0002B0AD0974BD3F8883023F00C027B685E
S315080036F09B6894491343C1F888307B681B6803F0BC
S315080037000403002B0AD08F4BD3F8883023F03002FD
S315080037107B68DB688B491343C1F888307B681B6874
S3150800372003F00803002B0AD0864BD3F8883023F021
S31508003730C0027B681B6983491343C1F888307B68DC
S315080037401B6803F02003002B0AD07E4BD3F8883081
S3150800375023F440627B685B697A491343C1F8883071
S315080037607B681B6803F04003002B0AD0754BD3F81F
S31508003770883023F440527B689B6972491343C1F829
S3150800378088307B681B6803F08003002B0AD06D4BDA
S31508003790D3F8883023F440427B68DB6969491343D0
S315080037A0C1F888307B681B6803F48073002B0AD045
S315080037B0644BD3F8883023F440327B681B6A61492E
S315080037C01343C1F888307B681B6803F40073002B29
S315080037D00AD05C4BD3F8883023F440227B685B6AB6
S315080037E058491343C1F888307B681B6803F4806323
S315080037F0002B15D0534BD3F8883023F440127B683E
S315080038009B6A50491343C1F888307B689B6AB3F5B5
S31508003810801F05D14B4BDB684A4A43F48013D360BB
S315080038207B681B6803F40063002B15D0454BD3F85F
S31508003830883023F440027B68DB6A42491343C1F8A7
S3150800384088307B68DB6AB3F5800F05D13D4BDB68B2
S315080038503C4A43F48013D3607B681B6803F48053A7
S31508003860002B15D0374BD3F8883023F040727B688D
S315080038701B6B34491343C1F888307B681B6BB3F163
S31508003880807F05D12F4BDB682E4A43F48013D36023
S315080038907B681B6803F40053002B15D0294BD3F81B
S315080038A0883023F040627B685B6B26491343C1F876
S315080038B088307B685B6BB3F1006F05D1214BDB6801
S315080038C0204A43F48013D3607B681B6803F4804363
S315080038D0002B15D01B4BD3F8883023F040627B6849
S315080038E09B6B18491343C1F888307B689B6BB3F10F
S315080038F0006F05D1134BDB68124A43F48013D3607B
S315080039007B681B6803F40043002B15D00D4BD3F8D6
S31508003910883023F040527B68DB6B0A491343C1F8B1
S3150800392088307B68DB6BB3F1805F05D1054BDB68BC
S31508003930044A43F48033D360BB7C18461837BD4627
S3150800394080BD00BF0010024080B582B000AF78602D
S315080039507B68002B01D1012354E07B6893F83D3046
S31508003960DBB2002B11D17B68002283F83C207868F3
S3150800397001F0F6FA7B68DB6C002B02D17B68234AE0
S31508003980DA647B68DB6C786898477B68022283F880
S315080039903D207B681A687B6804331946104600F098
S315080039A053FE7B68012283F848207B68012283F84E
S315080039B03E207B68012283F83F207B68012283F83A
S315080039C040207B68012283F841207B68012283F826
S315080039D042207B68012283F843207B68012283F812
S315080039E044207B68012283F845207B68012283F8FE
S315080039F046207B68012283F847207B68012283F8EA
S31508003A003D20002318460837BD4680BD85180008A6
S31508003A1080B485B000AF78607B6893F83D30DBB240
S31508003A20012B01D0012342E07B68022283F83D2066
S31508003A307B681B68214A934218D07B681B68B3F1E0
S31508003A40804F13D07B681B681D4A93420ED07B6853
S31508003A501B681C4A934209D07B681B681A4A934222
S31508003A6004D07B681B68194A934215D17B681B688A
S31508003A709A68174B1340FB60FB68062B15D0FB684A
S31508003A80B3F5803F11D07B681B681A687B681B6892
S31508003A9042F001021A6008E07B681B681A687B68B6
S31508003AA01B6842F001021A6000E000BF00231846B6
S31508003AB01437BD465DF8047B704700BF002C0140F3
S31508003AC00004004000080040003401400040014066
S31508003AD00700010080B485B000AF78607B6893F872
S31508003AE03D30DBB2012B01D001234AE07B6802227C
S31508003AF083F83D207B681B68DA687B681B6842F0A0
S31508003B000102DA607B681B68214A934218D07B68F9
S31508003B101B68B3F1804F13D07B681B681D4A93421C
S31508003B200ED07B681B681C4A934209D07B681B68C9
S31508003B301A4A934204D07B681B68194A934215D1E6
S31508003B407B681B689A68174B1340FB60FB68062B5B
S31508003B5015D0FB68B3F5803F11D07B681B681A68DF
S31508003B607B681B6842F001021A6008E07B681B68E4
S31508003B701A687B681B6842F001021A6000E000BF01
S31508003B80002318461437BD465DF8047B704700BF0E
S31508003B90002C0140000400400008004000340140A9
S31508003BA0004001400700010080B582B000AF786090
S31508003BB07B68002B01D1012354E07B6893F83D30E4
S31508003BC0DBB2002B11D17B68002283F83C20786891
S31508003BD001F0C6F97B685B6E002B02D17B68234A2D
S31508003BE05A667B685B6E786898477B68022283F81A
S31508003BF03D207B681A687B6804331946104600F036
S31508003C0023FD7B68012283F848207B68012283F81C
S31508003C103E207B68012283F83F207B68012283F8D7
S31508003C2040207B68012283F841207B68012283F8C3
S31508003C3042207B68012283F843207B68012283F8AF
S31508003C4044207B68012283F845207B68012283F89B
S31508003C5046207B68012283F847207B68012283F887
S31508003C603D20002318460837BD4680BD713C000834
S31508003C7080B483B000AF786000BF0C37BD465DF8EE
S31508003C80047B704780B584B000AF786039603B68C4
S31508003C90002B09D17B6893F83E30DBB2012B14BFA9
S31508003CA001230023DBB23CE03B68042B09D17B6887
S31508003CB093F83F30DBB2012B14BF01230023DBB29C
S31508003CC02FE03B68082B09D17B6893F84030DBB2BC
S31508003CD0012B14BF01230023DBB222E03B680C2B27
S31508003CE009D17B6893F84130DBB2012B14BF01235D
S31508003CF00023DBB215E03B68102B09D17B6893F8EB
S31508003D004230DBB2012B14BF01230023DBB208E0EB
S31508003D107B6893F84330DBB2012B14BF01230023E1
S31508003D20DBB2002B01D0012397E03B68002B04D1BE
S31508003D307B68022283F83E2023E03B68042B04D1EB
S31508003D407B68022283F83F201BE03B68082B04D1DE
S31508003D507B68022283F8402013E03B680C2B04D1D1
S31508003D607B68022283F841200BE03B68102B04D1C4
S31508003D707B68022283F8422003E07B68022283F8EC
S31508003D8043207B681B6801223968184601F0C3F88E
S31508003D907B681B68334A934213D07B681B68324A98
S31508003DA093420ED07B681B68304A934209D07B68E1
S31508003DB01B682F4A934204D07B681B682D4A93429E
S31508003DC001D1012300E00023002B07D07B681B6884
S31508003DD05A6C7B681B6842F400425A647B681B680D
S31508003DE0204A934218D07B681B68B3F1804F13D0E2
S31508003DF07B681B68204A93420ED07B681B681F4A63
S31508003E00934209D07B681B68174A934204D07B68A3
S31508003E101B68164A934215D17B681B689A68184B2B
S31508003E201340FB60FB68062B15D0FB68B3F5803F93
S31508003E3011D07B681B681A687B681B6842F0010210
S31508003E401A6008E07B681B681A687B681B6842F082
S31508003E5001021A6000E000BF002318461037BD466D
S31508003E6080BD00BF002C01400034014000400140E5
S31508003E70004401400048014000040040000800409A
S31508003E800700010080B584B000AF78607B681B68C6
S31508003E90DB68FB607B681B681B69BB60BB6803F05B
S31508003EA00203002B26D0FB6803F00203002B21D067
S31508003EB07B681B686FF002021A617B6801221A7719
S31508003EC07B681B689B6903F00303002B05D07B689E
S31508003ED0D3F894307868984709E07B68D3F89C3023
S31508003EE0786898477B68D3F8A030786898477B68E5
S31508003EF000221A77BB6803F00403002B26D0FB6860
S31508003F0003F00403002B21D07B681B686FF00402C2
S31508003F101A617B6802221A777B681B689B6903F41F
S31508003F204073002B05D07B68D3F89430786898479F
S31508003F3009E07B68D3F89C30786898477B68D3F8A3
S31508003F40A030786898477B6800221A77BB6803F028
S31508003F500803002B26D0FB6803F00803002B21D0AA
S31508003F607B681B686FF008021A617B6804221A775F
S31508003F707B681B68DB6903F00303002B05D07B68AD
S31508003F80D3F894307868984709E07B68D3F89C3072
S31508003F90786898477B68D3F8A030786898477B6834
S31508003FA000221A77BB6803F01003002B26D0FB68A3
S31508003FB003F01003002B21D07B681B686FF01002FA
S31508003FC01A617B6808221A777B681B68DB6903F429
S31508003FD04073002B05D07B68D3F8943078689847EF
S31508003FE009E07B68D3F89C30786898477B68D3F8F3
S31508003FF0A030786898477B6800221A77BB6803F078
S315080040000103002B0ED0FB6803F00103002B09D037
S315080040107B681B686FF001021A617B68D3F88430ED
S3150800402078689847BB6803F08003002B04D1BB6807
S3150800403003F40053002B0ED0FB6803F08003002B1B
S3150800404009D07B681B686FF402521A617B68D3F843
S31508004050B43078689847BB6803F48073002B0ED099
S31508004060FB6803F08003002B09D07B681B686FF49C
S3150800407080721A617B68D3F8B83078689847BB684D
S3150800408003F04003002B0ED0FB6803F04003002B1F
S3150800409009D07B681B686FF040021A617B68D3F809
S315080040A08C3078689847BB6803F02003002B0ED045
S315080040B0FB6803F02003002B09D07B681B686FF0B0
S315080040C020021A617B68D3F8AC3078689847BB68D9
S315080040D003F48013002B0ED0FB6803F48013002B27
S315080040E009D07B681B686FF480121A617B68D3F865
S315080040F0BC3078689847BB6803F40013002B0ED0D1
S31508004100FB6803F40013002B09D07B681B686FF467
S3150800411000121A617B68D3F8C03078689847BB6884
S3150800412003F48003002B0ED0FB6803F48003002BF6
S3150800413009D07B681B686FF480021A617B68D3F824
S31508004140C43078689847BB6803F40003002B0ED088
S31508004150FB6803F40003002B09D07B681B686FF427
S3150800416000021A617B68D3F8C8307868984700BFA0
S315080041701037BD4680BD000080B586B000AFF86038
S31508004180B9607A600023FB75FB6893F83C30012B15
S3150800419001D10223FFE0FB68012283F83C207B68FB
S315080041A0142B00F2F08001A252F823F00142000815
S315080041B087430008874300088743000841420008F0
S315080041C0874300088743000887430008834200089E
S315080041D0874300088743000887430008C34200084E
S315080041E087430008874300088743000805430008FB
S315080041F087430008874300088743000845430008AB
S31508004200FB681B68B968184600F0B4FAFB681B68B7
S315080042109A69FB681B6842F008029A61FB681B688A
S315080042209A69FB681B6822F004029A61FB681B689E
S315080042309969BB681A69FB681B680A439A61A5E015
S31508004240FB681B68B968184600F026FBFB681B6804
S315080042509A69FB681B6842F400629A61FB681B68EE
S315080042609A69FB681B6822F480629A61FB681B687E
S315080042709969BB681B691A02FB681B680A439A613D
S3150800428084E0FB681B68B968184600F091FBFB6878
S315080042901B68DA69FB681B6842F00802DA61FB688A
S315080042A01B68DA69FB681B6822F00402DA61FB689E
S315080042B01B68D969BB681A69FB681B680A43DA6117
S315080042C064E0FB681B68B968184600F0FBFBFB68EE
S315080042D01B68DA69FB681B6842F40062DA61FB68EE
S315080042E01B68DA69FB681B6822F48062DA61FB687E
S315080042F01B68D969BB681B691A02FB681B680A43F5
S31508004300DA6143E0FB681B68B968184600F066FC8A
S31508004310FB681B681A6DFB681B6842F008021A6581
S31508004320FB681B681A6DFB681B6822F004021A6595
S31508004330FB681B68196DBB681A69FB681B680A432A
S315080043401A6523E0FB681B68B968184600F0AAFCE2
S31508004350FB681B681A6DFB681B6842F400621A65E5
S31508004360FB681B681A6DFB681B6822F480621A6575
S31508004370FB681B68196DBB681B691A02FB681B681A
S315080043800A431A6502E00123FB7500BFFB68002299
S3150800439083F83C20FB7D18461837BD4680BD00BF14
S315080043A080B584B000AF786039600023FB737B6802
S315080043B093F83C30012B01D10223DEE07B68012211
S315080043C083F83C207B68022283F83D207B681B68C3
S315080043D09B68BB60BB6823F4441323F07703BB6078
S315080043E0BB6823F47F43BB607B681B68BA689A6026
S315080043F03B681B68634A934200F0A980614A93426E
S3150800440000F2AE80604A934200F0A1805E4A934271
S3150800441000F2A6805D4A934200F099805B4A934277
S3150800442000F29E805A4A934200F09180584A93427D
S3150800443000F29680B3F1101F00F08980B3F1101FC7
S3150800444000F28E80B3F5005F3ED0B3F5005F00F250
S315080044508780B3F5805F00F08680B3F5805F7FD8EC
S31508004460702B1AD0702B7BD8602B50D0602B77D846
S31508004470502B3CD0502B73D8402B58D0402B6FD89C
S31508004480302B64D0302B6BD8202B60D0202B67D8EC
S31508004490002B5CD0102B5AD062E07B6818683B680A
S315080044A099683B685A683B68DB6800F014FD7B68CE
S315080044B01B689B68BB60BB6843F07703BB607B687F
S315080044C01B68BA689A604FE07B6818683B68996809
S315080044D03B685A683B68DB6800F0FDFC7B681B6834
S315080044E09A687B681B6842F480429A603CE07B6865
S315080044F018683B6859683B68DB681A4600F038FC60
S315080045007B681B685021184600F0C8FC2CE07B68C5
S3150800451018683B6859683B68DB681A4600F07CFCFB
S315080045207B681B686021184600F0B8FC1CE07B68B5
S3150800453018683B6859683B68DB681A4600F018FC3F
S315080045407B681B684021184600F0A8FC0CE07B68D5
S315080045501A683B681B681946104600F09FFC03E082
S315080045600123FB7300E000BF7B68012283F83D202E
S315080045707B68002283F83C20FB7B18461037BD4633
S3150800458080BD00BF70001000400010003000100011
S315080045902000100080B483B000AF786000BF0C37ED
S315080045A0BD465DF8047B704780B483B000AF786081
S315080045B000BF0C37BD465DF8047B704780B483B0F6
S315080045C000AF786000BF0C37BD465DF8047B7047C6
S315080045D080B483B000AF786000BF0C37BD465DF885
S315080045E0047B704780B483B000AF786000BF0C3797
S315080045F0BD465DF8047B704780B483B000AF786031
S3150800460000BF0C37BD465DF8047B704780B483B0A5
S3150800461000AF786000BF0C37BD465DF8047B704775
S3150800462080B483B000AF786000BF0C37BD465DF834
S31508004630047B704780B483B000AF786000BF0C3746
S31508004640BD465DF8047B704780B485B000AF7860DE
S3150800465039607B681B68FB607B683F4A93420FD0D2
S315080046607B68B3F1804F0BD07B683C4A934207D0F6
S315080046707B683B4A934203D07B683A4A934208D107
S31508004680FB6823F07003FB603B685B68FA681343BA
S31508004690FB607B68304A93421BD07B68B3F1804F3E
S315080046A017D07B682D4A934213D07B682C4A9342D5
S315080046B00FD07B682B4A93420BD07B682A4A9342D9
S315080046C007D07B68294A934203D07B68284A9342DD
S315080046D008D1FB6823F44073FB603B68DB68FA6823
S315080046E01343FB60FB6823F080023B685B69134356
S315080046F0FB603B689A687B68DA623B681A687B6885
S315080047009A627B68144A93420FD07B68154A934293
S315080047100BD07B68144A934207D07B68134A9342AE
S3150800472003D07B68124A934203D13B681A697B68B7
S315080047301A637B681B6843F004027B681A607B680F
S3150800474001225A617B68FA681A6000BF1437BD46B1
S315080047505DF8047B704700BF002C01400004004050
S315080047600008004000340140004001400044014078
S315080047700048014080B487B000AF786039607B6834
S315080047801B6A7B617B681B6A23F001027B681A62DD
S315080047907B685B683B617B689B69FB60FB6823F40D
S315080047A0803323F07003FB60FB6823F00303FB6090
S315080047B03B681B68FA681343FB607B6923F00203B6
S315080047C07B613B689B687A6913437B617B682D4AEA
S315080047D093420FD07B682C4A93420BD07B682B4AB6
S315080047E0934207D07B682A4A934203D07B68294ABA
S315080047F093420ED17B681B6A23F004027B681A6217
S315080048007B6923F008037B613B68DB687A6913439D
S315080048107B617B681B4A93420FD07B681A4A934296
S315080048200BD07B68194A934207D07B68184A934293
S3150800483003D07B68174A934211D13B6923F48073EE
S315080048403B613B6923F400733B613B685B693A69EA
S3150800485013433B613B689B693A6913433B617B6839
S315080048603A695A607B68FA689A613B685A687B6855
S315080048705A637B687A691A6200BF1C37BD465DF8C1
S31508004880047B7047002C0140003401400040014081
S31508004890004401400048014080B487B000AF78600A
S315080048A039607B681B6A7B617B681B6A23F0100290
S315080048B07B681A627B685B683B617B689B69FB6007
S315080048C0FB6823F0807323F4E043FB60FB6823F462
S315080048D04073FB603B681B681B02FA681343FB6066
S315080048E07B6923F020037B613B689B681B017A691F
S315080048F013437B617B68294A934203D07B68284A25
S3150800490093420FD17B681B6A23F040027B681A62C8
S315080049107B6923F080037B613B68DB681B017A694E
S3150800492013437B617B681D4A93420FD07B681C4A00
S3150800493093420BD07B681B4A934207D07B681A4A7E
S31508004940934203D07B68194A934213D13B6923F4F7
S3150800495080633B613B6923F400633B613B685B69A9
S315080049609B003A6913433B613B689B699B003A6924
S3150800497013433B617B683A695A607B68FA689A61B7
S315080049803B685A687B689A637B687A691A6200BFD3
S315080049901C37BD465DF8047B704700BF002C0140FC
S315080049A000340140004001400044014000480140F5
S315080049B080B487B000AF786039607B681B6A7B611A
S315080049C07B681B6A23F480727B681A627B685B6863
S315080049D03B617B68DB69FB60FB6823F4803323F06B
S315080049E07003FB60FB6823F00303FB603B681B68EE
S315080049F0FA681343FB607B6923F400737B613B68A9
S31508004A009B681B027A6913437B617B68284A934239
S31508004A1003D07B68274A93420FD17B681B6A23F42D
S31508004A2080627B681A627B6923F400637B613B685A
S31508004A30DB681B027A6913437B617B681C4A9342D5
S31508004A400FD07B681B4A93420BD07B681A4A934265
S31508004A5007D07B68194A934203D07B68184A934269
S31508004A6013D13B6923F480533B613B6923F400531C
S31508004A703B613B685B691B013A6913433B613B68D1
S31508004A809B691B013A6913433B617B683A695A6023
S31508004A907B68FA68DA613B685A687B68DA637B6820
S31508004AA07A691A6200BF1C37BD465DF8047B7047F9
S31508004AB0002C014000340140004001400044014000
S31508004AC00048014080B487B000AF786039607B68E1
S31508004AD01B6A7B617B681B6A23F480527B681A62B7
S31508004AE07B685B683B617B68DB69FB60FB6823F07E
S31508004AF0807323F4E043FB60FB6823F44073FB6098
S31508004B003B681B681B02FA681343FB607B6923F446
S31508004B1000537B613B689B681B037A6913437B617F
S31508004B207B68294A934203D07B68284A93420FD16F
S31508004B307B681B6A23F480427B681A627B6923F4CC
S31508004B4000437B613B68DB681B037A6913437B611F
S31508004B507B681D4A93420FD07B681C4A93420BD050
S31508004B607B681B4A934207D07B681A4A934203D054
S31508004B707B68194A934213D13B6923F480433B610E
S31508004B803B6923F400433B613B685B699B013A69D7
S31508004B9013433B613B689B699B013A6913433B613D
S31508004BA07B683A695A607B68FA68DA613B685A68D2
S31508004BB07B681A647B687A691A6200BF1C37BD462F
S31508004BC05DF8047B704700BF002C014000340140AB
S31508004BD000400140004401400048014080B487B0CD
S31508004BE000AF786039607B681B6A3B617B681B6A2B
S31508004BF023F480327B681A627B685B687B617B681A
S31508004C001B6DFB60FB6823F4803323F07003FB60A5
S31508004C103B681B68FA681343FB603B6923F400335F
S31508004C203B613B689B681B043A6913433B617B689D
S31508004C30174A93420FD07B68164A93420BD07B687B
S31508004C40154A934207D07B68144A934203D07B687F
S31508004C50134A934209D17B6923F480337B613B680D
S31508004C605B691B027A6913437B617B687A695A60C0
S31508004C707B68FA681A653B685A687B689A647B6839
S31508004C803A691A6200BF1C37BD465DF8047B704757
S31508004C90002C01400034014000400140004401401E
S31508004CA00048014080B487B000AF786039607B68FF
S31508004CB01B6A3B617B681B6A23F480127B681A6255
S31508004CC07B685B687B617B681B6DFB60FB6823F018
S31508004CD0807323F4E043FB603B681B681B02FA6899
S31508004CE01343FB603B6923F400133B613B689B68F5
S31508004CF01B053A6913433B617B68184A93420FD0F8
S31508004D007B68174A93420BD07B68164A934207D0B2
S31508004D107B68154A934203D07B68144A934209D1AB
S31508004D207B6923F480237B613B685B699B027A6914
S31508004D3013437B617B687A695A607B68FA681A65EF
S31508004D403B685A687B68DA647B683A691A6200BF0E
S31508004D501C37BD465DF8047B704700BF002C014038
S31508004D600034014000400140004401400048014031
S31508004D7080B487B000AFF860B9607A60FB681B6AD8
S31508004D807B61FB681B6A23F00102FB681A62FB68F9
S31508004D901C4A93420FD0FB681B4A93420BD0FB6810
S31508004DA01A4A934207D0FB68194A934203D0FB6814
S31508004DB0184A934205D1FB681B6A23F00402FB6874
S31508004DC01A62FB689B693B613B6923F0F0033B6110
S31508004DD07B681B013A6913433B617B6923F00A032D
S31508004DE07B617A69BB6813437B61FB683A699A61A0
S31508004DF0FB687A691A6200BF1C37BD465DF8047BFA
S31508004E00704700BF002C01400034014000400140BB
S31508004E10004401400048014080B487B000AFF86004
S31508004E20B9607A60FB681B6A7B61FB681B6A23F0C2
S31508004E301002FB681A62FB68164A934203D0FB68A5
S31508004E40154A934205D1FB681B6A23F04002FB68AA
S31508004E501A62FB689B693B613B6923F470433B61BB
S31508004E607B681B033A6913433B617B6923F0A00304
S31508004E707B61BB681B017A6913437B61FB683A69EE
S31508004E809A61FB687A691A6200BF1C37BD465DF8ED
S31508004E90047B7047002C01400034014080B485B083
S31508004EA000AF786039607B689B68FB60FB6823F419
S31508004EB0401323F07003FB603A68FB68134343F022
S31508004EC00703FB607B68FA689A6000BF1437BD4623
S31508004ED05DF8047B704780B487B000AFF860B960AE
S31508004EE07A603B60FB689B687B617B6923F47F4340
S31508004EF07B613B681A027B681A43BB6813437A696D
S31508004F0013437B61FB687A699A6000BF1C37BD460C
S31508004F105DF8047B704780B487B000AFF860B9606D
S31508004F207A60BB6803F01F03012202FA03F37B6170
S31508004F30FB681A6A7B69DB431A40FB681A62FB68DE
S31508004F401A6ABB6803F01F03796801FA03F31A4368
S31508004F50FB681A6200BF1C37BD465DF8047B7047C4
S31508004F6080B483B000AF78607B68264AC3F8842093
S31508004F707B68254AC3F888207B68244AC3F88C20B6
S31508004F807B68234AC3F890207B68224AC3F894209A
S31508004F907B68214AC3F898207B68204AC3F89C207E
S31508004FA07B681F4AC3F8A0207B681E4AC3F8A42062
S31508004FB07B681D4AC3F8A8207B681C4AC3F8AC2046
S31508004FC07B681B4AC3F8B0207B681A4AC3F8B4202A
S31508004FD07B68194AC3F8B8207B68184AC3F8BC200E
S31508004FE07B68174AC3F8C0207B68164AC3F8C420F2
S31508004FF07B68154AC3F8C82000BF0C37BD465DF864
S31508005000047B704759140008954500080D460008AA
S3150800501021460008BD450008D1450008A9450008F5
S31508005020E5450008F9450008354600088155000899
S3150800503095550008A9550008BD550008D155000822
S31508005040E5550008F95500080D56000880B584B0E6
S3150800505000AF786039603B68002B09D17B6893F80C
S315080050604430DBB2012B14BF01230023DBB222E05C
S315080050703B68042B09D17B6893F84530DBB2012BDA
S3150800508014BF01230023DBB215E03B68082B09D1C6
S315080050907B6893F84630DBB2012B14BF012300234B
S315080050A0DBB208E07B6893F84730DBB2012B14BF0C
S315080050B001230023DBB2002B01D0012369E03B6802
S315080050C0002B04D17B68022283F8442013E03B6856
S315080050D0042B04D17B68022283F845200BE03B6849
S315080050E0082B04D17B68022283F8462003E07B68FC
S315080050F0022283F847207B681B6804223968184611
S3150800510000F08EFA7B681B685A6C7B681B6842F451
S3150800511000425A647B681B68204A934218D07B6811
S315080051201B68B3F1804F13D07B681B681C4A9342F7
S315080051300ED07B681B681B4A934209D07B681B68A4
S31508005140194A934204D07B681B68184A934215D1C2
S315080051507B681B689A68164B1340FB60FB68062B36
S3150800516015D0FB68B3F5803F11D07B681B681A68B9
S315080051707B681B6842F001021A6008E07B681B68BE
S315080051801A687B681B6842F001021A6000E000BFDB
S31508005190002318461037BD4680BD00BF002C0140CD
S315080051A0000400400008004000340140004001406F
S315080051B00700010080B485B000AF786039607B686D
S315080051C093F83C30012B01D1022365E07B6801226C
S315080051D083F83C207B68022283F83D207B681B68A5
S315080051E05B68FB607B681B689B68BB607B681B68A9
S315080051F02C4A934204D07B681B682B4A934208D1F9
S31508005200FB6823F47003FB603B685B68FA6813432A
S31508005210FB60FB6823F0007323F07003FB603B68B8
S315080052201B68FA681343FB607B681B68FA685A6058
S315080052307B681B681B4A934218D07B681B68B3F1CE
S31508005240804F13D07B681B68184A93420ED07B6840
S315080052501B68174A934209D07B681B68124A934217
S3150800526004D07B681B68134A93420CD1BB6823F0B1
S315080052708003BB603B689B68BA681343BB607B6866
S315080052801B68BA689A607B68012283F83D207B68B0
S31508005290002283F83C20002318461437BD465DF8E3
S315080052A0047B7047002C0140003401400004004094
S315080052B0000800400040014080B485B000AF786027
S315080052C039600023FB607B6893F83C30012B01D1E1
S315080052D0022373E07B68012283F83C20FB6823F0F5
S315080052E0FF023B68DB681343FB60FB6823F44072EC
S315080052F03B689B681343FB60FB6823F480623B684A
S315080053005B681343FB60FB6823F400623B681B6819
S315080053101343FB60FB6823F480523B681B69134305
S31508005320FB60FB6823F400523B685B691343FB6030
S31508005330FB6823F480423B681B6B1343FB60FB68E6
S3150800534023F470223B689B691B041343FB60FB68CC
S3150800535023F080523B68DB691343FB607B681B685C
S31508005360194A934204D07B681B68184A93421CD199
S31508005370FB6823F470023B689B6A1B051343FB60BA
S31508005380FB6823F080723B681B6A1343FB60FB686B
S3150800539023F000723B685B6A1343FB60FB6823F0EB
S315080053A000523B68DB6A1343FB607B681B68FA683C
S315080053B05A647B68002283F83C2000231846143779
S315080053C0BD465DF8047B7047002C0140003401405F
S315080053D080B48BB000AFF860B9607A60002387F8B4
S315080053E02730FB6893F83C30012B01D10223C1E03A
S315080053F0FB68012283F83C207B681B68013B0F2B66
S3150800540054D801A252F823F0495400085D54000804
S31508005410AD54000871540008AD540008AD54000896
S31508005420AD54000885540008AD540008AD54000872
S31508005430AD540008AD540008AD540008AD5400083A
S31508005440AD5400089954000801233B620023BB6150
S315080054504FF40073FB6109237B6130E002233B6252
S315080054600123BB614FF48063FB610A237B6126E05D
S3150800547004233B620223BB614FF40063FB610B23E9
S315080054807B611CE008233B620323BB614FF4805316
S31508005490FB610C237B6112E010233B620423BB6192
S315080054A04FF40053FB610D237B6108E000233B6248
S315080054B00023FB610023BB6100237B6100BFBB683F
S315080054C0012B03D0BB68022B25D049E0FB681B687B
S315080054D01B6E3B613B6ADB433A6913403B617B6861
S315080054E05A68BB699A403B6A13403A6913433B6161
S315080054F0FB69DB433A6913403B617B689A687B69C1
