S01B000053544D333247343331434254365F4D6F746F722E7372656352
S31508000000008000204D050008D1030008D903000828
S31508000010E1030008E9030008F103000800000000F6
S31508000020000000000000000000000000F9030008BE
S31508000030070400080000000015040008230400084F
S315080000409D0500089D0500089D0500089D050008FA
S315080000509D0500089D0500089D0500089D050008EA
S315080000609D0500089D0500089D0500089D050008DA
S315080000709D0500089D0500089D0500089D050008CA
S315080000809D050008000000009D0500089D05000864
S315080000909D0500089D0500089D0500089D050008AA
S315080000A09D0500089D0500089D0500089D0500089A
S315080000B09D0500089D0500089D0500089D0500088A
S315080000C09D0500089D0500089D0500089D0500087A
S315080000D09D0500089D0500089D0500089D0500086A
S315080000E09D0500089D0500089D0500089D0500085A
S315080000F09D0500089D0500089D05000800000000F4
S31508000100000000009D050008000000009D0500088D
S315080001109D05000800000000310400089D05000840
S315080001209D0500089D0500089D0500089D05000819
S315080001309D05000800000000000000009D0500085D
S315080001409D0500089D05000800000000000000004D
S315080001500000000000000000000000000000000091
S315080001600000000000000000000000009D050008D7
S315080001709D050008000000000000000000000000C7
S31508000180000000009D0500080000000000000000B7
S315080001900000000000000000000000000000000051
S315080001A000000000000000009D0500089D050008ED
S315080001B09D0500089D0500089D0500080000000033
S315080001C0000000009D050008000000000000000077
S30D080001D09D0500089D050008C5
S315080001D810B5054C237833B9044B13B10448AFF36B
S315080001E800800123237010BD0C00002000000000C9
S315080001F80C21000808B5034B1BB103490348AFF3A4
S31508000208008008BD00000000100000200C2100082E
S3150800021880B588B000AF07F10C0300221A605A604F
S315080002289A60DA601A611E4BDB6C1D4A43F00403B8
S31508000238D3641B4BDB6C03F00403BB60BB68184B29
S31508000248DB6C174A43F02003D364154BDB6C03F0C9
S3150800025820037B607B68124BDB6C114A43F0010371
S31508000268D3640F4BDB6C03F001033B603B68012248
S315080002784FF400510B4800F0BDFC4FF40053FB60E7
S3150800028801233B6101237B610023BB6107F10C0352
S315080002981946044800F022FB00BF2037BD4680BD3A
S315080002A8001002400008004880B500AF00F073F956
S315080002B800F016F8FFF7ACFF00F0E8F8064801F07A
S315080002C8D9FA4FF4FA7000F0D7F94FF400510348F9
S315080002D800F0A8FC00BFF4E7280000200008004842
S315080002E880B594B000AF07F11803382200211846E4
S315080002F801F0DCFE3B1D00221A605A609A60DA603B
S315080003081A61002000F0A8FC0123BB614FF4803372
S31508000318FB6102237B630323BB630123FB63282357
S315080003283B6402237B640223BB640223FB6407F154
S315080003381803184600F044FD0346002B01D000F0C8
S3150800034818F80F237B600323BB600023FB60002398
S315080003583B6100237B613B1D0421184601F042F8E6
S315080003680346002B01D000F004F800BF5037BD46FD
S3150800037880BD80B400AF72B600BF00BFFDE70000BD
S3150800038880B582B000AF0F4B1B6E0E4A43F00103CF
S3150800039813660C4B1B6E03F001037B607B68094BE5
S315080003A89B6D084A43F080539365064B9B6D03F093
S315080003B880533B603B6800F0F3FC00BF0837BD4636
S315080003C880BD00BF0010024080B400AF00BFFDE743
S315080003D880B400AF00BFFDE780B400AF00BFFDE7FB
S315080003E880B400AF00BFFDE780B400AF00BFFDE7EB
S315080003F880B400AF00BFBD465DF8047B704780B483
S3150800040800AF00BFBD465DF8047B704780B400AFF7
S3150800041800BFBD465DF8047B704780B500AF00F0A5
S315080004280DF900BF80BD000080B500AF024801F095
S315080004388BFA00BF80BD00BF2800002080B582B0B7
S3150800044800AF78607B68064A934204D14FF400519E
S31508000458044800F0E7FB00BF0837BD4680BD00BF6B
S31508000468280000200008004880B400AF064BD3F8DF
S315080004788830054A43F47003C2F8883000BFBD4681
S315080004885DF8047B704700BF00ED00E080B584B0D6
S3150800049800AF3B1D00221A605A609A60144B154A31
S315080004A81A60134B9F225A60114B00229A60104B10
S315080004B86322DA600E4B80229A610D4801F076F9BC
S315080004C80346002B01D0FFF754FF00237B60002367
S315080004D8FB603B1D1946064801F016FD0346002B2E
S315080004E801D0FFF746FF00BF1037BD4680BD00BFE5
S315080004F8280000200010004080B584B000AF78605E
S315080005087B681B680D4A934213D10D4B9B6D0C4AA9
S3150800051843F0100393650A4B9B6D03F01003FB60C9
S31508000528FB6800220021362000F0A3F9362000F0E7
S31508000538BAF900BF1037BD4680BD00BF001000409D
S31508000548001002400D488546FFF78EFF0C480D49F6
S315080005580D4A002302E0D458C4500433C4188C4208
S31508000568F9D30A4A0A4C002301E013600432A2426E
S31508000578FBD301F0A3FDFFF797FEFEE700800020F6
S31508000588000000200C0000203C2100080C00002078
S31508000598F8000020FEE780B582B000AF0023FB71A3
S315080005A8032000F05BF90F2000F00EF80346002B35
S315080005B802D00123FB7101E0FFF7E2FEFB7918463A
S315080005C80837BD4680BD000080B584B000AF7860A6
S315080005D80023FB73164B1B68002B22D0154B1A6891
S315080005E8134B1B684FF47A71B1FBF3F3B2FBF3F3C1
S315080005F8184600F066F90346002B0FD17B680F2BC7
S3150800060809D8002279684FF0FF3000F032F90A4A13
S315080006187B68136007E00123FB7304E00123FB737F
S3150800062801E00123FB73FB7B18461037BD4680BDE6
S3150800063808000020000000200400002080B400AF55
S31508000648054B1A68054B1B681344034A136000BF19
S31508000658BD465DF8047B7047F400002008000020BA
S3150800066880B400AF034B1B681846BD465DF8047B8B
S31508000678704700BFF400002080B584B000AF7860EA
S31508000688FFF7EEFFB8607B68FB60FB68B3F1FF3FD6
S3150800069804D0094B1B68FA681344FB6000BFFFF7D0
S315080006A8DFFF0246BB68D31AFA689A42F7D800BF32
S315080006B800BF1037BD4680BD0800002080B485B04D
S315080006C800AF78607B6803F00703FB600C4BDB68B8
S315080006D8BB60BA684FF6FF031340BB60FB681A0293
S315080006E8BB68134343F0BF6343F40033BB60044A53
S315080006F8BB68D36000BF1437BD465DF8047B7047F6
S3150800070800ED00E080B400AF044BDB681B0A03F079
S3150800071807031846BD465DF8047B704700ED00E000
S3150800072880B483B000AF0346FB7197F90730002BF6
S315080007380BDBFB7903F01F02074997F907305B09BA
S31508000748012000FA02F241F8232000BF0C37BD4603
S315080007585DF8047B704700BF00E100E080B483B011
S3150800076800AF03463960FB7197F90730002B0ADB9F
S315080007783B68DAB20C4997F907301201D2B20B4432
S3150800078883F800230AE03B68DAB20849FB7903F0E4
S315080007980F03043B1201D2B20B441A7600BF0C377A
S315080007A8BD465DF8047B704700E100E000ED00E017
S315080007B880B489B000AFF860B9607A60FB6803F066
S315080007C80703FB61FB69C3F10703042B28BF04234E
S315080007D8BB61FB690433062B02D9FB69033B00E0BE
S315080007E800237B614FF0FF32BB6902FA03F3DA4351
S315080007F8BB681A407B699A404FF0FF317B6901FA5A
S3150800080803F3D9437B680B40134318462437BD4680
S315080008185DF8047B7047000080B582B000AF786049
S315080008287B68013BB3F1807F01D301230FE00A4AB5
S315080008387B68013B53600F214FF0FF30FFF78EFFAF
S31508000848054B00229A60044B07221A6000231846B3
S315080008580837BD4680BD00BF10E000E080B582B00D
S3150800086800AF78607868FFF729FF00BF0837BD46EC
S3150800087880BD80B586B000AF0346B9607A60FB7361
S31508000888FFF740FF78617A68B9687869FFF790FFDB
S31508000898024697F90F3011461846FFF75FFF00BF63
S315080008A81837BD4680BD80B582B000AF0346FB71D8
S315080008B897F907301846FFF733FF00BF0837BD46D4
S315080008C880BD80B582B000AF78607868FFF7A4FF6E
S315080008D8034618460837BD4680BD000080B487B071
S315080008E800AF7860396000237B6164E13B681A6869
S315080008F801217B6901FA03F31340FB60FB68002BAF
S3150800090800F056813B685B6803F00303012B05D0AA
S315080009183B685B6803F00303022B30D17B689B684E
S315080009283B617B695B00032202FA03F3DB433A69FE
S3150800093813403B613B68DA687B695B0002FA03F39C
S315080009483A6913433B617B683A699A607B685B68D6
S315080009583B6101227B6902FA03F3DB433A691340D8
S315080009683B613B685B681B0903F001027B6902FA75
S3150800097803F33A6913433B617B683A695A603B68F3
S315080009885B6803F00303032B09D13B685B6803F034
S315080009980303032B1BD13B689B68012B17D07B6885
S315080009A8DB683B617B695B00032202FA03F3DB43DE
S315080009B83A6913403B613B689A687B695B0002FAAF
S315080009C803F33A6913433B617B683A69DA603B6823
S315080009D85B6803F00303022B23D17B69DA087B687B
S315080009E8083253F822303B617B6903F007039B0002
S315080009F80F2202FA03F3DB433A6913403B613B686B
S31508000A081A697B6903F007039B0002FA03F33A693C
S31508000A1813433B617B69DA087B680832396943F80E
S31508000A2822107B681B683B617B695B00032202FA1C
S31508000A3803F3DB433A6913403B613B685B6803F0A1
S31508000A4803027B695B0002FA03F33A6913433B61C5
S31508000A587B683A691A603B685B6803F44033002B85
S31508000A6800F0A6805B4B1B6E5A4A43F001031366D7
S31508000A78584B1B6E03F00103BB60BB68564A7B697B
S31508000A889B08023352F823303B617B6903F0030362
S31508000A989B000F2202FA03F3DB433A6913403B61D2
S31508000AA87B68B3F1904F1FD07B684C4A934219D0A4
S31508000AB87B684B4A934213D07B684A4A93420DD0C7
S31508000AC87B68494A934207D07B68484A934201D1D2
S31508000AD805230AE0062308E0042306E0032304E0C6
S31508000AE8022302E0012300E000237A6902F00302E8
S31508000AF8920093403A6913433B6137497B699B08DF
S31508000B0802333A6941F82320394B9B683B61FB68F5
S31508000B18DB433A6913403B613B685B6803F480131F
S31508000B28002B03D03A69FB6813433B61304A3B699B
S31508000B3893602F4BDB683B61FB68DB433A691340DC
S31508000B483B613B685B6803F40013002B03D03A69E2
S31508000B58FB6813433B61264A3B69D360244B5B68B1
S31508000B683B61FB68DB433A6913403B613B685B685A
S31508000B7803F40033002B03D03A69FB6813433B613F
S31508000B881B4A3B6953601A4B1B683B61FB68DB438E
S31508000B983A6913403B613B685B6803F48033002B72
S31508000BA803D03A69FB6813433B61114A3B691360F2
S31508000BB87B6901337B613B681A687B6922FA03F310
S31508000BC8002B7FF493AE00BF00BF1C37BD465DF807
S31508000BD8047B7047001002400000014000040048EA
S31508000BE800080048000C0048001000480014004897
S31508000BF80004014080B483B000AF78600B467B8060
S31508000C0813467B707B78002B03D07A887B689A61B9
S31508000C1802E07A887B689A6200BF0C37BD465DF8A1
S31508000C28047B704780B485B000AF78600B467B803C
S31508000C387B685B69FB607A88FB6813401A04FB6863
S31508000C48D9437B880B401A437B689A6100BF1437DF
S31508000C58BD465DF8047B704780B485B000AF786000
S31508000C687B68002B41D14B4B1B6803F4C063B3F573
S31508000C78806F31D1474BD3F88030464A23F48073C6
S31508000C88C2F88030434B1B6823F4C063414A43F4D7
S31508000C9800731360404B1B68322202FB03F33F4A7A
S31508000CA8A2FB03239B0C0133FB6002E0FB68013BB4
S31508000CB8FB60384B5B6903F48063B3F5806F02D138
S31508000CC8FB68002BF2D1334B5B6903F48063B3F5F9
S31508000CD8806F58D1032357E02E4BD3F880302D4A1E
S31508000CE823F48073C2F880304DE07B68B3F5007F43
S31508000CF841D1284B1B6803F4C063B3F5806F31D123
S31508000D08244BD3F88030234A43F48073C2F88030E2
S31508000D18204B1B6823F4C0631E4A43F40073136010
S31508000D281D4B1B68322202FB03F31C4AA2FB032352
S31508000D389B0C0133FB6002E0FB68013BFB60154B2B
S31508000D485B6903F48063B3F5806F02D1FB68002BF7
S31508000D58F2D1104B5B6903F48063B3F5806F12D147
S31508000D68032311E00B4BD3F880300A4A43F4807307
S31508000D78C2F8803007E0074B1B6823F4C063054AAE
S31508000D8843F480631360002318461437BD465DF89C
S31508000D98047B7047007000400000002083DE1B4378
S31508000DA880B400AF054B9B68044A43F480439360BC
S31508000DB800BFBD465DF8047B704700BF0070004061
S31508000DC880B588B000AF78607B68002B01D1012315
S31508000DD8FEE27B681B6803F00103002B75D0974B6E
S31508000DE89B6803F00C03BB61944BDB6803F00303B1
S31508000DF87B61BB690C2B02D17B69032B02D0BB69CB
S31508000E08082B0BD18D4B1B6803F40033002B5BD0E2
S31508000E187B685B68002B57D10123D9E27B685B683E
S31508000E28B3F5803F06D1854B1B68844A43F4803363
S31508000E3813601DE07B685B68B3F5A02F0CD17F4B68
S31508000E481B687E4A43F4802313607C4B1B687B4AE5
S31508000E5843F4803313600BE0784B1B68774A23F416
S31508000E6880331360754B1B68744A23F48023136018
S31508000E787B685B68002B13D0FFF7F2FB386108E044
S31508000E88FFF7EEFB02463B69D31A642B01D9032305
S31508000E989EE26A4B1B6803F40033002BF0D014E07B
S31508000EA8FFF7DEFB386108E0FFF7DAFB02463B6925
S31508000EB8D31A642B01D903238AE2604B1B6803F40F
S31508000EC80033002BF0D100E000BF7B681B6803F0F5
S31508000ED80203002B75D0594B9B6803F00C03BB61C2
S31508000EE8564BDB6803F003037B61BB690C2B02D105
S31508000EF87B69022B02D0BB69042B1FD14F4B1B6899
S31508000F0803F48063002B05D07B68DB68002B01D1CE
S31508000F1801235DE2494B5B6823F0FE427B681B6947
S31508000F281B06464913434B60454B1B681846FFF793
S31508000F384BFB0346002B43D0012349E27B68DB6859
S31508000F48002B23D03D4B1B683C4A43F4807313603F
S31508000F58FFF786FB386108E0FFF782FB02463B6924
S31508000F68D31A022B01D9032332E2344B1B6803F444
S31508000F788063002BF0D0314B5B6823F0FE427B6818
S31508000F881B691B062D4913434B601AE02B4B1B683C
S31508000F982A4A23F480731360FFF762FB386108E076
S31508000FA8FFF75EFB02463B69D31A022B01D90323D6
S31508000FB80EE2224B1B6803F48063002BF0D100E095
S31508000FC800BF7B681B6803F00803002B41D07B68C9
S31508000FD85B69002B1CD0194BD3F89430174A43F099
S31508000FE80103C2F89430FFF73BFB386108E0FFF7C6
S31508000FF837FB02463B69D31A022B01D90323E7E1DB
S315080010080E4BD3F8943003F00203002BEFD020E000
S315080010180A4BD3F89430094A23F00103C2F89430EE
S31508001028FFF71EFB38610DE0FFF71AFB02463B691E
S31508001038D31A022B06D90323CAE100BF00100240BF
S31508001048040000208C4BD3F8943003F00203002BDD
S31508001058EAD17B681B6803F00403002B00F0A6801E
S315080010680023FB77844B9B6D03F08053002B01D13B
S31508001078012300E00023002B0DD07F4B9B6D7E4A91
S3150800108843F0805393657C4B9B6D03F08053FB605C
S31508001098FB680123FB77794B1B6803F48073002BE5
S315080010A818D1764B1B68754A43F480731360FFF7AB
S315080010B8D7FA386108E0FFF7D3FA02463B69D31A2C
S315080010C8022B01D9032383E16C4B1B6803F4807355
S315080010D8002BF0D07B689B68012B08D1664BD3F8A8
S315080010E89030654A43F00103C2F8903024E07B68E3
S315080010F89B68052B10D1604BD3F890305E4A43F0B5
S315080011080403C2F890305C4BD3F890305A4A43F03F
S315080011180103C2F890300FE0574BD3F89030564A7F
S3150800112823F00103C2F89030534BD3F89030524A53
S3150800113823F00403C2F890307B689B68002B16D00E
S31508001148FFF78EFA38610AE0FFF78AFA02463B6922
S31508001158D31A41F28832934201D9032338E1464B20
S31508001168D3F8903003F00203002BEDD015E0FFF713
S3150800117877FA38610AE0FFF773FA02463B69D31A29
S3150800118841F28832934201D9032321E13A4BD3F835
S31508001198903003F00203002BEDD1FB7F012B05D11C
S315080011A8354B9B6D344A23F0805393657B681B68DF
S315080011B803F02003002B3CD07B689B69002B1CD0CE
S315080011C82D4BD3F898302C4A43F00103C2F89830CF
S315080011D8FFF746FA386108E0FFF742FA02463B6924
S315080011E8D31A022B01D90323F2E0234BD3F89830FC
S315080011F803F00203002BEFD01BE01F4BD3F89830FF
S315080012081D4A23F00103C2F89830FFF729FA386116
S3150800121808E0FFF725FA02463B69D31A022B01D9DB
S315080012280323D5E0144BD3F8983003F00203002BB8
S31508001238EFD17B68DB69002B00F0C9800E4B9B68F1
S3150800124803F00C030C2B00F083807B68DB69022B08
S315080012585ED1094B1B68084A23F080731360FFF7B1
S31508001268FFF938610CE0FFF7FBF902463B69D31A28
S31508001278022B05D90323ABE000100240007000409A
S31508001288554B1B6803F00073002BECD1524BDA68F8
S31508001298524B13407A68116A7A68526A013A1201FF
S315080012A811437A68926A120211437A68126B5208D5
S315080012B8013A520511437A68526B5208013A5206A6
S315080012C811437A68D26AD2060A4343491343CB6064
S315080012D8414B1B68404A43F0807313603E4BDB68FA
S315080012E83D4A43F08073D360FFF7BAF9386108E0DE
S315080012F8FFF7B6F902463B69D31A022B01D903232D
S3150800130866E0354B1B6803F00073002BF0D05EE0EF
S31508001318314B1B68304A23F080731360FFF7A0F936
S31508001328386108E0FFF79CF902463B69D31A022B95
S3150800133801D903234CE0284B1B6803F00073002BE4
S31508001348F0D1254BDA682449254B1340CB603EE09B
S315080013587B68DB69012B01D1012339E01E4BDB6869
S315080013687B617B6903F003027B681B6A9A422CD16E
S315080013787B6903F0F0027B685B6A013B1B019A42B2
S3150800138823D17B6903F4FE427B689B6A1B029A4257
S315080013981BD17B6903F078427B68DB6ADB069A42D5
S315080013A813D17B6903F4C0027B681B6B5B08013B9E
S315080013B85B059A4209D17B6903F0C0627B685B6B5F
S315080013C85B08013B5B069A4201D0012300E0002333
S315080013D818462037BD4680BD001002400C809F0184
S315080013E8FCFFEEFE80B586B000AF78603960002352
S315080013F87B617B68002B01D101231EE1914B1B6899
S3150800140803F00F033A689A4210D98E4B1B6823F0EB
S315080014180F028C493B6813430B608A4B1B6803F021
S315080014280F033A689A4201D0012306E17B681B68D4
S3150800143803F00103002B73D07B685B68032B29D163
S31508001448814B1B6803F00073002B01D10123F4E0DC
S3150800145800F066F938613B697C4A93423FD97A4B72
S315080014689B6803F0F003002B09D07B681B6803F020
S315080014780203002B33D07B689B68002B2FD1724B55
S315080014889B6823F0F003704A43F080039360802337
S315080014987B6124E07B685B68022B07D16A4B1B6873
S315080014A803F40033002B09D10123C6E0664B1B68F9
S315080014B803F48063002B01D10123BEE000F0CEF8C7
S315080014C838613B69614A934209D95F4B9B6823F0A7
S315080014D8F0035D4A43F08003936080237B615A4B8F
S315080014E89B6823F003027B685B68574913438B6044
S315080014F8FFF7B6F8F8600AE0FFF7B2F80246FB68A5
S31508001508D31A41F28832934201D9032395E04E4B08
S315080015189B6803F00C027B685B689B009A42EBD1D8
S315080015287B681B6803F00203002B23D07B681B68C3
S3150800153803F00403002B05D0434B9B68424A43F447
S31508001548E06393607B681B6803F00803002B07D0E9
S315080015583D4B9B6823F47C533B4A43F4E063936012
S31508001568394B9B6823F0F0027B689B68364913431E
S315080015788B6008E07B69802B05D1334B9B68324A20
S3150800158823F0F00393602F4B1B6803F00F033A68A8
S315080015989A421DD22B4B1B6823F00F0229493B6838
S315080015A813430B60FFF75CF8F8600AE0FFF758F892
S315080015B80246FB68D31A41F28832934201D90323BB
S315080015C83BE0204B1B6803F00F033A689A42EDD1BB
S315080015D87B681B6803F00403002B08D01A4B9B682A
S315080015E823F4E0627B68DB68174913438B607B68E2
S315080015F81B6803F00803002B09D0134B9B6823F4D8
S3150800160860527B681B69DB000F4913438B6000F047
S3150800161825F802460C4B9B681B0903F00F030C4977
S31508001628CB5C03F01F0322FA03F30A4A13600A4B3A
S315080016381B681846FEF7C8FF034618461837BD46FE
S3150800164880BD00BF002002400010024000B4C40458
S3150800165824210008000000200400002080B487B078
S3150800166800AF2C4B9B6803F00C03042B02D12A4BC2
S315080016783B6147E0274B9B6803F00C03082B02D114
S31508001688264B3B613EE0234B9B6803F00C030C2B6F
S3150800169836D1204BDB6803F00303FB601D4BDB6880
S315080016A81B0903F00F030133BB60FB68032B0CD13E
S315080016B81A4ABB68B2FBF3F3164AD268120A02F052
S315080016C87F0202FB03F37B610CE0134ABB68B2FB9B
S315080016D8F3F3104AD268120A02F07F0202FB03F3F8
S315080016E87B6100BF0B4BDB685B0E03F0030301331A
S315080016F85B007B607A697B68B2FBF3F33B6101E0C8
S3150800170800233B613B6918461C37BD465DF8047BD8
S31508001718704700BF001002400024F40000127A0047
S3150800172880B487B000AF1E4BDB6803F003033B6148
S315080017381B4BDB681B0903F00F030133FB603B698E
S31508001748032B0CD1174AFB68B2FBF3F3144AD26889
S31508001758120A02F07F0202FB03F37B610CE0124ACD
S31508001768FB68B2FBF3F30E4AD268120A02F07F024C
S3150800177802FB03F37B6100BF094BDB685B0E03F0D2
S31508001788030301335B00BB607A69BB68B2FBF3F3FA
S315080017987B607B6818461C37BD465DF8047B704736
S315080017A80010024000127A000024F40080B582B0C6
S315080017B800AF78607B68002B01D1012354E07B6871
S315080017C893F83D30DBB2002B11D17B68002283F8F1
S315080017D83C20786800F022FB7B68DB6C002B02D182
S315080017E87B68234ADA647B68DB6C786898477B6889
S315080017F8022283F83D207B681A687B6804331946F9
S31508001808104600F075FA7B68012283F848207B6841
S31508001818012283F83E207B68012283F83F207B68F3
S31508001828012283F840207B68012283F841207B68DF
S31508001838012283F842207B68012283F843207B68CB
S31508001848012283F844207B68012283F845207B68B7
S31508001858012283F846207B68012283F847207B68A3
S31508001868012283F83D20002318460837BD4680BD67
S315080018780105000880B485B000AF78607B6893F8E6
S315080018883D30DBB2012B01D001234AE07B680222F6
S3150800189883F83D207B681B68DA687B681B6842F01A
S315080018A80102DA607B681B68214A934218D07B6874
S315080018B81B68B3F1804F13D07B681B681D4A934297
S315080018C80ED07B681B681C4A934209D07B681B6844
S315080018D81A4A934204D07B681B68194A934215D161
S315080018E87B681B689A68174B1340FB60FB68062BD6
S315080018F815D0FB68B3F5803F11D07B681B681A685A
S315080019087B681B6842F001021A6008E07B681B685E
S315080019181A687B681B6842F001021A6000E000BF7B
S31508001928002318461437BD465DF8047B704700BF88
S31508001938002C014000040040000800400034014023
S31508001948004001400700010080B584B000AF786008
S315080019587B681B68DB68FB607B681B681B69BB6068
S31508001968BB6803F00203002B26D0FB6803F00203CA
S31508001978002B21D07B681B686FF002021A617B680E
S3150800198801221A777B681B689B6903F00303002BFF
S3150800199805D07B68D3F894307868984709E07B685F
S315080019A8D3F89C30786898477B68D3F8A03078686D
S315080019B898477B6800221A77BB6803F00403002B54
S315080019C826D0FB6803F00403002B21D07B681B682C
S315080019D86FF004021A617B6802221A777B681B6813
S315080019E89B6903F44073002B05D07B68D3F89430C1
S315080019F87868984709E07B68D3F89C3078689847F0
S31508001A087B68D3F8A030786898477B6800221A77ED
S31508001A18BB6803F00803002B26D0FB6803F008030D
S31508001A28002B21D07B681B686FF008021A617B6857
S31508001A3804221A777B681B68DB6903F00303002B0B
S31508001A4805D07B68D3F894307868984709E07B68AE
S31508001A58D3F89C30786898477B68D3F8A0307868BC
S31508001A6898477B6800221A77BB6803F01003002B97
S31508001A7826D0FB6803F01003002B21D07B681B686F
S31508001A886FF010021A617B6808221A777B681B6850
S31508001A98DB6903F44073002B05D07B68D3F89430D0
S31508001AA87868984709E07B68D3F89C30786898473F
S31508001AB87B68D3F8A030786898477B6800221A773D
S31508001AC8BB6803F00103002B0ED0FB6803F0010383
S31508001AD8002B09D07B681B686FF001021A617B68C6
S31508001AE8D3F8843078689847BB6803F08003002BDE
S31508001AF804D1BB6803F40053002B0ED0FB6803F02F
S31508001B088003002B09D07B681B686FF402521A61A0
S31508001B187B68D3F8B43078689847BB6803F4807351
S31508001B28002B0ED0FB6803F08003002B09D07B68D6
S31508001B381B686FF480721A617B68D3F8B8307868C6
S31508001B489847BB6803F04003002B0ED0FB6803F0E8
S31508001B584003002B09D07B681B686FF040021A61A6
S31508001B687B68D3F88C3078689847BB6803F02003FD
S31508001B78002B0ED0FB6803F02003002B09D07B68E6
S31508001B881B686FF020021A617B68D3F8AC30786856
S31508001B989847BB6803F48013002B0ED0FB6803F440
S31508001BA88013002B09D07B681B686FF480121A61B2
S31508001BB87B68D3F8BC3078689847BB6803F4001389
S31508001BC8002B0ED0FB6803F40013002B09D07B68A2
S31508001BD81B686FF400121A617B68D3F8C0307868FE
S31508001BE89847BB6803F48003002B0ED0FB6803F400
S31508001BF88003002B09D07B681B686FF480021A6182
S31508001C087B68D3F8C43078689847BB6803F4000340
S31508001C18002B0ED0FB6803F40003002B09D07B6861
S31508001C281B686FF400021A617B68D3F8C8307868B5
S31508001C38984700BF1037BD4680BD80B483B000AF53
S31508001C48786000BF0C37BD465DF8047B704780B4E2
S31508001C5883B000AF786000BF0C37BD465DF8047BDB
S31508001C68704780B483B000AF786000BF0C37BD46B4
S31508001C785DF8047B704780B483B000AF786000BF16
S31508001C880C37BD465DF8047B704780B483B000AF57
S31508001C98786000BF0C37BD465DF8047B704780B492
S31508001CA883B000AF786000BF0C37BD465DF8047B8B
S31508001CB8704780B483B000AF786000BF0C37BD4664
S31508001CC85DF8047B704780B483B000AF786000BFC6
S31508001CD80C37BD465DF8047B704780B483B000AF07
S31508001CE8786000BF0C37BD465DF8047B7047000076
S31508001CF880B485B000AF786039607B681B68FB6084
S31508001D087B683F4A93420FD07B68B3F1804F0BD06C
S31508001D187B683C4A934207D07B683B4A934203D088
S31508001D287B683A4A934208D1FB6823F07003FB6044
S31508001D383B685B68FA681343FB607B68304A9342E2
S31508001D481BD07B68B3F1804F17D07B682D4A934226
S31508001D5813D07B682C4A93420FD07B682B4A934250
S31508001D680BD07B682A4A934207D07B68294A934254
S31508001D7803D07B68284A934208D1FB6823F440734A
S31508001D88FB603B68DB68FA681343FB60FB6823F073
S31508001D9880023B685B691343FB603B689A687B680B
S31508001DA8DA623B681A687B689A627B68144A9342C7
S31508001DB80FD07B68154A93420BD07B68144A934226
S31508001DC807D07B68134A934203D07B68124A93422A
S31508001DD803D13B681A697B681A637B681B6843F0FA
S31508001DE804027B681A607B6801225A617B68FA6874
S31508001DF81A6000BF1437BD465DF8047B704700BFFC
S31508001E08002C01400004004000080040003401404E
S31508001E1800400140004401400048014080B483B0B6
S31508001E2800AF78607B68264AC3F884207B68254A11
S31508001E38C3F888207B68244AC3F88C207B68234A21
S31508001E48C3F890207B68224AC3F894207B68214A05
S31508001E58C3F898207B68204AC3F89C207B681F4AE9
S31508001E68C3F8A0207B681E4AC3F8A4207B681D4ACD
S31508001E78C3F8A8207B681C4AC3F8AC207B681B4AB1
S31508001E88C3F8B0207B681A4AC3F8B4207B68194A95
S31508001E98C3F8B8207B68184AC3F8BC207B68174A79
S31508001EA8C3F8C0207B68164AC3F8C4207B68154A5D
S31508001EB8C3F8C82000BF0C37BD465DF8047B7047D9
S31508001EC845040008431C0008BB1C0008CF1C000872
S31508001ED86B1C00087F1C0008571C0008931C000888
S31508001EE8A71C0008E31C000815200008292000087C
S31508001EF83D200008512000086520000879200008C0
S31508001F088D200008A120000880B485B000AF78604D
S31508001F1839607B6893F83C30012B01D1022365E0D0
S31508001F287B68012283F83C207B68022283F83D20DF
S31508001F387B681B685B68FB607B681B689B68BB6083
S31508001F487B681B682C4A934204D07B681B682B4A1B
S31508001F58934208D1FB6823F47003FB603B685B680F
S31508001F68FA681343FB60FB6823F0007323F07003D9
S31508001F78FB603B681B68FA681343FB607B681B6851
S31508001F88FA685A607B681B681B4A934218D07B68B4
S31508001F981B68B3F1804F13D07B681B68184A9342B5
S31508001FA80ED07B681B68174A934209D07B681B6862
S31508001FB8124A934204D07B681B68134A93420CD191
S31508001FC8BB6823F08003BB603B689B68BA68134309
S31508001FD8BB607B681B68BA689A607B68012283F8CD
S31508001FE83D207B68002283F83C20002318461437D6
S31508001FF8BD465DF8047B7047002C0140003401405B
S3150800200800040040000800400040014080B483B046
S3150800201800AF786000BF0C37BD465DF8047B704793
S3150800202880B483B000AF786000BF0C37BD465DF852
S31508002038047B704780B483B000AF786000BF0C3764
S31508002048BD465DF8047B704780B483B000AF7860FE
S3150800205800BF0C37BD465DF8047B704780B483B073
S3150800206800AF786000BF0C37BD465DF8047B704743
S3150800207880B483B000AF786000BF0C37BD465DF802
S31508002088047B704780B483B000AF786000BF0C3714
S31508002098BD465DF8047B704780B483B000AF7860AE
S315080020A800BF0C37BD465DF8047B704702440346FB
S315080020B8934200D1704703F8011BF9E770B50D4B39
S315080020C80D4D5B1B9C100026A64209D100F01AF894
S315080020D80A4D0B4B5B1B9C100026A64205D170BD0A
S315080020E855F8043B98470136EEE755F8043B9847F8
S315080020F80136F2E7342100083421000834210008A3
S3150800210838210008F8B500BFF8BC08BC9E467047D9
S31108002118F8B500BFF8BC08BC9E4670472E
S315080021240000000000000000010203040607080975
S30908002134FD01000893
S30908002138D9010008B3
S3110800213C0024F400100000000100000060
S7050800054DA0
