:020000040800F2
:10000000008000203D040008650300086703000825
:10001000690300086B0300086D030008000000007E
:100020000000000000000000000000006F03000856
:100030007103000800000000730300087503000846
:100040008D0400088D0400088D0400088D0400084C
:100050008D0400088D0400088D0400088D0400083C
:100060008D0400088D0400088D0400088D0400082C
:100070008D0400088D0400088D0400088D0400081C
:100080008D040008000000008D0400088D040008A5
:100090008D0400088D0400088D0400088D040008FC
:1000A0008D0400088D0400088D0400088D040008EC
:1000B0008D0400088D0400088D0400088D040008DC
:1000C0008D0400088D0400088D0400088D040008CC
:1000D0008D0400088D0400088D0400088D040008BC
:1000E0008D0400088D0400088D0400088D040008AC
:1000F0008D0400088D0400088D0400080000000035
:10010000000000008D040008000000008D040008BD
:100110008D04000800000000790300088D04000829
:100120008D0400088D0400088D0400088D0400086B
:100130008D04000800000000000000008D0400088D
:100140008D0400088D04000800000000000000007D
:10015000000000000000000000000000000000009F
:100160000000000000000000000000008D040008F6
:100170008D040008000000000000000000000000E6
:10018000000000008D0400080000000000000000D6
:10019000000000000000000000000000000000005F
:1001A00000000000000000008D0400088D0400081D
:1001B0008D0400088D0400088D0400080000000074
:1001C000000000008D040008000000000000000096
:0801D0008D0400088D040008F5
:1001D80010B5054C237833B9044B13B10448AFF379
:1001E80000800123237010BD0C00002000000000D7
:1001F800F413000808B5034B1BB103490348AFF3D8
:10020800008008BD0000000010000020F413000862
:1002180000B589B01422002103A801F0BBF8184BDF
:100228001848DA6C42F00402DA64DA6C02F004026C
:100238000092009ADA6C42F02002DA64DA6C02F07A
:1002480020020192019ADA6C42F00102DA64DB6C56
:1002580003F00103029301224FF40051029B00F0C6
:10026800A3FA4FF400520123CDE90323059305486F
:10027800002303A9069300F0C9F909B000BD00BF27
:10028800001002400008004810B594B03822002140
:1002980006A801F07FF81422002101A801F07AF8DD
:1002A800002000F08FFA01224FF48033CDE90623B5
:1002B800032402230F9206A82822CDE90D34CDE9A4
:1002C8001023CDE9123300F0DDFA08B172B6FEE76B
:1002D8000421CDE903000F2305900DEB0100CDE9C2
:1002E800013400F011FD08B172B6FEE714B010BD7C
:1002F80008B500F0EFF8FFF7C7FFFFF789FF00F038
:1003080055F8064800F0FEFD4FF4FA7000F004F9C5
:1003180003484FF4005100F04CFAF5E7280000209C
:100328000008004872B6FEE70B4B1A6E42F0010255
:1003380082B01A661A6E02F001020092009A9A6D53
:1003480042F080529A659B6D03F080530193019BA4
:1003580002B000F08FBA00BF00100240FEE7FEE7CF
:10036800FEE7FEE7FEE770477047704700F0C2B847
:10037800014800F0FDBD00BF28000020044B834267
:1003880004D104484FF4005100F013BA704700BF7D
:100398002800002000080048034AD2F8883043F4B7
:1003A8007003C2F88830704700ED00E01FB50F4AAF
:1003B8000F4B136000249F23C2E901346323D360E9
:1003C80010468023CDE901440394936100F05EFF59
:1003D80008B1FFF7A7FF0548019401A9039400F0AD
:1003E8008DFF08B1FFF79EFF04B010BD2800002064
:1003F8000010004007B50E4B02689A4215D103F56C
:10040800003336209A6D42F010029A659B6D0022E7
:1004180003F0100301931146019B00F0A3F8362066
:1004280003B05DF804EB00F0CFB803B000BD00BF27
:10043800001000400D488546FFF7AEFF0C480D49F7
:100448000D4A002302E0D458C4500433C4188C4227
:10045800F9D30A4A0A4C002301E013600432A2428D
:10046800FBD300F09FFFFFF743FFFEE7008000206B
:10047800000000200C000020241400080C000020BC
:10048800F8000020FEE7000038B50F4B1A68054653
:100498000AB9012038BD4FF47A73B3FBF2F30B4A63
:1004A8001068B0FBF3F000F09DF804460028F0D186
:1004B8000F2DEED8024629464FF0FF3000F052F8D3
:1004C800034B20461D60E5E70400002000000020E3
:1004D8000800002010B5032000F032F80F20FFF7C5
:1004E800D3FF044618B9FFF71FFF204610BD0124AB
:1004F800FBE70000034A0449136809680B441360CA
:10050800704700BFF400002004000020014B186869
:10051800704700BFF400002038B50446FFF7F6FF27
:10052800631C1CBF054B1B68054618BFE418FFF782
:10053800EDFF431BA342FAD338BD00BF04000020DF
:100548000749CA6822F4E0620302120403F4E06374
:10055800120C134343F0BF6343F40033CB6070477E
:1005680000ED00E0164B30B5DC68C4F30224C4F19A
:100578000703251D042B28BF0423062D4FF0FF3544
:100588008CBF033C002405FA03F321EA0303A540CA
:1005980022EA0502A340002843EA0203ACBF00F1A7
:1005A8006040084A4FEA0313B8BF00F00F00DBB2FF
:1005B800AABF00F56140135480F8003330BD00BF76
:1005C80000ED00E014ED00E0002807DB044A4109D3
:1005D800012300F01F00834042F82130704700BF1C
:1005E80000E100E00138B0F1807F0BD24FF0E0234A
:1005F800054A5861F02182F82310002007229861EB
:100608001A6170470120704700ED00E02DE9F74FAF
:10061800DFF89091614C00230A6832FA03F502D1A1
:1006280003B0BDE8F08F012505FA03FA1AEA0202C1
:1006380000F0A8804E68D1F808C0032706F003052B
:100648004FEA430807FA08FE6F1E012F6FEA0E0EE5
:1006580033D8876807EA0E0BCF6807FA08F747EA26
:100668000B078760476827EA0A0AC6F300179F4006
:1006780047EA0A074760C7680CFA08FC07EA0E074A
:100688004CEA0707022DC7601CD14FEAD30C00EBD8
:100698008C0C03F0070ADCF820704FEA8A0A4FF046
:1006A8000F0B0BFA0AFB27EA0B0B0F6907FA0AF77D
:1006B80047EA0B07CCF8207004E0032DDBD1BCF12E
:1006C800010FD8D1076805FA08F507EA0E073D4378
:1006D80016F4403F056055D0D9F8605045F0010543
:1006E800C9F86050D9F8605023F0030707F1804734
:1006F80005F0010507F58037019503F0030C019D0E
:10070800BD684FEA8C0C4FF00F0E0EFA0CFEB0F1DC
:10071800904F25EA0E0E37D0214DA84236D005F568
:100728008065A84234D005F58065A84232D005F529
:100738008065A84230D005F58065A84214BF06251B
:10074800052505FA0CF545EA0E05BD60A568D743F1
:1007580016F4801F0CBF3D401543A560E56816F4EC
:10076800001F0CBF3D401543E560656816F4003F67
:100778000CBF3D40154365602568F60354BF3D40F6
:1007880015432560013347E70025DAE70125D8E757
:100798000225D6E70325D4E70425D2E70004014063
:1007A80000040048001002400AB18161704781626C
:1007B8007047436901EA030221EA030141EA024161
:1007C80081617047284B1A6818BB02F4C062B2F501
:1007D800806FD3F8802022F48072C3F8802040D143
:1007E8001A6822F4C06242F400721A601F4A126842
:1007F80032214A431E49B2FBF1F2013259694905D7
:1008080000D522B95B6958052BD503207047013AFA
:10081800F4E7B0F5007F1FD102F4C062B2F5806F33
:10082800D3F8802042F48072C3F8802019D11A6866
:1008380022F4C06242F400721A600C4A1268322133
:100848004A430B49B2FBF1F2013259694905D9D53E
:10085800002AD7D0013AF8E722F4C06242F4806255
:100868001A600020704700BF0070004000000020A0
:1008780040420F00024A936843F4804393607047F4
:10088800007000402DE9F341044618B9012002B078
:10089800BDE8F0810368D90714D423689A0758D4AF
:1008A8002368190700F1A18023685A0700F1C8805E
:1008B80023689A0600F12F81E369002B40F05C81E0
:1008C8000020E4E79F4DAB68EA6803F00C030C2BAB
:1008D8000AD102F00303032B08D12B689B03DCD554
:1008E8006368002BD9D1D1E7082BF5E76368B3F526
:1008F800803F10D12B6843F480332B60FFF706FE4E
:1009080006462B689F03C8D4FFF700FE801B6428A7
:10091800F7D90320BBE7B3F5A02F04D12B6843F424
:1009280080232B60E6E72A6822F480322A602A684E
:1009380022F480222A60002BE0D1FFF7E7FD06466B
:100948002B689903A9D5FFF7E1FD801B6428F7D927
:10095800DFE77C4DAB68EA6803F00C030C2B17D17A
:1009680002F00303022B15D12B685A0502D5E36860
:10097800002B8BD06B68226923F0FE4343EA0263A5
:100988006B60714B1868FFF77FFD002888D07DE702
:10099800042BE8E7E368BBB12B6843F480732B6052
:1009A800FFF7B4FD06462B685B0507D56B6822691F
:1009B80023F0FE4343EA02636B6071E7FFF7A6FD8D
:1009C800801B0228EFD9A4E72B6823F480732B60DF
:1009D800FFF79CFD06462B685F057FF561AFFFF7C3
:1009E80095FD801B0228F6D993E76369554D9BB1A5
:1009F800D5F8943043F00103C5F89430FFF786FD2D
:100A08000646D5F894309B073FF54EAFFFF77EFDBD
:100A1800801B0228F5D97CE7D5F8943023F0010330
:100A2800C5F89430FFF772FD0646D5F894309F0755
:100A38007FF53AAFFFF76AFD801B0228F5D968E712
:100A4800404DAB6DD80027D4AB6D43F08053AB65F8
:100A5800AB6D03F080530193019B01273B4E336834
:100A6800D9051BD5A368012B29D1D5F8903043F0BF
:100A78000103C5F89030FFF749FD41F28838064672
:100A8800D5F890309B0740D5002F3FF411AFAB6DE0
:100A980023F08053AB650BE70027DFE7336843F4A7
:100AA80080733360FFF732FD80463368DA05D9D4A6
:100AB800FFF72CFDA0EB08000228F6D929E7052B43
:100AC80006D1D5F8903043F00403C5F89030CCE750
:100AD800D5F8902022F00102C5F89020D5F8902092
:100AE80022F00402C5F89020002BC4D1FFF70EFDB8
:100AF80041F288380646D5F890309907C4D5FFF7F3
:100B080005FD801B4045F6D903E7FFF7FFFC801B76
:100B18004045B5D9FDE6A3690A4DCBB1D5F8983063
:100B280043F00103C5F89830FFF7F0FC0646D5F806
:100B380098309B073FF5C0AEFFF7E8FC801B022802
:100B4800F5D9E6E6001002400800002000700040D9
:100B5800D5F8983023F00103C5F89830FFF7D6FC94
:100B68000646D5F898309F077FF5A6AEFFF7CEFC6E
:100B7800801B0228F5D9CCE6454DAA6802F00C0284
:100B88000C2A51D0022B2B6823F080732B603AD1AA
:100B9800FFF7BCFC06462B6899012ED4EA683D4B4A
:100BA8001340226A1343A26A43EA0223E26A43EA31
:100BB800C263626A013A43EA0213226B5208013A9D
:100BC80043EA4253626B5208013A43EA4263EB60DC
:100BD8002B6843F080732B60EB6843F08073EB6005
:100BE800FFF794FC04462B689A013FF569AEFFF7BE
:100BF8008DFC001B0228F6D98BE6FFF787FC801BCB
:100C08000228C8D985E6FFF781FC04462B689B01BA
:100C180004D4EA68204B1340EB6051E6FFF776FCFA
:100C2800001B0228F2D974E6012B3FF42FAEEB68C3
:100C3800226A03F0030191427FF428AE616A03F04F
:100C4800F0020139B2EB011F7FF420AEA16A03F470
:100C5800FE42B2EB012F7FF419AEE16A03F078424D
:100C6800B2EBC16F7FF412AE226B520803F4C001DD
:100C7800013AB1EB425F7FF409AE626B5208013A68
:100C880003F0C063B3EB426F14BF01200020FEE500
:100C9800001002400C809F01FCFFEEFE174B9A6883
:100CA80002F00C02042A23D09A6802F00C02082AE7
:100CB80020D09A6802F00C020C2A1DD1D968DA6893
:100CC800D868DB6801F00301C3F341630329C2F369
:100CD8000312C0F3062003F101030CBF08490949B8
:100CE8005B000132B1FBF2F25043B0FBF3F0704706
:100CF80004487047024870470020704700100240BF
:100D080000127A000024F4002DE9F8430E46054647
:100D180010B90120BDE8F8836D4A136803F00F038A
:100D28008B4245D3296811F001084CD12A689107F4
:100D380040F1A780674B12F0040F1EBF996841F479
:100D4800E0619960120741BF9A6822F47C5242F42C
:100D5800E0629A609A68A96822F0F0020A439A60F1
:100D68005B4C236803F00F03B34200F293802A68B8
:100D7800584C12F0040F40F0A380130706D5A3685F
:100D88002A6923F4605343EAC203A360FFF786FF8E
:100D9800A368514AC3F30313D35C03F01F03D8407D
:100DA8004E4B18604E4B1868BDE8F843FFF76CBB14
:100DB800136823F00F030B431360136803F00F034A
:100DC8008B42A6D1AEE76F68424C032F236849D106
:100DD8009B019ED5E368E26803F00303032BE368F5
:100DE8000CBF40484048C2F30312C3F30623013244
:100DF800B0FBF2F25343E268C2F34162013252009F
:100E0800B3FBF2F3394A93421AD84FF00008A368AB
:100E180023F003033B43A360FFF778FB41F28839D3
:100E28000746A3686A6803F00C03B3EB820F3FF42C
:100E38007DAFFFF76BFBC01B4845F2D9032069E77C
:100E4800A36813F0F00F04D08807DED5AB68002B39
:100E5800DBD1A36823F0F00343F08003A3604FF0D5
:100E68008008D4E7022F09D113F4003F3FF451AFB3
:100E7800FFF714FF1D4B9842C7D9EAE713F4806FB8
:100E8800F4E7B8F1800F01BF124A936823F0F0032A
:100E9800936065E7236823F00F0333432360FFF76C
:100EA80035FB41F288380746236803F00F03B34245
:100EB8003FF45DAFFFF72AFBC01B4045F4D9BDE7FF
:100EC800A368E96823F4E0630B43A36055E700BF18
:100ED80000200240001002400C140008000000200E
:100EE8000800002000127A000024F40000B4C404B2
:100EF8007047704770477047704770477047704732
:100F08007047000090F83D30012B2BD1022380F868
:100F18003D300368DA6842F00102DA60124A93420F
:100F280012D0B3F1804F0FD0A2F5943293420BD078
:100F380002F58062934207D002F59632934203D0BD
:100F480002F54062934207D19968084A0A40062A86
:100F580006D0B2F5803F03D01A6842F001021A6049
:100F68000020704701207047002C01400700010055
:100F7800036870B5DD681E69B10704460FD5AA0776
:100F88000DD56FF002021A61012202779B699B0757
:100F980000F0B280D0F89430984700232377700788
:100FA80012D5690710D523686FF004021A6102226E
:100FB80022779B6913F4407F00F0A580D4F8943021
:100FC8002046984700232377320711D52B070FD5E2
:100FD80023686FF008021A6104222277DB699807F8
:100FE80000F09880D4F8943020469847002323775F
:100FF800F10612D5EA0610D523686FF010021A61BF
:1010080008222277DB6913F4407F00F08A80D4F845
:1010180094302046984700232377F30709D5E8073B
:1010280007D523686FF001021A612046D4F884308E
:10103800984716F4025F09D0290607D523686FF48C
:1010480002521A612046D4F8B4309847F20509D5FF
:101058002B0607D523686FF480721A612046D4F8EE
:10106800B8309847700609D5690607D523686FF028
:1010780040021A612046D4F88C309847B20609D548
:10108800AB0607D523686FF020021A612046D4F812
:10109800AC309847F00209D5E90207D523686FF408
:1010A80080121A612046D4F8BC309847B20209D59C
:1010B800AB0207D523686FF400121A612046D4F8F2
:1010C800C0309847700209D5690207D523686FF4C4
:1010D80080021A612046D4F8C4309847320227D5D6
:1010E8002B0225D523686FF400021A612046D4F834
:1010F800C830BDE870401847D0F89C309847D4F8FD
:10110800A030204648E7D4F89C3020469847D4F8C9
:10111800A03055E7D4F89C3020469847D4F8A03042
:1011280062E7D4F89C3020469847D4F8A03070E79E
:1011380070BD0000254A036890420ED0B0F1804F80
:101148000BD0A2F59432904207D002F5806290420B
:1011580003D002F59632904208D14A6823F0700312
:101168001343CA6823F4407313430AE0184A9042B1
:10117800F7D002F580629042F3D002F58062904287
:10118800EFD04A6923F0800313438A68C2620A6871
:1011980082620E4A90420FD002F5006290420BD054
:1011A80002F54062904207D002F58062904203D077
:1011B80002F58062904201D10A690263026842F036
:1011C800040202600122426103607047002C014062
:1011D800004001401B4BC0F884301B4BC0F88830DE
:1011E8001A4BC0F88C301A4BC0F89030194BC0F825
:1011F8009430194BC0F89830184BC0F89C30184BF5
:10120800C0F8A030174BC0F8A430174BC0F8A8306E
:10121800164BC0F8AC30164BC0F8B030154BC0F8C0
:10122800B430154BC0F8B830144BC0F8BC30144B70
:10123800C0F8C030134BC0F8C430134BC0F8C830E6
:10124800704700BF85030008F90E0008050F000865
:10125800070F0008FD0E0008FF0E0008FB0E00082F
:10126800010F0008030F0008090F00088D1300087C
:101278008F130008911300089313000895130008B2
:1012880097130008991300089B13000810B504462B
:1012980080B390F83D3003F0FF024BB980F83C2052
:1012A800FFF798FFC36C0BB9134BC36420469847EC
:1012B8000223206884F83D30211DFFF73BFF0123FE
:1012C80084F84830002084F83E3084F83F3084F8B1
:1012D800403084F8413084F8423084F8433084F850
:1012E800443084F8453084F8463084F8473084F830
:1012F8003D3010BD0120FCE7FD03000830B590F833
:101308003C30012B04464FF0020037D023681C4DB7
:1013180084F83D00AB425A68986803D005F500652B
:10132800AB4203D14D6822F470022A430D6822F0C3
:10133800007222F070022A435A60114A934212D076
:10134800B3F1804F0FD0A2F5943293420BD002F53F
:101358008062934207D002F59632934203D002F599
:101368004062934204D1896820F080020A439A605F
:101378000123002084F83D3084F83C0030BD00BFD4
:10138800002C01407047704770477047704770479E
:101398007047704702440346934200D1704703F8F0
:1013A800011BF9E770B50D4B0D4D5B1B9C1000261A
:1013B800A64209D100F01AF80A4D0B4B5B1B9C1092
:1013C8000026A64205D170BD55F8043B9847013662
:1013D800EEE755F8043B98470136F2E71C1400087D
:1013E8001C1400081C14000820140008F8B500BFDD
:1013F800F8BC08BC9E467047F8B500BFF8BC08BCEE
:041408009E46704745
:10140C0000000000000000000102030406070809A8
:04141C00FD010008C6
:04142000D9010008E6
:0C1424000024F400010000001000000093
:040000050800043DAE
:00000001FF
