:020000040800F2
:1000000000800020351500085D1200085F1200080E
:100010006112000863120008651200080000000069
:10002000000000000000000000000000671200084F
:1000300069120008000000006B1200086D12000831
:100040008515000885150008851500088515000828
:100050008515000885150008851500088515000818
:10006000851500088515000885150008711200081F
:1000700085150008851500088515000885150008F8
:10008000851500080000000085150008851500088A
:1000900085150008851500088515000885150008D8
:1000A00085150008851500088515000885150008C8
:1000B00085150008851500088515000885150008B8
:1000C00085150008851500088515000885150008A8
:1000D000851500087D1200088515000885150008A3
:1000E0008515000885150008851500088515000888
:1000F000851500088515000885150008000000001A
:1001000000000000851500080000000085150008AB
:1001100085150008000000008912000885150008F8
:100120008515000885150008851500088515000847
:10013000851500080000000000000000851500087B
:10014000851500088515000800000000000000006B
:10015000000000000000000000000000000000009F
:1001600000000000000000000000000085150008ED
:1001700085150008000000000000000000000000DD
:1001800000000000851500080000000000000000CD
:10019000000000000000000000000000000000005F
:1001A000000000000000000085150008851500080B
:1001B0008515000885150008851500080000000059
:1001C000000000008515000800000000000000008D
:0801D0008515000885150008E3
:1001E00010B5054C237833B9044B13B10448AFF371
:1001F00000800123237010BDD40100200000000006
:100200002C7C000808B5034B1BB103490348AFF32E
:10021000008008BD00000000D80100202C7C0008F0
:1002200001F0FF01102A2BDB10F0070F08D010F8A7
:10023000013B013A8B422DD010F0070F42B3F6D1AB
:10024000F0B441EA012141EA014122F007047FF0C4
:1002500000070023F0E80256083C85EA010586EA1B
:10026000010685FA47F5A3FA87F586FA47F6A5FA57
:1002700087F68EB9EED1F0BC01F0FF0102F0070263
:1002800032B110F8013B013A83EA010313B1F8D10E
:100290000020704701387047002D06BF35460338EF
:1002A000073815F0010F07D1013015F4807F02BF28
:1002B000013015F4C03F0130F0BC0138704700BF79
:1002C000034613F8012B002AFBD1181A0138704796
:1002D00081F0004102E000BF83F0004330B54FEAF7
:1002E00041044FEA430594EA050F08BF90EA020F64
:1002F0001FBF54EA000C55EA020C7FEA645C7FEAF7
:10030000655C00F0E2804FEA5454D4EB5555B8BF19
:100310006D420CDD2C4480EA020281EA030382EA8A
:10032000000083EA010180EA020281EA0303362D1C
:1003300088BF30BD11F0004F4FEA01314FF4801CEF
:100340004CEA113102D0404261EB410113F0004F01
:100350004FEA03334CEA133302D0524263EB4303B8
:1003600094EA050F00F0A780A4F10104D5F1200E56
:100370000DDB02FA0EFC22FA05F2801841F10001B1
:1003800003FA0EF2801843FA05F359410EE0A5F185
:1003900020050EF1200E012A03FA0EFC28BF4CF0B6
:1003A000020C43FA05F3C01851EBE37101F000456C
:1003B00007D54FF0000EDCF1000C7EEB00006EEB79
:1003C0000101B1F5801F1BD3B1F5001F0CD3490803
:1003D0005FEA30004FEA3C0C04F101044FEA44525A
:1003E00012F5800F80F09A80BCF1004F08BF5FEAE1
:1003F000500C50F1000041EB045141EA050130BDC1
:100400005FEA4C0C404141EB0101013C28BFB1F5D2
:10041000801FE9D291F0000F04BF01460020B1FA1D
:1004200081F308BF2033A3F10B03B3F120020CDAF0
:100430000C3208DD02F1140CC2F10C0201FA0CF0CE
:1004400021FA02F10CE002F11402D8BFC2F1200C33
:1004500001FA02F120FA0CFCDCBF41EA0C019040E9
:10046000E41AA2BF01EB0451294330BD6FEA040432
:100470001F3C1CDA0C340EDC04F11404C4F120021D
:1004800020FA04F001FA02F340EA030021FA04F32F
:1004900045EA030130BDC4F10C04C4F1200220FA86
:1004A00002F001FA04F340EA0300294630BD21FAC4
:1004B00004F0294630BD94F0000F83F4801306BF8A
:1004C00081F480110134013D4EE77FEA645C18BF7E
:1004D0007FEA655C29D094EA050F08BF90EA020F15
:1004E00005D054EA000C04BF1946104630BD91EA0D
:1004F000030F1EBF0021002030BD5FEA545C05D110
:100500004000494128BF41F0004130BD14F580044E
:100510003CBF01F5801130BD01F0004545F0FE41C2
:1005200041F470014FF0000030BD7FEA645C1ABFF7
:10053000194610467FEA655C1CBF0B46024650EA2E
:10054000013406BF52EA033591EA030F41F400215A
:1005500030BD00BF90F0000F04BF0021704730B5E0
:100560004FF4806404F132044FF000054FF00001B5
:1005700050E700BF90F0000F04BF0021704730B576
:100580004FF4806404F1320410F0004548BF40424B
:100590004FF000013EE700BF42004FEAE2014FEAA0
:1005A00031014FEA02701FBF12F07F4393F07F4F7B
:1005B00081F06051704732F07F4208BF704793F07E
:1005C0007F4F04BF41F40021704730B54FF4607491
:1005D00001F0004521F000411CE700BF50EA010294
:1005E00008BF704730B54FF000050AE050EA01023D
:1005F00008BF704730B511F0004502D5404261EBAD
:1006000041014FF4806404F132045FEA915C3FF4ED
:10061000D8AE4FF003025FEADC0C18BF03325FEA8A
:10062000DC0C18BF033202EBDC02C2F1200300FA3B
:1006300003FC20FA02F001FA03FE40EA0E0021FA60
:1006400002F11444BDE600BF70B54FF0FF0C4CF44E
:10065000E06C1CEA11541DBF1CEA135594EA0C0F00
:1006600095EA0C0F00F0DEF82C4481EA030621EA3B
:100670004C5123EA4C5350EA013518BF52EA033576
:1006800041F4801143F4801338D0A0FB02CE4FF028
:100690000005E1FB02E506F00042E0FB03E54FF058
:1006A0000006E1FB03569CF0000F18BF4EF0010E50
:1006B000A4F1FF04B6F5007F64F5407404D25FEA4C
:1006C0004E0E6D4146EB060642EAC62141EA5551FF
:1006D0004FEAC52040EA5E504FEACE2EB4F1FD0C41
:1006E00088BFBCF5E06F1ED8BEF1004F08BF5FEABF
:1006F000500E50F1000041EB045170BD06F0004671
:1007000046EA010140EA020081EA0301B4EB5C041D
:10071000C2BFD4EB0C0541EA045170BD41F4801115
:100720004FF0000E013C00F3AB8014F1360FDEBF3A
:10073000002001F0004170BDC4F10004203C35DA16
:100740000C341BDC04F11404C4F1200500FA05F399
:1007500020FA04F001FA05F240EA020001F000423A
:1007600021F0004110EBD37021FA04F642EB0601B0
:100770005EEA430E08BF20EAD37070BDC4F10C04DA
:10078000C4F1200500FA04F320FA05F001FA04F29E
:1007900040EA020001F0004110EBD37041F100018A
:1007A0005EEA430E08BF20EAD37070BDC4F1200595
:1007B00000FA05F24EEA020E20FA04F301FA05F2FD
:1007C00043EA020321FA04F001F0004121FA04F2A5
:1007D00020EA020000EBD3705EEA430E08BF20EA75
:1007E000D37070BD94F0000F0FD101F000464000AF
:1007F00041EB010111F4801F08BF013CF7D041EA31
:10080000060195F0000F18BF704703F00046520034
:1008100043EB030313F4801F08BF013DF7D043EA05
:100820000603704794EA0C0F0CEA135518BF95EABB
:100830000C0F0CD050EA410618BF52EA4306D1D142
:1008400081EA030101F000414FF0000070BD50EA61
:10085000410606BF1046194652EA430619D094EAEB
:100860000C0F02D150EA013613D195EA0C0F05D1D5
:1008700052EA03361CBF104619460AD181EA030129
:1008800001F0004141F0FE4141F470014FF00000E1
:1008900070BD41F0FE4141F4780170BD70B54FF07C
:1008A000FF0C4CF4E06C1CEA11541DBF1CEA1355FC
:1008B00094EA0C0F95EA0C0F00F0A7F8A4EB0504DE
:1008C00081EA030E52EA03354FEA013100F08880D5
:1008D0004FEA03334FF0805545EA131343EA12639E
:1008E0004FEA022245EA111545EA10654FEA002653
:1008F0000EF000419D4208BF964244F1FD0404F50C
:10090000407402D25B084FEA3202B61A65EB030567
:100910005B084FEA32024FF480104FF4002CB6EB24
:10092000020E75EB030E22BFB61A754640EA0C00A4
:100930005B084FEA3202B6EB020E75EB030E22BFE4
:10094000B61A754640EA5C005B084FEA3202B6EB25
:10095000020E75EB030E22BFB61A754640EA9C00E4
:100960005B084FEA3202B6EB020E75EB030E22BFB4
:10097000B61A754640EADC0055EA060E18D04FEA72
:10098000051545EA16754FEA06164FEAC30343EA12
:1009900052734FEAC2025FEA1C1CC0D111F4801FDF
:1009A0000BD141EA00014FF000004FF0004CB6E7D8
:1009B00011F4801F04BF01430020B4F1FD0C88BF77
:1009C000BCF5E06F3FF6AFAEB5EB030C04BFB6EB82
:1009D000020C5FEA500C50F1000041EB045170BD75
:1009E0000EF0004E4EEA113114EB5C04C2BFD4EBA2
:1009F0000C0541EA045170BD41F480114FF0000E26
:100A0000013C90E645EA060E8DE60CEA135594EAA1
:100A10000C0F08BF95EA0C0F3FF43BAF94EA0C0FA4
:100A20000AD150EA01347FF434AF95EA0C0F7FF419
:100A300025AF104619462CE795EA0C0F06D152EA6D
:100A400003353FF4FDAE1046194622E750EA410651
:100A500018BF52EA43067FF4C5AE50EA41047FF462
:100A60000DAF52EA43057FF4EBAE12E74FF0FF3CC7
:100A700006E000BF4FF0010C02E000BF4FF0010C98
:100A80004DF804CD4FEA410C7FEA6C5C4FEA430C11
:100A900018BF7FEA6C5C1BD001B050EA410C0CBF60
:100AA00052EA430C91EA030F02BF90EA020F0020C2
:100AB000704710F1000F91EA030F58BF994208BF29
:100AC00090422CBFD8176FEAE37040F001007047E6
:100AD0004FEA410C7FEA6C5C02D150EA013C07D13D
:100AE0004FEA430C7FEA6C5CD6D152EA033CD3D088
:100AF0005DF8040B704700BF8446104662468C4682
:100B00001946634600E000BF01B5FFF7B7FF0028B4
:100B100048BF10F1000F01BD4DF808EDFFF7F4FFDD
:100B20000CBF012000205DF808FB00BF4DF808ED68
:100B3000FFF7EAFF34BF012000205DF808FB00BF8B
:100B40004DF808EDFFF7E0FF94BF012000205DF8AD
:100B500008FB00BF4DF808EDFFF7CEFF94BF012062
:100B600000205DF808FB00BF4DF808EDFFF7C4FF5B
:100B700034BF012000205DF808FB00BF4FEA410CA4
:100B80007FEA6C5C02D150EA013C0AD14FEA430C87
:100B90007FEA6C5C02D152EA033C02D14FF00000C4
:100BA00070474FF0010070474FEA410212F5001202
:100BB00015D211D56FF47873B3EB625212D94FEAA4
:100BC000C12343F0004343EA505311F0004F23FA8E
:100BD00002F018BF404270474FF00000704750EAE3
:100BE000013005D111F0004008BF6FF000407047A0
:100BF0004FF00000704700BF4A0011D212F50012FA
:100C000011D20DD56FF47873B3EB62520ED44FEA64
:100C1000C12343F0004343EA505323FA02F07047E4
:100C20004FF00000704750EA013002D14FF0FF3022
:100C300070474FF0000070474FEA4102B2F1E043C5
:100C400024BFB3F5001CDCF1FE5C0DD901F0004CB3
:100C50004FEAC0024CEA5070B2F1004F40EB830003
:100C600008BF20F00100704711F0804F21D113F12F
:100C70003872BCBF01F00040704741F480114FEA68
:100C80005252C2F11802C2F1200C10FA0CF320FAF1
:100C900002F018BF40F001004FEAC1234FEAD3230E
:100CA00003FA0CFC40EA0C0023FA02F34FEA430378
:100CB000CCE77FEA625307D150EA01331EBF4FF001
:100CC000FE4040F44000704701F0004040F0FE401C
:100CD00040F40000704700BF53B94AB9002908BF6B
:100CE00000281CBF4FF0FF314FF0FF3000F0BEB9BD
:100CF000ADF1080C6DE904CE00F03CF8DDF804E03D
:100D0000DDE9022304B0704738B500220023044611
:100D10000D46FFF70BFF28B920462946BDE83840AD
:100D200000F00AB8204605F1004100F005F8404205
:100D300061EB410138BD00BFD0B50C4B0022064627
:100D40000F46FFF781FCFFF757FF0446FFF702FC51
:100D5000074B0022FFF778FC02460B463046394627
:100D6000FFF7BAFAFFF748FF2146D0BD0000F03D7B
:100D70000000F0412DE9F047089D0F4604468C46DF
:100D8000002B48D18A42164661D9B2FA82F34BB1A0
:100D9000C3F1200201FA03FC20FA02F29E4042EA6B
:100DA0000C0C9C404FEA164EB7B2BCFBFEF1220C75
:100DB0000EFB11CC42EA0C4201FB07F0904209D92C
:100DC000B21801F1FF3C80F0EE80904240F2EB80DF
:100DD00002393244121AA4B2B2FBFEF00EFB10220A
:100DE00044EA024400FB07F7A74209D9341900F18D
:100DF000FF3280F0DA80A74240F2D78034440238D4
:100E000040EA0140E41B00211DB1DC400023C5E99C
:100E10000043BDE8F0878B4206D90DB1C5E900015A
:100E200000210846BDE8F087B3FA83F1002948D1D4
:100E3000BB4202D3824200F20781841A67EB0302AD
:100E400001209446002DE4D0C5E9004CE1E7002ADA
:100E500000F09280B2FA82F3002B40F0A8808A1A48
:100E60004FEA164E1FFA86FC0121200CB2FBFEF75A
:100E70000EFB172240EA02420CFB07F0904207D912
:100E8000B21807F1FF3802D2904200F2E2804746E2
:100E9000121AA4B2B2FBFEF00EFB102244EA024486
:100EA0000CFB00FCA44507D9341900F1FF3202D233
:100EB000A44500F2CB801046A4EB0C0440EA0740A6
:100EC000A2E7C1F120068B4022FA06FC4CEA030C93
:100ED00007FA01F420FA06F3F7404FEA1C492343CE
:100EE00000FA01F81FFA8CFEB7FBF9F01C0C09FBA5
:100EF000107744EA074400FB0EF7A74202FA01F21A
:100F00000AD91CEB040400F1FF3A80F09B80A74251
:100F100040F2988002386444E41B9FB2B4FBF9F3BA
:100F200009FB134447EA044403FB0EFEA64509D916
:100F30001CEB040403F1FF3780F08280A6457FD9C3
:100F4000023B644443EA0040A4EB0E04A0FB02E72A
:100F5000BC427346B94663D360D05DB1B8EB0302BF
:100F600064EB090404FA06F622FA01F31E43CC40AE
:100F7000C5E9006400214CE76208480842EAC171F3
:100F80000B0C43EA00438AB242EA0342B3FBF6F198
:100F9000E407B4463746B6461F23B0FBF6F0D21B33
:100FA00041EA004161E7614614E7104628E7C3F1D2
:100FB000200120FA01F29E4027FA01F19F403A43B6
:100FC0004FEA164E1FFA86FCB1FBFEF70EFB171018
:100FD000110C41EA004107FB0CF8884504FA03F4C0
:100FE0003AD9711807F1FF3001D288451FD8A1EB1B
:100FF0000801B1FBFEF808FB0CF70EFB181192B2CA
:1010000042EA0142BA422FD2B21808F1FF31C6D2E9
:10101000BA42C4D2A8F102013244C0E7F0459CD2E2
:10102000BEEB020367EB0C070138B94695E7A6EB68
:1010300008084144B81EB1FBFEF808FB0CF7DCE7DA
:101040003B467FE7504667E70846FBE634440238F4
:1010500032E7023F32441BE7A1EB08013846B1FBFF
:10106000FEF808FB0CF7C8E7414698E7704700BF59
:101070000F4B07B59A6C42F004029A649A6C02F026
:1010800004020092009A9A6C42F001029A649B6CEE
:10109000002203F00103019311460B20019B00F095
:1010A000E1FA0B2003B05DF804EB00F00DBB00BFCC
:1010B0000010024000B514228BB00DEB020000219D
:1010C00003F0D0F91C4B1D48DA6C42F00402DA64DC
:1010D000DA6C02F004020192019ADA6C42F020020A
:1010E000DA64DA6C02F020020292029ADA6C42F0C0
:1010F0000102DA64DA6C02F001020392039ADA6CFC
:1011000042F00202DA64DB6C03F002030493012272
:101110004FF40051049B00F06FFD4FF40052012387
:10112000CDE9052307930548002305A9089300F09E
:1011300095FC0BB000BD00BF001002400008004845
:1011400010B594B03822002106A803F08BF91422C0
:10115000002101A803F086F9002000F05BFD0122C8
:101160004FF48033CDE90623032402230F9206A80F
:101170002822CDE90D34CDE91023CDE9123300F05A
:10118000A9FD08B172B6FEE70421CDE903000F23E3
:1011900005900DEB0100CDE9013400F0DDFF08B151
:1011A00072B6FEE714B010BD10B52DED028B82B003
:1011B00000F010FAFFF7C4FFFFF77CFFFFF758FFBE
:1011C00000F0D6F800F018F91048114C9FED118A84
:1011D00001F020FAD4ED007A77EE887A17EE900AC3
:1011E000C4ED007AFFF7D8F90B4ACDE900014FF4BE
:1011F00080710A4803F09AF8084982B2084801F061
:1012000097FC642000F008FAE4E700BFF801002032
:10121000F00100200AD7233C487C0008B8030020D6
:101220002403002072B6FEE70B4B1A6E42F0010257
:1012300082B01A661A6E02F001020092009A9A6D4C
:1012400042F080529A659B6D03F080530193019B9D
:1012500002B000F037BD00BF00100240FEE7FEE71D
:10126000FEE7FEE7FEE770477047704700F0C2B93F
:10127000014800F0A8BB00BFC4020020014801F0F3
:10128000E9BC00BF24030020014801F0F9B900BF08
:10129000F8010020044B834204D104484FF400516C
:1012A00000F0AFBC704700BFF80100200008004804
:1012B0000120704708B503F027F9162303604FF0AB
:1012C000FF3008BD08B503F01FF916230360FEE7E1
:1012D00070B50D4614460E46731B9C4201DC204639
:1012E00070BDAFF3008006F8010BF5E770B50D4651
:1012F00014460E46731B9C4201DC204670BD16F856
:10130000010BAFF30080F5E74FF0FF3070474FF46B
:1013100000534B6000207047012070470020704749
:101320000A4A0346106810B508B90948106009490F
:10133000094C0344091B8B4206D903F0E5F80C2342
:1013400003604FF0FF3010BD1360FCE7F401002094
:10135000080600200080002000040000034AD2F8A4
:10136000883043F47003C2F88830704700ED00E025
:101370001FB50F4A0F4B136000249F23C2E90134AD
:101380006323D36010468023CDE901440394936125
:1013900001F004FB08B1FFF745FF0548019401A9DE
:1013A000039401F033FB08B1FFF73CFF04B010BD1C
:1013B000F80100200010004007B50E4B02689A4269
:1013C00015D103F5003336209A6D42F010029A656C
:1013D0009B6D002203F0100301931146019B00F066
:1013E00041F9362003B05DF804EB00F06DB903B0AD
:1013F00000BD00BF001000401A4908B51A4B0B6031
:101400004FF4E1320023C1E901230C22C1E9033387
:10141000C1E90523CB610B624B6230234FF480504E
:101420008B624FF40053C1E90F03084601F0A1FF9E
:1014300008B1FFF7F7FE0B48002102F00BF808B1E6
:10144000FFF7F0FE0748002102F024F808B1FFF78B
:10145000E9FE044801F0E3FF18B1BDE80840FFF7DA
:10146000E1BE08BD240300200038014070B598B0EB
:1014700006461422002102A802F0F4FF44220021B3
:1014800007A802F0EFFF3268254B9A4245D10123AD
:1014900007A8079300F078FF08B1FFF7C3FE214BC0
:1014A00021481A6E214C42F480421A661A6E02F4E8
:1014B00080420092009ADA6C42F00202DA64DB6C3D
:1014C00003F002030193019BC02202230025CDE912
:1014D000022302A907230693CDE9045500F0BEFAC2
:1014E000134925621923C4E900131023C4E9023506
:1014F00020468023C4E90435C4E9065500F044F9C8
:1015000008B1FFF78FFE00222520F4671146A6627E
:1015100000F0A8F8252000F0D7F818B070BD00BF83
:10152000003801400010024000040048C4020020BE
:10153000080002400D488546FFF710FF0C480D4992
:101540000D4A002302E0D458C4500433C4188C421E
:10155000F9D30A4A0A4C002301E013600432A24284
:10156000FBD302F0D7FFFFF71FFEFEE7008000204D
:1015700000000020D4010020D4800008D401002005
:1015800008060020FEE7000038B50F4B1A68054634
:101590000AB9012038BD4FF47A73B3FBF2F30B4A5A
:1015A0001068B0FBF3F000F09DF804460028F0D17D
:1015B0000F2DEED8024629464FF0FF3000F052F8CA
:1015C000034B20461D60E5E70400002000000020DA
:1015D0000800002010B5032000F032F80F20FFF7BC
:1015E000D3FF044618B9FFF71FFE204610BD0124A3
:1015F000FBE70000034A0449136809680B441360C1
:10160000704700BFB804002004000020014B186898
:10161000704700BFB804002038B50446FFF7F6FF56
:10162000631C1CBF054B1B68054618BFE418FFF779
:10163000EDFF431BA342FAD338BD00BF04000020D6
:101640000749CA6822F4E0620302120403F4E0636B
:10165000120C134343F0BF6343F40033CB60704775
:1016600000ED00E0164B30B5DC68C4F30224C4F191
:101670000703251D042B28BF0423062D4FF0FF353B
:101680008CBF033C002405FA03F321EA0303A540C1
:1016900022EA0502A340002843EA0203ACBF00F19E
:1016A0006040084A4FEA0313B8BF00F00F00DBB2F6
:1016B000AABF00F56140135480F8003330BD00BF6D
:1016C00000ED00E014ED00E0002807DB044A4109CA
:1016D000012300F01F00834042F82130704700BF13
:1016E00000E100E00138B0F1807F0BD24FF0E02341
:1016F000054A5861F02182F82310002007229861E2
:101700001A6170470120704700ED00E070B5D0E924
:1017100013456560446D14B1D0E916456560D0E9A4
:10172000105404F01F060124B4406C600468636028
:101730008368102B0BBFA260A160E160E26070BD06
:101740000268D3B21421083BB3FBF1F30A498A4281
:10175000416C8CBF094A0A4A21F003010A4488BF40
:1017600006338264074AC26403F01F03012202FAAF
:1017700003F30365704700BF0704024020080240DE
:10178000000802408008024038B5002858D002689E
:101790002C4B9A424FF0140146D82B4B1344B3FB09
:1017A000F1F32A499B00C0E91013022380F8253089
:1017B000D0E902430569116823432B4345692B4354
:1017C00085692B43C5692B43056A6FF30E112B43C3
:1017D0000B431360FFF7B4FFB4F5804F04BF002341
:1017E00043604368816C03F07F020A60D0E9131400
:1017F000013B032B4C601ED8154B164981651344E1
:101800009B000121013A01FA02F200214365C26501
:101810001960114B5A6400230122C36380F82430FD
:1018200080F82520184638BD0C4B1344B3FBF1F368
:101830000B499B00B7E70023C0E91533C365EAE70E
:101840000120F0E707040240F8FFFDBF000002405E
:101850003F8200104009024000090240F8FBFDBF32
:101860000004024070B590F82450012D044637D092
:10187000012580F8245090F82550012D4FF00005E7
:101880002CD1022680F82560C56305682E6826F0F5
:1018900001062E60FFF73AFF036BBBB12B6843F0E4
:1018A0000E032B60A36C1A68D20342BF1A6842F47D
:1018B00080721A60636D1BB11A6842F480721A60FC
:1018C0002B6843F001032B60002070BD2B6823F0D0
:1018D00004032B602B6843F00A03E2E780F82450EE
:1018E0000220F2E70346002830D090F82520022A93
:1018F00009D00422C2630120012283F8252000229E
:1019000083F8242070470268116821F001011160FA
:10191000116821F00E011160816C0A6822F4807256
:101920000A60D0E9100202F01F0101228A404260E1
:10193000D3E9132151605A6D32B1116821F48071DD
:101940001160D3E9162151600020D5E701207047CE
:1019500008B590F82530022B09D00423C363002278
:10196000012380F8253080F82420184608BD03683C
:101970001A6822F001021A601A6822F00E021A6038
:10198000826C136823F480731360D0E9101303F0A2
:101990001F02012393404B60D0E913325A60436D1C
:1019A00033B11A6822F480721A60D0E916325A6094
:1019B000012380F82530002380F82430836B03B1A5
:1019C00098470020D2E7016C426C036870B402F0C3
:1019D0001F020E681D680424944034420ED015F096
:1019E000040F0BD01A6892065EBF1A6822F0040238
:1019F0001A60036B4C6073B370BC184702249440A8
:101A0000344212D015F0020F0FD01A68950606D492
:101A10001A6822F00A021A60012380F82530002398
:101A20004C6080F82430C36AE5E7082494403442CF
:101A300011D02C070FD51C6824F00E041C60012364
:101A400003FA02F24A60C36380F82530002380F86D
:101A50002430436BCFE770BC704700002DE9F74F8F
:101A6000DFF89091614C00230A6832FA03F502D145
:101A700003B0BDE8F08F012505FA03FA1AEA020265
:101A800000F0A8804E68D1F808C0032706F00305CF
:101A90004FEA430807FA08FE6F1E012F6FEA0E0E89
:101AA00033D8876807EA0E0BCF6807FA08F747EACA
:101AB0000B078760476827EA0A0AC6F300179F40AA
:101AC00047EA0A074760C7680CFA08FC07EA0E07EE
:101AD0004CEA0707022DC7601CD14FEAD30C00EB7C
:101AE0008C0C03F0070ADCF820704FEA8A0A4FF0EA
:101AF0000F0B0BFA0AFB27EA0B0B0F6907FA0AF721
:101B000047EA0B07CCF8207004E0032DDBD1BCF1D1
:101B1000010FD8D1076805FA08F507EA0E073D431B
:101B200016F4403F056055D0D9F8605045F00105E6
:101B3000C9F86050D9F8605023F0030707F18047D7
:101B400005F0010507F58037019503F0030C019DB1
:101B5000BD684FEA8C0C4FF00F0E0EFA0CFEB0F180
:101B6000904F25EA0E0E37D0214DA84236D005F50C
:101B70008065A84234D005F58065A84232D005F5CD
:101B80008065A84230D005F58065A84214BF0625BF
:101B9000052505FA0CF545EA0E05BD60A568D74395
:101BA00016F4801F0CBF3D401543A560E56816F490
:101BB000001F0CBF3D401543E560656816F4003F0B
:101BC0000CBF3D40154365602568F60354BF3D409A
:101BD00015432560013347E70025DAE70125D8E7FB
:101BE0000225D6E70325D4E70425D2E70004014007
:101BF00000040048001002400AB181617047816210
:101C00007047436901EA030221EA030141EA024104
:101C100081617047284B1A6818BB02F4C062B2F5A4
:101C2000806FD3F8802022F48072C3F8802040D1E6
:101C30001A6822F4C06242F400721A601F4A1268E5
:101C400032214A431E49B2FBF1F20132596949057A
:101C500000D522B95B6958052BD503207047013A9E
:101C6000F4E7B0F5007F1FD102F4C062B2F5806FD7
:101C7000D3F8802042F48072C3F8802019D11A680A
:101C800022F4C06242F400721A600C4A12683221D7
:101C90004A430B49B2FBF1F2013259694905D9D5E2
:101CA000002AD7D0013AF8E722F4C06242F48062F9
:101CB0001A600020704700BF007000400000002044
:101CC00040420F00024A936843F480439360704798
:101CD000007000402DE9F341044618B9012002B01C
:101CE000BDE8F0810368D90714D423689A0758D453
:101CF0002368190700F1A18023685A0700F1C88002
:101D000023689A0600F12F81E369002B40F05C8183
:101D10000020E4E79F4DAB68EA6803F00C030C2B4E
:101D20000AD102F00303032B08D12B689B03DCD5F7
:101D30006368002BD9D1D1E7082BF5E76368B3F5C9
:101D4000803F10D12B6843F480332B60FFF75EFC9B
:101D500006462B689F03C8D4FFF758FC801B6428F5
:101D6000F7D90320BBE7B3F5A02F04D12B6843F4C8
:101D700080232B60E6E72A6822F480322A602A68F2
:101D800022F480222A60002BE0D1FFF73FFC0646B8
:101D90002B689903A9D5FFF739FC801B6428F7D974
:101DA000DFE77C4DAB68EA6803F00C030C2B17D11E
:101DB00002F00303022B15D12B685A0502D5E36804
:101DC000002B8BD06B68226923F0FE4343EA026349
:101DD0006B60714B1868FFF7D7FB002888D07DE750
:101DE000042BE8E7E368BBB12B6843F480732B60F6
:101DF000FFF70CFC06462B685B0507D56B6822696C
:101E000023F0FE4343EA02636B6071E7FFF7FEFBDA
:101E1000801B0228EFD9A4E72B6823F480732B6082
:101E2000FFF7F4FB06462B685F057FF561AFFFF710
:101E3000EDFB801B0228F6D993E76369554D9BB1F2
:101E4000D5F8943043F00103C5F89430FFF7DEFB7A
:101E50000646D5F894309B073FF54EAFFFF7D6FB0B
:101E6000801B0228F5D97CE7D5F8943023F00103D4
:101E7000C5F89430FFF7CAFB0646D5F894309F07A3
:101E80007FF53AAFFFF7C2FB801B0228F5D968E760
:101E9000404DAB6DD80027D4AB6D43F08053AB659C
:101EA000AB6D03F080530193019B01273B4E3368D8
:101EB000D9051BD5A368012B29D1D5F8903043F063
:101EC0000103C5F89030FFF7A1FB41F288380646C0
:101ED000D5F890309B0740D5002F3FF411AFAB6D84
:101EE00023F08053AB650BE70027DFE7336843F44B
:101EF00080733360FFF78AFB80463368DA05D9D4F4
:101F0000FFF784FBA0EB08000228F6D929E7052B90
:101F100006D1D5F8903043F00403C5F89030CCE7F3
:101F2000D5F8902022F00102C5F89020D5F8902035
:101F300022F00402C5F89020002BC4D1FFF766FB05
:101F400041F288380646D5F890309907C4D5FFF796
:101F50005DFB801B4045F6D903E7FFF757FB801B6D
:101F60004045B5D9FDE6A3690A4DCBB1D5F8983007
:101F700043F00103C5F89830FFF748FB0646D5F853
:101F800098309B073FF5C0AEFFF740FB801B02284F
:101F9000F5D9E6E60010024008000020007000407D
:101FA000D5F8983023F00103C5F89830FFF72EFBE1
:101FB0000646D5F898309F077FF5A6AEFFF726FBBB
:101FC000801B0228F5D9CCE6454DAA6802F00C0228
:101FD0000C2A51D0022B2B6823F080732B603AD14E
:101FE000FFF714FB06462B6899012ED4EA683D4B97
:101FF0001340226A1343A26A43EA0223E26A43EAD5
:10200000C263626A013A43EA0213226B5208013A40
:1020100043EA4253626B5208013A43EA4263EB607F
:102020002B6843F080732B60EB6843F08073EB60A8
:10203000FFF7ECFA04462B689A013FF569AEFFF70B
:10204000E5FA001B0228F6D98BE6FFF7DFFA801BC2
:102050000228C8D985E6FFF7D9FA04462B689B0108
:1020600004D4EA68204B1340EB6051E6FFF7CEFA48
:10207000001B0228F2D974E6012B3FF42FAEEB6867
:10208000226A03F0030191427FF428AE616A03F0F3
:10209000F0020139B2EB011F7FF420AEA16A03F414
:1020A000FE42B2EB012F7FF419AEE16A03F07842F1
:1020B000B2EBC16F7FF412AE226B520803F4C00181
:1020C000013AB1EB425F7FF409AE626B5208013A0C
:1020D00003F0C063B3EB426F14BF01200020FEE5A4
:1020E000001002400C809F01FCFFEEFE174B9A6827
:1020F00002F00C02042A23D09A6802F00C02082A8B
:1021000020D09A6802F00C020C2A1DD1D968DA6836
:10211000D868DB6801F00301C3F341630329C2F30C
:102120000312C0F3062003F101030CBF084909495B
:102130005B000132B1FBF2F25043B0FBF3F07047A9
:102140000448704702487047002070470010024062
:1021500000127A000024F4002DE9F8430E460546EB
:1021600010B90120BDE8F8836D4A136803F00F032E
:102170008B4245D3296811F001084CD12A68910798
:1021800040F1A780674B12F0040F1EBF996841F41D
:10219000E0619960120741BF9A6822F47C5242F4D0
:1021A000E0629A609A68A96822F0F0020A439A6095
:1021B0005B4C236803F00F03B34200F293802A685C
:1021C000584C12F0040F40F0A380130706D5A36803
:1021D0002A6923F4605343EAC203A360FFF786FF32
:1021E000A368514AC3F30313D35C03F01F03D84021
:1021F0004E4B18604E4B1868BDE8F843FFF7C4B962
:10220000136823F00F030B431360136803F00F03ED
:102210008B42A6D1AEE76F68424C032F236849D1A9
:102220009B019ED5E368E26803F00303032BE36898
:102230000CBF40484048C2F30312C3F306230132E7
:10224000B0FBF2F25343E268C2F341620132520042
:10225000B3FBF2F3394A93421AD84FF00008A3684F
:1022600023F003033B43A360FFF7D0F941F2883921
:102270000746A3686A6803F00C03B3EB820F3FF4D0
:102280007DAFFFF7C3F9C01B4845F2D9032069E7CA
:10229000A36813F0F00F04D08807DED5AB68002BDD
:1022A000DBD1A36823F0F00343F08003A3604FF079
:1022B0008008D4E7022F09D113F4003F3FF451AF57
:1022C000FFF714FF1D4B9842C7D9EAE713F4806F5C
:1022D000F4E7B8F1800F01BF124A936823F0F003CE
:1022E000936065E7236823F00F0333432360FFF710
:1022F0008DF941F288380746236803F00F03B34293
:102300003FF45DAFFFF782F9C01B4045F4D9BDE74C
:10231000A368E96823F4E0630B43A36055E700BFBB
:102320000020024000100240397E0008000000201A
:102330000800002000127A000024F40000B4C40455
:10234000054B064A9B68C3F30223D35C044A10681A
:1023500003F01F03D840704700100240317E000890
:1023600000000020054B064A9B68C3F3C223D35CE0
:10237000044A106803F01F03D84070470010024061
:10238000317E0008000000202DE9F341044600687A
:1023900010F4002056D0984DAB6DD80044D4AB6DEE
:1023A00043F08053AB65AB6D03F080530193019B09
:1023B0000126924F3B6843F480733B60FFF726F998
:1023C00080463B68D90531D5D5F8903013F4407379
:1023D00020D0226C93421DD0D5F89020D5F89030B3
:1023E00043F48033C5F89030D5F8903022F4407132
:1023F00023F48033D207C5F89030C5F8901009D582
:10240000FFF704F941F288380746D5F890309B076A
:1024100040F1EB80D5F89030226C23F440731343E5
:10242000C5F89030002008E00026C2E7FFF7EEF87C
:10243000A0EB08000228C4D903201EB1AB6D23F025
:102440008053AB652368DE0708D56B496568D1F812
:10245000882022F003022A43C1F888209D0708D56E
:102460006549A568D1F8882022F00C022A43C1F8FA
:102470008820590708D56049E568D1F8882022F0FE
:1024800030022A43C1F888201A0708D55A4925691D
:10249000D1F8882022F0C0022A43C1F888209F0684
:1024A00008D555496569D1F8882022F440622A434D
:1024B000C1F888205E0608D54F49A569D1F8882063
:1024C00022F440522A43C1F888201D0608D54A4903
:1024D000E569D1F8882022F440422A43C1F88820D7
:1024E000D90508D54449256AD1F8882022F440321C
:1024F0002A43C1F888209A0508D53F49656AD1F872
:10250000882022F440222A43C1F888205F050FD595
:102510003949A56AD1F8882022F440122A43C1F82B
:102520008820B5F5801F02BFCA6842F48012CA60D5
:102530001E050FD53049E56AD1F8882022F4400203
:102540002A43C1F88820B5F5800F02BFCA6842F45B
:102550008012CA60DD040FD52749256BD1F8882089
:1025600022F040722A43C1F88820B5F1807F02BF73
:10257000CA6842F48012CA6099040FD51E49656B7F
:10258000D1F8882022F040622A43C1F88820B5F1B2
:10259000006F02BFCA6842F48012CA605A040FD5A5
:1025A0001549A56BD1F8882022F040622A43C1F872
:1025B0008820B5F1006F02BFCA6842F48012CA6079
:1025C0001B040FD50C4AE16BD2F8883023F040533E
:1025D0000B43B1F1805FC2F8883003D1D36843F474
:1025E0008033D36002B0BDE8F081FFF70FF8C01B65
:1025F00040457FF60AAF1FE7001002400070004020
:102600007047704770477047704770477047704712
:102610007047000090F83D30012B2BD1022380F849
:102620003D300368DA6842F00102DA60124A9342F0
:1026300012D0B3F1804F0FD0A2F5943293420BD059
:1026400002F58062934207D002F59632934203D09E
:1026500002F54062934207D19968084A0A40062A67
:1026600006D0B2F5803F03D01A6842F001021A602A
:102670000020704701207047002C01400700010036
:10268000036870B5DD681E69B10704460FD5AA0757
:102690000DD56FF002021A61012202779B699B0738
:1026A00000F0B280D0F89430984700232377700769
:1026B00012D5690710D523686FF004021A6102224F
:1026C00022779B6913F4407F00F0A580D4F8943002
:1026D0002046984700232377320711D52B070FD5C3
:1026E00023686FF008021A6104222277DB699807D9
:1026F00000F09880D4F89430204698470023237740
:10270000F10612D5EA0610D523686FF010021A619F
:1027100008222277DB6913F4407F00F08A80D4F826
:1027200094302046984700232377F30709D5E8071C
:1027300007D523686FF001021A612046D4F884306F
:10274000984716F4025F09D0290607D523686FF46D
:1027500002521A612046D4F8B4309847F20509D5E0
:102760002B0607D523686FF480721A612046D4F8CF
:10277000B8309847700609D5690607D523686FF009
:1027800040021A612046D4F88C309847B20609D529
:10279000AB0607D523686FF020021A612046D4F8F3
:1027A000AC309847F00209D5E90207D523686FF4E9
:1027B00080121A612046D4F8BC309847B20209D57D
:1027C000AB0207D523686FF400121A612046D4F8D3
:1027D000C0309847700209D5690207D523686FF4A5
:1027E00080021A612046D4F8C4309847320227D5B7
:1027F0002B0225D523686FF400021A612046D4F815
:10280000C830BDE870401847D0F89C309847D4F8DD
:10281000A030204648E7D4F89C3020469847D4F8AA
:10282000A03055E7D4F89C3020469847D4F8A03023
:1028300062E7D4F89C3020469847D4F8A03070E77F
:1028400070BD0000254A036890420ED0B0F1804F61
:102850000BD0A2F59432904207D002F580629042EC
:1028600003D002F59632904208D14A6823F07003F3
:102870001343CA6823F4407313430AE0184A904292
:10288000F7D002F580629042F3D002F58062904268
:10289000EFD04A6923F0800313438A68C2620A6852
:1028A00082620E4A90420FD002F5006290420BD035
:1028B00002F54062904207D002F58062904203D058
:1028C00002F58062904201D10A690263026842F017
:1028D000040202600122426103607047002C014043
:1028E000004001401B4BC0F884301B4BC0F88830BF
:1028F0001A4BC0F88C301A4BC0F89030194BC0F806
:102900009430194BC0F89830184BC0F89C30184BD5
:10291000C0F8A030174BC0F8A430174BC0F8A8304F
:10292000164BC0F8AC30164BC0F8B030154BC0F8A1
:10293000B430154BC0F8B830144BC0F8BC30144B51
:10294000C0F8C030134BC0F8C430134BC0F8C830C7
:10295000704700BF95120008012600080D260008E8
:102960000F26000805260008072600080326000891
:10297000092600080B26000811260008952A0008E1
:10298000972A0008992A00089B2A00089D2A000817
:102990009F2A0008A12A0008A32A000810B50446AF
:1029A00080B390F83D3003F0FF024BB980F83C2033
:1029B000FFF798FFC36C0BB9134BC36420469847CD
:1029C0000223206884F83D30211DFFF73BFF0123DF
:1029D00084F84830002084F83E3084F83F3084F892
:1029E000403084F8413084F8423084F8433084F831
:1029F000443084F8453084F8463084F8473084F811
:102A00003D3010BD0120FCE7B913000830B590F847
:102A10003C30012B04464FF0020037D023681C4D98
:102A200084F83D00AB425A68986803D005F500650C
:102A3000AB4203D14D6822F470022A430D6822F0A4
:102A4000007222F070022A435A60114A934212D057
:102A5000B3F1804F0FD0A2F5943293420BD002F520
:102A60008062934207D002F59632934203D002F57A
:102A70004062934204D1896820F080020A439A6040
:102A80000123002084F83D3084F83C0030BD00BFB5
:102A9000002C01407047704770477047704770477F
:102AA00070477047026852E8003F23F0C00342E8D5
:102AB000003102680029F5D102F1080353E8003F14
:102AC00023F4000302F1080C4CE800310029F3D193
:102AD0002023C0F88830704710B5026852E8003FE4
:102AE00023F4907342E8003102680029F5D10F4CBD
:102AF00002F1080353E8003F234002F1080C4CE8C0
:102B000000310029F4D1C36E012B07D152E8003FF8
:102B100023F0100342E800310029F7D12023C0F848
:102B20008C300023C366436710BD00BFFEFFFFEF7C
:102B3000F8B504461346D4F88850202D32D1F1B1AF
:102B4000EAB1E06FA4F85620A4F854200026212210
:102B5000C4F890602165C4F8882090B1124F2268B3
:102B6000C762124F0763124F2832C0E90D76FEF795
:102B700079FE30B11023C4F89030C4F88850012099
:102B8000F8BD236840221A62226802F1080353E864
:102B9000003F43F0800302F1080141E800300028C3
:102BA000F3D1EDE70220EBE7B72B0008FF2B00087D
:102BB0000B2C0008704708B50346806A1B681B6829
:102BC00013F0200317D1A0F85630026802F1080371
:102BD00053E8003F23F08003083242E800310268E6
:102BE0000029F2D152E8003F43F0400342E80031AF
:102BF0000029F7D108BDFFF7DDFFFBE7704708B5F7
:102C0000806AFFF7FBFF08BD7047806A38B504682B
:102C1000D0F88830D0F88C50A268120603D5212B4A
:102C200001D1FFF73FFFA3685B0603D5222D01D139
:102C3000FFF752FFD0F8903043F01003C0F8903007
:102C4000FFF7E2FF38BD08B5806AFFF7DDFF08BD7A
:102C5000704700000368D9691A682DE9F04140F611
:102C60000F0631429D68044610D18E0640F19780D0
:102C700002F0200605F080573E4300F09080436F3D
:102C8000002B00F08580BDE8F0411847A84EA94808
:102C90002E401040304300F08280CF0709D5D00588
:102CA00007D501201862D4F8900040F00100C4F864
:102CB00090008F0709D5E80707D502201862D4F8DD
:102CC000900040F00400C4F890004F0709D5E807D1
:102CD00007D504201862D4F8900040F00200C4F830
:102CE00090000F070BD502F02000304307D00820DA
:102CF0001862D4F8900040F00800C4F890000E0567
:102D00000AD5500108D54FF400601862D4F890300D
:102D100043F02003C4F89030D4F89030002B37D023
:102D20008B0609D502F0200205F080552A4303D016
:102D3000636F0BB1204698472668D4F89020B3689B
:102D400002F0280203F0400353EA0205204621D096
:102D5000FFF7C2FEB3685F0617D5226802F10803C9
:102D600053E8003F23F04003083242E800310029D5
:102D7000F3D1D4F8800040B16F4B8363FEF7E8FDD8
:102D800030B1D4F88000836B7DE72046FFF73CFF2D
:102D9000BDE8F081FFF738FFC4F89050F8E7E06E27
:102DA000012840F08D80CE0640F18A80D00640F1A7
:102DB000878010221A629968B4F85C20490651D5C0
:102DC000D4F880100868416889B2002942D0914245
:102DD00040D2A4F85E10026892062FD453E8002F68
:102DE00022F4807243E800210029F7D103F10802A0
:102DF00052E8002F22F0010203F1080040E8002110
:102E00000029F3D103F1080252E8002F22F040021A
:102E100003F1080040E800210029F3D12022C4F882
:102E20008C20E16653E8002F22F0100243E80021D5
:102E30000029F7D1D4F88000FEF754FD0223236760
:102E4000B4F85E30B4F85C10C91A89B22046FFF7B6
:102E5000FFFE9DE791429BD103689B0698D5022314
:102E60002367F3E7B4F85E10B4F85E0080B289B26D
:102E700000288DD0521A91B2002989D053E8002F32
:102E800022F4907243E800200028F7D12B4D03F183
:102E9000080252E8002F2A4003F1080646E8002005
:102EA0000028F4D12022C4F88C206067E06653E843
:102EB000002F22F0100243E800200028F7D1CEE7CF
:102EC000CF0209D56E0207D54FF4801220461A6250
:102ED000BDE8F04100F0A0BA08060BD502F0800072
:102EE00005F40005284305D0A36F002B3FF450AF35
:102EF0002046C8E64F0611D556060FD553E8002FD9
:102F000022F0400243E800210029F7D12023C4F831
:102F10008830A1672046FFF74DFE39E70D020FD537
:102F200050000DD52046BDE8F04100F077BA00BF53
:102F30000100001020010004472C0008FEFFFFEFF5
:102F4000CB017FF525AF002ABFF622AF2046BDE8B2
:102F5000F04100F062BA00BFF8B50446C0692169CB
:102F6000A26823680A4361691D680A437B490243DA
:102F700029400A431A605A68E16822F440520A4321
:102F80005A60774AA16993421CBF226A11439A682A
:102F900022F06E4222F430620A439A60DA6A616A71
:102FA00022F00F020A43DA626E4A934230D16E4B2E
:102FB000D3F8883003F00303022B00F0CA80032B00
:102FC00000F0B780012B00F0BB80B0F5004F40F05F
:102FD000BD80FFF7C7F9002866D06168634B626A5D
:102FE00033F81220B0FBF2F24B0803EB42034FF62A
:102FF000EF72B3FBF1F3A3F1100191421FD823F05C
:103000000F02216892B2C3F342031343CB604BE03B
:10301000574A934215D1544BD3F8883003F00C0330
:10302000082B00F0968008D8002B40F08980B0F57E
:10303000004F67D1FFF784F9CDE70C2B79D0012041
:1030400033E04C4A934209D1474BD3F8883003F020
:103050003003202B7DD0E7D9302BEFE7464A93424F
:1030600009D1414BD3F8883003F0C003802B70D0D6
:10307000DAD9C02BE2E73A4A9342E0D13A4BD3F88F
:10308000883003F44063B3F5006F15D003D843B91B
:10309000FFF756F907E0B3F5406FD0D14FF4004089
:1030A0000BE0FFF723F840B900204FF00113A366AF
:1030B0000023C4E91D33F8BD304865682B4B626AB4
:1030C00005EB450133F81220B0FBF2F39942B6D874
:1030D000B3EB053FB3D800231946FDF7FDFD0023F0
:1030E000194606464FF4807768082A46E6FB070132
:1030F000FDF7F2FD224BA0F540729A429FD823685B
:10310000D860D1E7FFF71CF90028CDD06368616A69
:10311000164A32F81120B0FBF2F000EB5300B0FB7E
:10312000F3F04FF6EF73A0F11002E6E7FEF7DEFFD3
:10313000EAE7B0F5004F3FF450AF4FF40040E5E749
:10314000B0F5004FF2D1FEF7D1FF44E7FFF70AF9DF
:10315000DAE7B0F5004F0948D8D13EE7F369FFCF71
:103160000080004000380140001002404A7E000804
:103170000044004000480040004C00400024F4009F
:10318000FFFC0F00836A1A0710B506D50168846B2F
:103190004A6822F4004222434A60DC0706D50168EF
:1031A000C46A4A6822F4003222434A60990706D56D
:1031B0000168046B4A6822F4803222434A605A074D
:1031C00006D50168446B4A6822F4802222434A6093
:1031D000DC0606D50168C46B8A6822F4805222435B
:1031E0008A60990606D50168046C8A6822F4005248
:1031F00022438A605A060FD50168446C4A6822F45B
:1032000080122243B4F5801F4A6005D14A68846C5D
:1032100022F4C00222434A601B0606D50268C16C34
:10322000536823F400230B43536010BD2DE9F8438A
:10323000DDF8209004460D46174698462268D3696B
:1032400035EA03030CBF01230023BB4201D0002059
:1032500022E0B9F1FF3FF2D0FEF7D8F9A0EB080069
:10326000484529D8B9F1000F26D021680B685A07C4
:10327000E4D5802DE2D0402DE0D0CE6916F00806CE
:103280000CD0082520460D62FFF726FC0023C4F869
:10329000905084F884300120BDE8F883CB691B0589
:1032A000CCD54FF400630B622046FFF715FC2023BA
:1032B000C4F8903084F884600320EDE773B50446C9
:1032C0000026C0F89060FEF7A1F923681B681A0772
:1032D00005461CD56FF07E430093324603464FF4FB
:1032E00000112046FFF7A2FF88B1226852E8003F94
:1032F00023F0800342E800310029F6D12023C4F8EE
:1033000088300320002384F8843002B070BD236825
:103310001B685B0724D56FF07E43009300222B4689
:103320004FF480012046FFF781FFC8B1226852E8C0
:10333000003F23F4907342E8003122680029F5D160
:1033400002F1080353E8003F23F0010302F10800F3
:1033500040E800310029F3D12023C4F88C30D0E7B5
:1033600020230020C4F88830C4F88C30E066206741
:10337000C8E710B5044650B3D0F888301BB980F8C0
:103380008430FEF773F822682423C4F88830136869
:1033900023F001031360A36A13B12046FFF7F2FE86
:1033A0002046FFF7D9FD012811D023685A6822F47E
:1033B00090425A609A6822F02A029A601A6842F093
:1033C000010220461A60BDE81040FFF777BF0120D8
:1033D00010BD0000436E30B52BB90123A0F86A3050
:1033E000A0F8683030BD0368094D9A689968094CA7
:1033F000490FC2F342626B5C615CDB00B3FBF1F32B
:10340000A0F86A30AB5CA25CDB00B3FBF2F3E7E749
:103410006A7E0008627E000870477047704790F827
:103420008430012B14D002682423C0F8883011683E
:10343000136823F00103136021F000510023436659
:1034400011602022C0F8882080F884301846704728
:103450000220704770B590F88430012B044617D0D5
:1034600005682423C0F888302E682B6823F00103F8
:103470002B60AB6823F060431943A960FFF7AAFFF4
:1034800020232E60C0F88830002084F8840070BDAE
:103490000220FCE770B590F88430012B044617D069
:1034A00005682423C0F888302E682B6823F00103B8
:1034B0002B60AB6823F060631943A960FFF78AFFB4
:1034C00020232E60C0F88830002084F8840070BD6E
:1034D0000220FCE72DE9FF4757EC106B002F0C464C
:1034E00019463B46BBBF07F100431F4600232D236F
:1034F0000B700D9BDDF830A0914623F02008BCBF77
:1035000032461646B8F1460F05D0B8F1450F00D146
:103510000134022100E0032103AB019302AB0093CD
:1035200047EC106B5346224601F0AAF8B8F1470F5A
:10353000054619D119F0010F0ED000EB0409002245
:10354000002330463946FDF7E7FA08B1CDF80C9074
:103550003022039B4B451ED3039B0E9A5B1B2846D0
:10356000136004B0BDE8F087B8F1460F00EB040922
:10357000E5D10378302B0AD10022002330463946AA
:10358000FDF7CAFA18B9C4F10104CAF80040DAF824
:1035900000309944D3E7591C03911A70D9E7F7B565
:1035A0000029BABF49422D232B23092902704370F9
:1035B00029DD0DF1070425460A272246B1FBF7F65F
:1035C00007FB1613303302F8013C0B46632B04F162
:1035D000FF343146F1DC3031931E04F8011C411CEC
:1035E0001C46AB420AD30DF109039B1AA54238BF12
:1035F0000023821C1344181A03B0F0BD13F8016BAA
:1036000001F8016FEDE7302330318370C170031D85
:10361000F1E700002DE9F04F8DB00C46DDF8588041
:1036200016461F46054600F025FF03680693184618
:10363000FCF746FE00230A93D8F8003094F818A04F
:10364000D4F800B00790073323F00703B3EC027BF4
:103650008DED047BC8F80030DDE9048323F00049D8
:1036600084ED127B9C4B4FF0FF3240464946FDF7FC
:1036700085FA70BB984B4FF0FF3240464946FDF744
:103680005FFA30BBDDE9040100220023FDF74EFAAA
:1036900010B12D2384F84330904A914BBAF1470F73
:1036A0008CBF90469846032323612BF004032360CC
:1036B0004FF00009009733460BAA2146284600F038
:1036C000D1F9013040F08C804FF0FF300DB0BDE8F3
:1036D000F08FDDE9042310461946FDF74FFA40B19B
:1036E000059B804A002BBCBF2D2384F843307E4BC2
:1036F000D4E763685A1C0AF0DF093BD106236360F4
:103700004BF480620023226003930AABCDE901A34E
:1037100009AB009361689DED040B0DF1230328466E
:10372000FFF7D8FEB9F1470F0999804629D1C81C87
:1037300002DB63688B4241DAAAF1020A5FFA8AFA75
:103740000139524604F150000991FFF728FF0A9A07
:103750001318012A8146236102DC2268D20701D5B1
:10376000013323619DF82330002BA3D02D2384F84F
:1037700043309FE7B9F1470FC2D1002BC0D10123DD
:10378000BDE7BAF1650FDBD9BAF1660F18D1002990
:1037900063680BDD216113B92268D00702D50133BC
:1037A0000B442361A1654FF00009DBE713B92268E0
:1037B000D20701D50233F4E70123F2E74FF0670A9D
:1037C0000A9B8B4205DC23682161D807EAD54B1C94
:1037D000E7E70029D4BFC1F1020201221344E0E768
:1037E00023685A0507D42369424631462846B8471C
:1037F00001302BD168E7BAF1650F40F2DD80D4E9E2
:10380000120100220023FDF787F9002833D0374A40
:10381000012331462846B84701303FF455AFDDE972
:103820000938434502DB2368D8070FD5DDE90623B5
:1038300031462846B84701303FF446AF4FF0000903
:1038400008F1FF3804F11A0AC84509DC23689B0710
:1038500000F10381E0680B9B9842B8BF184635E73A
:103860000123524631462846B84701303FF42CAF79
:1038700009F10109E8E7099B002B39DC1B4A012308
:1038800031462846B84701303FF41EAFDDE909391B
:1038900059EA030302D12368D907D7D5DDE9062306
:1038A00031462846B84701303FF40EAF4FF0000ACA
:1038B00004F11A0B099B5B42534501DC4B4693E72D
:1038C00001235A4631462846B84701303FF4FCAE42
:1038D0000AF1010AEEE700BFFFFFEF7F5F7C0008FF
:1038E0005B7C0008677C0008637C00086B7C000838
:1038F000A36DDDF828A05345A8BF5346002B994679
:1039000036DC4FF0000B29EAE97904F11A02A36DC5
:103910000493A3EB09035B4531DC099B9A453ADC30
:103920002368DA0737D4099BAAEB0309049BAAEBA7
:1039300003039945A8BF9946B9F1000F33DC4FF056
:10394000000829EAE97904F11A0B099BAAEB0303A1
:10395000A3EB090343457FF779AF01235A4631466C
:103960002846B84701303FF4AFAE08F10108ECE754
:10397000424631462846B8470130C2D1A4E6012369
:10398000314628460492B84701303FF49DAE049A70
:103990000BF1010BBBE7DDE9062331462846B847AA
:1039A0000130C0D190E6049A4B4642443146284645
:1039B000B8470130C3D187E6DDF828A0BAF1010F7E
:1039C00001DCDB0736D50123424631462846B8479D
:1039D00001303FF479AEDDE9062331462846B84789
:1039E00001303FF471AED4E91201002200230AF144
:1039F000FF3AFDF791F8C0B9534608F1010231468C
:103A00002846B84701300CD15EE601235A463146BC
:103A10002846B84701303FF457AE08F10108D045B9
:103A2000F3DB4B4604F15002DFE64FF0000804F1EF
:103A30001A0BF4E701234246E1E701234A463146E7
:103A40002846B84701303FF43FAE08F10108E3686B
:103A50000B995B1A4345F0DCFCE64FF0000804F1DB
:103A60001909F4E72DE9F047164698468A680B696C
:103A7000DDF820909342B8BF1346336091F843209D
:103A800007460C460AB1013333602368990642BFEA
:103A9000336802333360256815F0060506D104F15A
:103AA000190AE36832689B1AAB4226DC94F843306B
:103AB0002268003B18BF012392062BD404F1430275
:103AC00041463846C84701301ED02368226903F0BA
:103AD0000603042B02BFE5683368ED1AA3680CBF28
:103AE00025EAE57500259342C4BF9B1AED18002610
:103AF0001A34B5421AD1002008E00123524641464B
:103B00003846C847013003D14FF0FF30BDE8F08799
:103B10000135C6E7E1185A1C302081F843002244E1
:103B200094F8451082F843100233C7E70123224678
:103B300041463846C8470130E6D00136D9E7000093
:103B40002DE9F0430D7E85B0782D90460C9E0746FA
:103B50000C46994601F1430207D8622D0AD8002D80
:103B600000F0D780582D00F0BC8004F1420684F8A4
:103B700042503BE0A5F16303152BF6D801A151F8A3
:103B800023F000BFDD3B0008F13B00086B3B000861
:103B90006B3B00086B3B00086B3B0008F13B0008E7
:103BA0006B3B00086B3B00086B3B00086B3B00085D
:103BB000F93C00081B3C0008AB3C00086B3B0008CC
:103BC0006B3B00081B3D00086B3B00081B3C0008DA
:103BD0006B3B00086B3B0008B33C000833681A1DC0
:103BE0001B68326004F1420684F842300123A1E0F0
:103BF00033682068191D3160060601D51D6803E091
:103C00004506FBD5B3F90050002D03DA2D236D4294
:103C100084F843305B480A2311E0216833680806C2
:103C200053F8045B02D4490648BFADB23360237E2B
:103C300054486F2B5CD10823002184F84310666838
:103C4000A660002E05DB21682E4321F004012160CF
:103C500050D01646B5FBF3F103FB115C10F80CC015
:103C600006F801CDAC4663450D46F3D9082B0BD1C0
:103C70002368DB0708D5236961689942DEBF3023DA
:103C800006F8013C06F1FF36921B2261CDF8009048
:103C9000434603AA21463846FFF7E4FE01304ED1E1
:103CA0004FF0FF3005B0BDE8F083236843F02003F8
:103CB00023603548782584F845502368316813F02F
:103CC000800F51F8045B03D113F0400F18BFADB261
:103CD0003160D90744BF43F0200323601DB1102396
:103CE000AAE72848E7E7236823F020032360F6E7E4
:103CF0000A23A1E71646B9E7336825686169181DEC
:103D000030602E061B6801D5196002E06806FBD5FD
:103D10001980002323611646B8E733681A1D326004
:103D20001E68626800213046FCF77AFA08B1801BF1
:103D3000606063682361002384F84330A6E7236949
:103D4000324641463846C8470130A9D023689B0710
:103D500013D4E068039B9842B8BF1846A2E701233A
:103D6000324641463846C847013099D00135E368AC
:103D700003995B1AAB42F2DCEBE7002504F119066C
:103D8000F5E700BF6D7C00087E7C00082DE9F04F50
:103D900087B0914603938B685A1EB2F5AE7F81BF00
:103DA0006FF4AE7503EB050B40F25D138B600B688F
:103DB0000A464FF0000543F4F06342F81C3BCDE99E
:103DC000045580460C4698BF4FF0000B01921646F2
:103DD000AA462F460295A2685AB1D9F800301B783E
:103DE0004E2B63D8402B3BD8A3F12B01C8B20E2831
:103DF00039D91FB1236823F4807323600AF1FF3A95
:103E0000BAF1010F00F21481019B9E4200F205817C
:103E1000012007B0BDE8F08FA3F161020D2AE8D8B8
:103E200001A151F822F000BF713F0008F33D0008E6
:103E3000F33D0008F33D0008CD3F0008A73F000810
:103E4000F33D0008F33D00087F3F0008F33D000804
:103E5000F33D0008F33D0008F33D00083B3F000838
:103E6000A3F14102DAE70E29C3D801A050F821F0EE
:103E70002B3F0008F33D00082B3F0008BB3F000824
:103E8000F33D0008CD3E0008113F0008113F000837
:103E9000113F0008113F0008113F0008113F0008C2
:103EA000113F0008113F0008113F00086E2B09D890
:103EB000602BB1D8542B7BD0592B9AD1072D98D198
:103EC00008252FE0742B73D0792BF6E72168C805FD
:103ED0001ED521F0800121600137BBF1000F03D016
:103EE00001320BF1FF3BA260A368013BA360236991
:103EF00001332361D9F80430013B002BC9F80430A9
:103F000040F38280D9F800300133C9F8003062E70D
:103F10001AEB05017FF46DAF226822F4C0722260B3
:103F20000D468A4606F8013BDEE7226810067FF55B
:103F300060AF22F080022260F4E7BAF1000F0CD1EA
:103F400077B9226802F4E061B1F5E06F08D122F49C
:103F5000F06222604FF0010AE4E7BAF1020F50D09C
:103F6000012D02D0042D7FF444AF0135EDB2D9E725
:103F7000BAF1010F7FF43DAF4FF0020AD2E775B9F5
:103F8000002F7FF437AF226802F4E061B1F5E06FF3
:103F900040F0028122F4F06222600125C2E7032D85
:103FA000E3D0052DDFE7022D7FF423AF0325B9E72A
:103FB000062D7FF41EAF0725B4E7226891057FF533
:103FC00018AF22F4207222600297ABE7226802F455
:103FD000A061B1F5806F05D050057FF50AAF002FC5
:103FE00000F0DA80910558BF029922F4F06258BFC0
:103FF000791A42F4C07258BFCDE904162260002736
:1040000090E74FF0030A8DE7D4F8803149464046E7
:10401000984700283FF4DFAEEBE6D4F87C3116F881
:10402000011D4A46404698472369013B2361EBE660
:104030006B1E062B24D8022D36D8019B9E427FF69C
:10404000E7AED4F87C3116F8011D4A464046984741
:104050002369013B2361F0E7D4F87C311BF8011D93
:104060004A46404698472369013B23610AF1FF3ADB
:104070005FFA8AFABAF1020FEED1033DEDB2761B78
:104080002368DA0530D55D0511D5019B9E427FF688
:10409000BFAED4F87C3116F8011D4A464046984719
:1040A0002369013B2361F0E7AA46B346DEE716F831
:1040B000011C2369652903F1FF3306F1FF352361F4
:1040C0000CD045290AD0D4F87C314A46404698475E
:1040D000236916F8021C013BB51E2361D4F87C311C
:1040E0004A46404698472E46226812F0100201D0F8
:1040F00000208EE63270236803F4C063B3F5806F4E
:1041000024D1029B9F420AD0DA1B04F26F139E4215
:1041100028BF04F5B7762149304600F03DF90199F2
:104120000022404602F03CFC039B21681B68880784
:1041300057EC106B03F1040215D503990A601B6854
:10414000C3E90067E3680133E360D1E7049B002B18
:10415000E5D005990A230131404602F0A1FC049BF9
:10416000059EC21AD1E711F0040F03990A60E6D147
:104170001D6832463B4630463946FCF7FFFC28B105
:10418000074800F0EFF985ED000ADBE730463946D5
:10419000FCF752FD2860D5E700272FE68F7C00084A
:1041A0005A7C0008002310B50446C0E90033C0E97A
:1041B0000433836081814366C2818361194608228A
:1041C0005C3000F04FF90D4B63620D4BA3620D4B59
:1041D000E3620D4B23630D4B24629C4206D003F136
:1041E0006802944202D0D0339C4205D104F15800B9
:1041F000BDE8104000F0B2B910BD00BFDD430008BB
:10420000FF430008374400085D440008BC04002058
:10421000024A0349034800F06BB800BF0C000020BD
:10422000596E00081C00002041680C4B994210B5E3
:10423000044601D002F010FEA168094B994202D059
:10424000204602F009FEE168064B994204D0204660
:10425000BDE8104002F000BE10BD00BFBC0400204D
:10426000240500208C0500200C4B0D4A0D4810B58C
:1042700004211A600022FFF795FF0A4B01221C4619
:10428000092103F16800FFF78DFF04F1D00002223D
:10429000BDE810401221FFF785BF00BFF4050020E4
:1042A00011420008BC040020014800F058B900BFCA
:1042B000FD050020014800F053B900BFFD050020B6
:1042C00010B50446FFF7F0FF236A1BB1BDE81040AC
:1042D000FFF7F0BF044B2362044B1B68002BF5D1A2
:1042E000FFF7C2FFF2E700BF29420008F4050020F3
:1042F0002DE9F8430746884614460026D4E901957F
:10430000B9F1010905D52468002CF7D13046BDE884
:10431000F883AB89012B07D9B5F90E30013303D0EF
:1043200029463846C04706436835E9E70CB430B53E
:10433000184B0C1E1D689DB008DA8B232B604FF0C4
:10434000FF301DB0BDE8304002B070474FF402733B
:10435000ADF814304FF000031B9314BF04F1FF338A
:104360002346049307934FF6FF7302900690ADF82F
:104370001630209A21AB02A92846019302F0F2FBE5
:10438000431CBCBF8B232B60002CDAD0029B002285
:104390001A70D6E7180000200EB410B59DB01FAB00
:1043A000029006906FF000410A48079104910A4973
:1043B00053F8042B0591002402A9006801931B9473
:1043C00002F0D0FB029B1C701DB0BDE8104003B092
:1043D000704700BF180000200802FFFF10B50C4610
:1043E000B1F90E1000F06CF80028ABBF636DA38923
:1043F0001B1823F48053ACBF6365A38110BD2DE966
:10440000F0411F468B89DB0505460C46164605D54F
:10441000B1F90E100223002200F040F8A389B4F98C
:104420000E1023F48053A38132463B462846BDE854
:10443000F04100F057B810B50C46B1F90E1000F07D
:104440002DF8B4F90C30421C0BBF23F4805343F415
:104450008053A381A38118BF606510BDB1F90E1010
:1044600000F00CB802440346934200D1704703F8B1
:10447000011BF9E7004870475801002038B5064D88
:104480000023044608462B60FCF73EFF431C02D184
:104490002B6803B1236038BDF805002038B5074DFF
:1044A00004460846114600222A601A46FCF736FFE9
:1044B000431C02D12B6803B1236038BDF8050020EE
:1044C00038B5074D04460846114600222A601A46B0
:1044D000FCF7FEFE431C02D12B6803B1236038BDFC
:1044E000F805002038B5074D04460846114600225D
:1044F0002A601A46FCF7FAFE431C02D12B6803B16E
:10450000236038BDF8050020014B1868704700BFD4
:104510001800002070B50D4B0D4D5B1B9C10002644
:10452000A64209D103F082FB0A4D0B4B5B1B9C108A
:104530000026A64205D170BD55F8043B98470136C8
:10454000EEE755F8043B98470136F2E7CC800008C7
:10455000CC800008CC800008D080000870477047ED
:10456000704700009FED010A704700BF0000C07F48
:104570002DE9F74F03690C69A34207467EDB013C36
:1045800001F11408A30000F11405009305EB840366
:10459000019358F8243055F8242001339A4208EB4F
:1045A0008409B2FBF3F62ED34FF0000AC446AE46A0
:1045B000D3465CF8043B98B206FB00A0020C1B0C2F
:1045C00006FB0323DEF8002080B292B2121A5A448E
:1045D000DEF800004FEA134A9BB2C3EB224303EB21
:1045E000104392B242EA0342E1454EF8042B4FEAEF
:1045F000234BDED2009BEB582BB9019B043B9D4221
:104600001A462FD33C61384601F0DCF9002825DB3F
:104610002946002058F8042BD1F800C01FFA82FE6A
:104620001FFA8CF3A3EB0E030344120CC2EB2342DC
:1046300002EB1C429BB243EA0243C14541F8043BF2
:104640004FEA2240E6D255F8242005EB840322B934
:10465000043B9D421A460BD33C610136304603B001
:10466000BDE8F08F1268043B002ACBD1013CC6E7BD
:104670001268043B002AEFD1013CEAE70020EEE794
:104680002DE9F04F99B08DED0E0B0C92C269229C72
:104690000A9157EC106B8146139382B9102000F0F9
:1046A00015FE0246C9F81C0020B9AB4BEF21AB4800
:1046B00002F04EFC0023C0E901330360C3601168BF
:1046C00059B152684A60012393408B60484600F01C
:1046D000F1FED9F81C3000221A60B7F10008B5BF0E
:1046E00001230023236023609D4BBCBF28F00048BA
:1046F000CDF83C8033EA08031AD1139AC8F31308A3
:1047000042F20F7358EA0608136000F06885239B95
:1047100053B9944B21E0944B00930833239A1360D0
:10472000009819B0BDE8F08F8E4B00930333F5E786
:104730009DED0E7B002251EC170B00238DED067BC7
:10474000FCF7EAF9824650B1139A01231360239BC8
:1047500013B1239A854B1360854B0093E0E79DEDE1
:10476000060B16AA17A9484601F050FA5FEA18543A
:10477000169D019079D0079BCDF850A0C3F3130389
:10478000DDE9060143F07F5343F44013A4F2FF3404
:1047900019460022774BFBF79FFD69A3D3E900235D
:1047A000FBF752FF68A3D3E90023FBF797FD06460A
:1047B00020460F46FBF7DEFE65A3D3E90023FBF797
:1047C00043FF02460B4630463946FBF787FD064657
:1047D0000F46FCF7E9F900228046002330463946AF
:1047E000FCF7A4F948B14046FBF7C4FE32463B460D
:1047F000FCF792F908B908F1FF38B8F1160F51D853
:104800005D4B03EBC803D3E90023DDE90601FCF7A8
:104810008DF9002848D008F1FF38002312932D1B92
:104820006B1E089343BF0023C5F1010708930027BF
:10483000B8F1000F3ADB089BCDF83480434408936D
:10484000002309930A9B092B62D8052BC4BF043BA4
:104850000A930A9BA3F10203CCBF00240124032B7B
:1048600062D8DFE803F05153362B179C2C4404F236
:104870003243202BC1BFC3F1400308FA03F804F20E
:10488000124326FA03F3D6BFC3F1200348EA03001C
:1048900006FA03F0FBF75EFE0122A1F1F873013C7A
:1048A000149275E70123B9E71290B8E7C8F1000345
:1048B00009930023A7EB08070D93C3E701230B938C
:1048C0000C9B434405930133012B0493B8BF012390
:1048D00006E001230B930C9B002B28DDCDE904336C
:1048E000D9F81C000021042202F114059D4223D9AD
:1048F0004160484600F0A0FD0090002840D11F4BC9
:10490000024640F2AF11D2E60023E3E70023D6E7E8
:1049100001240023CDE90A344FF0FF33CDE90433FD
:10492000002212230C92DBE701230B93F4E701230F
:10493000CDE904331A46F5E701315200D4E700BF50
:1049400061436F63A787D23FB3C8608B288AC63F95
:10495000FB799F501344D33FA17C0008B87C00082A
:104960000000F07F9D7C0008947C00086C7C0008AF
:104970006B7C00080000F83FA87E0008107D00084E
:10498000D9F81C30009A1A60049B0E2B00F2A1800B
:10499000002C00F09E80B8F1000F36DD9E4B08F031
:1049A0000F0203EBC20318F4807FD3E900AB4FEA98
:1049B000281516D0994BDDE90601D3E90823FBF74A
:1049C0006DFFCDE9020105F00F050324934E75B983
:1049D000DDE9020152465B46FBF760FF82468B46EB
:1049E0002DE09DED067B02248DED027BEEE7E907CD
:1049F00008D550465946D6E90023FBF725FE013479
:104A000082468B466D100836E1E700F0AD80C8F1B4
:104A10000005814B814E05F00F0203EBC203D3E981
:104A20000023DDE90601FBF70FFE2D1182468B46C0
:104A300000230224002D40F08C80002BCED1129B4D
:104A4000002B00F09580764B002250465946FCF72B
:104A50006DF8002800F08C80049B002B00F088800B
:104A6000059B002B35DD08F1FF3302935046594674
:104A70006C4B0022FBF7E8FD059E82468B46013415
:104A80002046FBF777FD52465B46FBF7DDFD664BA4
:104A90000022FBF723FC0446A1F15075CDE9104537
:104AA000002E69D1614B002250465946FBF714FC99
:104AB00022462B4682468B46FCF756F8002840F0EB
:104AC0009482224605F1004350465946FCF72EF8E1
:104AD00020BB179B002BC0F26081B8F10E0F00F3D2
:104AE0005C814D4B03EBC803D3E900AB0C9B002B5F
:104AF00080F2EE80049B002B00F3EA800ED14B4B3A
:104B0000002250465946FBF79FFD02460B46DDE961
:104B10000601FCF715F8002800F06A8200252C46F3
:104B20000C9B009EDB4302932746002429464846FF
:104B300000F0C0FC002F00F0C1802CB1BC4203D0BB
:104B40002146484600F0B6FC3946484600F0B2FC23
:104B5000B4E0EA0705D5D6E90023FBF775FD01347B
:104B600001236D10083665E7DDE906AB022466E730
:104B7000049ECDF8088083E7274B03EBC60353E977
:104B800002010B9B002B55D002460B460020284902
:104B9000FBF784FEDDE91023FBF79EFB009BCDE9CC
:104BA00010019D191E4659465046FBF7FDFF04466D
:104BB000FBF7E0FC02460B4650465946FBF78CFBE0
:104BC0003034DDE9102306F8014B82468B46FBF7B3
:104BD000ADFF002872D152465B4611490020FBF719
:104BE0007BFBDDE91023FBF7A1FF002840F0B68036
:104BF000AE423FF46EAFDDE910010A4B0022FBF735
:104C000023FD084BCDE91001002250465946FBF721
:104C10001BFD82468B46C6E7A87E0008807E000802
:104C20000000F03F0000244000001C400000144041
:104C30000000E03FDDE91023FBF706FD009B009D2F
:104C4000CDE910013344159359465046FBF7ACFFAC
:104C50000446FBF78FFC30340B460246594650465B
:104C6000FBF73AFB05F8014B159B9D4282468B46AC
:104C700027D1009B0022DDE910011E44B34BFBF756
:104C80002DFB02460B4650465946FBF76DFF0028A8
:104C900064D1DDE91023AD490020FBF71DFB02467E
:104CA0000B4650465946FBF741FF00283FF411AF31
:104CB000334616F8012D302AFAD01E46DDF808805A
:104CC0003AE0A34B0022FBF7BFFC82468B46BBE7D2
:104CD000009E52465B46DDE90601FBF7DFFDFBF770
:104CE00063FF0746FBF746FC52465B46FBF7ACFC0E
:104CF00002460B46DDE90601FBF7EEFA07F1300C40
:104D0000009C06F801CBA6EB040C049C644502460B
:104D10000B4633D1FBF7E2FA52465B4604460D469A
:104D2000FBF722FFC0B952465B4620462946FBF7F7
:104D3000F3FE08B1FB070FD40199484600F0BAFB17
:104D40000023139A337008F101031360239B002B97
:104D50003FF4E6AC1E60E3E4CDF8088033461E461F
:104D600013F8012D392A06D1009A9A42F7D1029AF6
:104D700001320292302201321A709FE7744B0022F6
:104D8000FBF762FC02460B46CDE906230022002316
:104D9000FBF7C2FE00289CD0CEE70B9A002A00F059
:104DA000E3800A9A012A00F3C280149A002A00F0D4
:104DB000BA8003F23343099D3E46089A01211A4402
:104DC00048461F44089200F073FC044656B1089B05
:104DD000002B07DDB342089AA8BF3346FF1AF61A24
:104DE000D31A0893099B0BB30B9B002B00F0C380D5
:104DF000002D00F0BD8021462A46484600F018FDEF
:104E0000019A01460446484600F068FC0199824632
:104E1000484600F04FFB099B5B1B099300F0AE80F6
:104E2000099A5146484600F003FD01900121484689
:104E300000F03EFC0D9B0546002B00F0D7811A4682
:104E40000146484600F0F4FC0A9B012B054600F39E
:104E50009D800E9B002B40F094800F9BC3F31303A7
:104E6000002B40F08E800F9B23F000431B0D1B0591
:104E7000002B00F08980089B0133013708934FF025
:104E8000010A0D9B002B00F0B7812B6905EB830312
:104E9000186900F0C1FBC0F12000089B184410F015
:104EA0001F007ED0C0F12003042B72DD089BC0F1EF
:104EB0001C000344074406440893002F05DD0199B4
:104EC0003A46484600F010FD0190089B002B05DD96
:104ED00029461A46484600F007FD0546129B002B5E
:104EE00061D00198294600F06DFD00285BDA08F1D9
:104EF000FF330293019900230A22484600F0FCFA8E
:104F00000B9B0190002B00F07981002321460A229F
:104F1000484600F0F1FA059B002B044672DC0A9B20
:104F2000022B49DC6EE0169BC3F1360343E7049B7A
:104F30005D1E099BAB420DDB5D1B049B002BBFF686
:104F40003BAF049BFE1A002337E700BF0000E03FA1
:104F500000002440099B0D9A0995EB1A1A440D9202
:104F6000049B3E46002528E7099D0B9C3E462DE705
:104F7000DDF804A054E7099A019953E7CDF804A09D
:104F800054E74FF0000A7CE79A467AE74FF0000AB0
:104F90007BE792D0089A1C331A441F441E4408929F
:104FA0008BE70346F6E7049BCDF80880002B23DC53
:104FB00005930A9B022B21DD059B002B7FF4B0ADEE
:104FC00029460522484600F097FA01460546019811
:104FD00000F0F8FC00287FF7A3AD009E312306F80F
:104FE000013B029B013302939EE535462C46F4E7D4
:104FF000049DCDF80880F9E7049B05930B9B002BDB
:1050000000F00081002E05DD21463246484600F0C2
:105010006BFC0446BAF1000F5AD06168484600F0B4
:105020000BFA064628B9824B024640F2EF21FFF701
:105030003EBB22690232920004F10C010C3001F0F7
:105040006FFF01223146484600F04EFC0746009BA8
:10505000009A03F1010B059B134406930E9B03F08A
:10506000010308930BF1FF33294601980493FFF7DE
:105070007FFA2146059000F1300A019800F0A2FC69
:105080003A4680462946484600F0B8FCC2680646C3
:1050900002BB0146019800F095FC024631464846A5
:1050A000099200F007FADDE9092342EA0301089BAF
:1050B00019435E4610D1BAF1390F2BD0B8F1000F69
:1050C00002DD059B03F1310A049B83F800A02DE566
:1050D0002746BCE70122E1E7B8F1000F06DB0A9B97
:1050E00048EA0308089B58EA030820D1002AEBDDB0
:1050F00001990122484600F0F7FB2946019000F093
:1051000061FC002803DCDFD11AF0010FDCD0BAF11A
:10511000390FD6D1049A3923137033461E46013B0A
:1051200016F8012C392A52D001321A70FEE4002AF6
:1051300007DDBAF1390FEDD0049A0AF101031370BB
:10514000F4E4069B0BF801AC5B452AD001990023DF
:105150000A22484600F0D0F9BC4201904FF000030B
:105160004FF00A022146484606D100F0C5F9044630
:1051700007460BF1010B75E700F0BEF9394604460E
:1051800000230A22484600F0B7F90746F1E7059BDD
:105190005E1E002B009BD8BF00265A1C27461644D3
:1051A000002401990122484600F09EFB2946019007
:1051B00000F008FC0028B0DC02D11AF0010FACD1DD
:1051C00033461E4613F8012D302AFAD0AEE4009A79
:1051D0009A42A3D1029B013302933123AFE7239B71
:1051E000002B7FF498AA134BFFF7B7BA0A9B012B49
:1051F0007FF72FAEDDF834A001204EE6059B002B93
:105200007FF7D7AE009E01982946FFF7B1F900F16C
:10521000300A009B06F801ABF21A059B9342B6DDFB
:10522000019900230A22484600F066F90190EAE756
:10523000107D0008947C000838B50546002941D04F
:1052400051F8043C0C1F002BB8BFE41800F0E8F83C
:105250001D4A136833B9636014602846BDE83840BE
:1052600000F0E4B8A34208D9206821188B4201BF9E
:1052700019685B6809182160EDE71A465B680BB195
:10528000A342FAD911685018A0420BD120680144FA
:10529000501883421160E0D118685B68536008447D
:1052A0001060DAE702D90C232B60D6E720682118BA
:1052B0008B4204BF19685B68636004BF09182160F2
:1052C0005460CAE738BD00BF04060020024B014607
:1052D000186800F025B800BF1800002070B50F4E08
:1052E0000C463168054611B901F00AFE30602146CE
:1052F000284601F005FE431C03D14FF0FF34204641
:1053000070BDC41C24F00304A042F8D0211A284622
:1053100001F0F6FD0130F2D1EFE700BF00060020FA
:105320002DE9F843CD1C25F0030508350C2D38BFB9
:105330000C25002D064601DBA94204D90C2333605D
:105340000020BDE8F883DFF8D48000F069F8D8F8D1
:1053500000301C4644BB29463046FFF7BFFF431CC4
:10536000044658D1D8F800402746002F43D1002CDE
:105370004BD023683946304604EB030901F0C0FDE9
:10538000814542D121686D1A29463046FFF7A6FFB4
:1053900001303AD023682B442360D8F800305A6893
:1053A00062BBC8F800700FE02268521B20D40B2AA1
:1053B00017D96119A342256018BF5960636808BFF7
:1053C000C8F8001062514B60304600F02FF804F12D
:1053D0000B00231D20F00700C21A1CBF1B1AA3508C
:1053E000AFE76268A3420CBFC8F800205A60EBE741
:1053F00023466468AEE73C467F68B6E71A465B68BA
:10540000A342FBD100235360DEE70C233360304618
:1054100000F00CF894E70560D6E700BF0406002012
:105420000148FFF79CB800BFFC0500200148FFF7CA
:1054300097B800BFFC05002070B5C46905460E464C
:1054400084B91020FFF742FF0446E86128B90246FC
:10545000164B17486B2101F07BFD0023C0E9013397
:105460000360C360E36853B921220421284601F098
:105470008DFDEB69E060DB680BB9002070BD53F86F
:10548000260030B1026843F826200023C0E9033328
:10549000F4E7012101FA06F4621D9200284601F0AA
:1054A00075FD0028E9D0C0E90164EEE7A17C0008A1
:1054B000217D000870B5C66905460C4676B91020F6
:1054C000FFF704FF0246E86120B9094B09488F2124
:1054D00001F03EFDC0E901660660C6603CB1EB69C3
:1054E0006268DB6853F82210216043F8224070BDE7
:1054F000A17C0008217D00082DE9F0410D690746D7
:105500000C461E4601F1140C0020DCF8003099B264
:1055100002FB01611E0C0B0C02FB063389B2013049
:1055200001EB034185424CF8041B4FEA1346ECDCC7
:105530000EB3A368AB4219DC616838460131FFF74E
:105540007BFF804628B902460C4B0D48BA2101F07A
:10555000FFFC2269023204F10C0192000C3001F0D0
:10556000DFFC21463846FFF7A5FF444604EB8503E0
:1055700001355E6125612046BDE8F081107D00089F
:10558000217D00082DE9F8430C4615461F460922E7
:105590000833064693FBF2F3002101229A4209DB0D
:1055A0003046FFF749FF40B90246194B1948D3214D
:1055B00001F0CEFC52000131F0E7089B4361092D58
:1055C0004FF00103036116DD04F10908C1462C44C4
:1055D00019F8013B0146303B0A223046FFF78CFFA9
:1055E000A145F5D1A844A8F108042D1B63199F42D9
:1055F00004DCBDE8F8830A340925F6E714F8013B1A
:105600000146303B0A223046FFF776FFEEE700BF47
:10561000107D0008217D0008B0F5803F034636BFAD
:10562000030400201020B3F1807F3CBF1B02083030
:10563000B3F1805F3CBF1B010430B3F1804F3CBF2E
:105640009B000230002B05DB13F0804F00F10100BE
:1056500008BF202070470368024613F007000BD0F4
:10566000D90721D4980749BF5B089B080120136024
:105670005CBF13600220704799B209B91B0C10205F
:10568000D9B209B908301B0A190704BF1B09043035
:10569000990704BF9B080230D90703D45B0800F1C7
:1056A000010003D01360704700207047202070472E
:1056B00010B50C460121FFF7BFFE024628B9054B85
:1056C000054840F2451101F043FC012344610361A8
:1056D00010BD00BF107D0008217D00082DE9F04FAE
:1056E000D1F81090D2F810A0D14585B08846144664
:1056F00004DB53460C46CA4690469946A368616847
:105700000AEB0906B342B8BF0131FFF795FE30B985
:105710000246454B45484FF4B17101F019FC00F1C8
:10572000140505EB86072B460022BB421FD304F16C
:10573000140C08F114010CEB8A0301EB89020292AC
:105740001A1B153A22F0030215349C4288BF00222E
:105750000192029A03918A420CD8002E03DD57F879
:10576000043D002B5DD0066105B0BDE8F08F43F825
:10577000042BDAE7B1F800A0BAF1000F24D0E0461C
:10578000A9464FF0000E58F8042BD9F800401FFA34
:1057900082FBA4B20AFB0B444FEA124BD9F800205B
:1057A00074444FEA124E0AFB0BE202EB1442A4B21D
:1057B00044EA0244434549F8044B4FEA124EE2D80A
:1057C000019AAA18C2F804E0039AB2F802800431E0
:1057D000B8F1000F23D02A68E6469146AA464FF05A
:1057E000000BBEF8004008FB04B404EB194492B26D
:1057F00042EA04424AF8042B5EF8042BDAF80090DF
:105800004FEA124B1FFA89F208FB0B2202EB1442FB
:1058100073454FEA124BE4D8019C2C1962600435A1
:1058200097E7013E99E700BF107D0008217D000841
:105830002DE9F843174612F0030280460D4607D0C3
:10584000264C013A002354F82220FFF755FE054666
:10585000BF103FD0D8F81C4094B91020FFF736FD98
:105860000446C8F81C0030B902461D4B1D4840F2E2
:10587000B31101F06DFB0023C0E901330360C36085
:10588000A66846B940F271214046FFF711FF002398
:10589000A060064603602C464FF0000907F00103A4
:1058A0007F1053B1294632464046FFF717FF214685
:1058B00005464046FFF7FEFD67B1306838B932460D
:1058C00031464046FFF70AFF3060C0F800900646B8
:1058D0002C46E3E72846BDE8F88300BF747E000845
:1058E000A17C0008217D00082DE9F84F0C4649688D
:1058F000236903EB6218A368074615464FEA621A4C
:1059000008F101094B450BDB3846FFF795FD0646CC
:1059100048B90246294B2A484FF4EF7101F018FBB1
:1059200001315B00EEE7002300F1140C00F11002DE
:105930001946534535DB22692AEAEA7A0CEB8A0CD0
:1059400004F1140315F01F0E614603EB82022CD004
:10595000CEF1200A002518688B4600FA0EF0284385
:10596000CBF8000053F8045B9A4201F1040125FAD8
:105970000AF5F0D8131B153B23F0030304F11501BE
:105980008A4238BF00239C44CCF8045005B9C14674
:105990003846C6F810902146FFF78CFD3046BDE82A
:1059A000F88F42F8041F0133C3E753F8045B0D601E
:1059B0009A4201F10401F8D8E9E700BF107D000820
:1059C000217D00080A6903460069801A30B50ED1AE
:1059D0001433143103EB820401EB820154F8045DAB
:1059E00051F8042D954203D005D24FF0FF3030BD61
:1059F000A342F3D3FBE70120F9E700002DE9F74FBD
:105A00008A460646114650461446FFF7DBFF051E40
:105A100012D129463046FFF70FFD024628B9414B07
:105A200040F23721404801F093FA0123C0E90435E0
:105A3000104603B0BDE8F08FBCBF5346A2463046C7
:105A4000DAF80410BABF1C4601250025FFF7F4FC64
:105A5000024618B9334B40F24521E3E7DAF81070FB
:105A60002669C5600AF1140904F1140E00F1140549
:105A70000AF1100309EB87080EEB86060193AB468B
:105A80004FF0000C019B5EF8040B53F804AF019338
:105A90001FFA8AF3194683B2CB1A000C6344C0EB99
:105AA0001A4000EB23409BB243EA004376454BF893
:105AB000043B4FEA204CE5D8331B153B153423F04B
:105AC0000303A64238BF0023E8184B441C1D0430D2
:105AD0002646A5EB0905464506EB050E0ED308F153
